{"abi":[{"inputs":[{"internalType":"string","name":"summary","type":"string"},{"internalType":"string","name":"fullName","type":"string"}],"name":"createFIR","outputs":[],"stateMutability":"nonpayable","type":"function"},{"inputs":[{"internalType":"uint256","name":"","type":"uint256"}],"name":"deployedFIRs","outputs":[{"internalType":"address","name":"","type":"address"}],"stateMutability":"view","type":"function"},{"inputs":[],"name":"getDeployedFIRs","outputs":[{"internalType":"address[]","name":"","type":"address[]"}],"stateMutability":"view","type":"function"},{"inputs":[],"name":"getLatestFIR","outputs":[{"internalType":"address","name":"","type":"address"}],"stateMutability":"view","type":"function"}],"devdoc":{"kind":"dev","methods":{},"version":1},"evm":{"assembly":"    /* \"FIR.sol\":107:620  contract FIRFactory{\r... */\n  mstore(0x40, 0x80)\n  callvalue\n  dup1\n  iszero\n  tag_1\n  jumpi\n  0x00\n  dup1\n  revert\ntag_1:\n  pop\n  dataSize(sub_0)\n  dup1\n  dataOffset(sub_0)\n  0x00\n  codecopy\n  0x00\n  return\nstop\n\nsub_0: assembly {\n        /* \"FIR.sol\":107:620  contract FIRFactory{\r... */\n      mstore(0x40, 0x80)\n      callvalue\n      dup1\n      iszero\n      tag_1\n      jumpi\n      0x00\n      dup1\n      revert\n    tag_1:\n      pop\n      jumpi(tag_2, lt(calldatasize, 0x04))\n      shr(0xe0, calldataload(0x00))\n      dup1\n      0x2412f27a\n      eq\n      tag_3\n      jumpi\n      dup1\n      0x50322534\n      eq\n      tag_4\n      jumpi\n      dup1\n      0x9f9c3d84\n      eq\n      tag_5\n      jumpi\n      dup1\n      0xadb325d2\n      eq\n      tag_6\n      jumpi\n    tag_2:\n      0x00\n      dup1\n      revert\n        /* \"FIR.sol\":515:617  function getDeployedFIRs() public view returns (address[] memory){\r... */\n    tag_3:\n      tag_7\n      tag_8\n      jump\t// in\n    tag_7:\n      mload(0x40)\n      tag_9\n      swap2\n      swap1\n      tag_10\n      jump\t// in\n    tag_9:\n      mload(0x40)\n      dup1\n      swap2\n      sub\n      swap1\n      return\n        /* \"FIR.sol\":133:162  address[] public deployedFIRs */\n    tag_4:\n      tag_11\n      0x04\n      dup1\n      calldatasize\n      sub\n      dup2\n      add\n      swap1\n      tag_12\n      swap2\n      swap1\n      tag_13\n      jump\t// in\n    tag_12:\n      tag_14\n      jump\t// in\n    tag_11:\n      mload(0x40)\n      tag_15\n      swap2\n      swap1\n      tag_16\n      jump\t// in\n    tag_15:\n      mload(0x40)\n      dup1\n      swap2\n      sub\n      swap1\n      return\n        /* \"FIR.sol\":420:507  function getLatestFIR() public view returns(address){\r... */\n    tag_5:\n      tag_17\n      tag_18\n      jump\t// in\n    tag_17:\n      mload(0x40)\n      tag_19\n      swap2\n      swap1\n      tag_16\n      jump\t// in\n    tag_19:\n      mload(0x40)\n      dup1\n      swap2\n      sub\n      swap1\n      return\n        /* \"FIR.sol\":195:412  function createFIR(string memory summary,string memory fullName) public{\r... */\n    tag_6:\n      tag_20\n      0x04\n      dup1\n      calldatasize\n      sub\n      dup2\n      add\n      swap1\n      tag_21\n      swap2\n      swap1\n      tag_22\n      jump\t// in\n    tag_21:\n      tag_23\n      jump\t// in\n    tag_20:\n      stop\n        /* \"FIR.sol\":515:617  function getDeployedFIRs() public view returns (address[] memory){\r... */\n    tag_8:\n        /* \"FIR.sol\":563:579  address[] memory */\n      0x60\n        /* \"FIR.sol\":597:609  deployedFIRs */\n      0x00\n        /* \"FIR.sol\":590:609  return deployedFIRs */\n      dup1\n      sload\n      dup1\n      0x20\n      mul\n      0x20\n      add\n      mload(0x40)\n      swap1\n      dup2\n      add\n      0x40\n      mstore\n      dup1\n      swap3\n      swap2\n      swap1\n      dup2\n      dup2\n      mstore\n      0x20\n      add\n      dup3\n      dup1\n      sload\n      dup1\n      iszero\n      tag_25\n      jumpi\n      0x20\n      mul\n      dup3\n      add\n      swap2\n      swap1\n      0x00\n      mstore\n      keccak256(0x00, 0x20)\n      swap1\n    tag_26:\n      dup2\n      0x00\n      swap1\n      sload\n      swap1\n      0x0100\n      exp\n      swap1\n      div\n      0xffffffffffffffffffffffffffffffffffffffff\n      and\n      0xffffffffffffffffffffffffffffffffffffffff\n      and\n      dup2\n      mstore\n      0x20\n      add\n      swap1\n      0x01\n      add\n      swap1\n      dup1\n      dup4\n      gt\n      tag_26\n      jumpi\n    tag_25:\n      pop\n      pop\n      pop\n      pop\n      pop\n      swap1\n      pop\n        /* \"FIR.sol\":515:617  function getDeployedFIRs() public view returns (address[] memory){\r... */\n      swap1\n      jump\t// out\n        /* \"FIR.sol\":133:162  address[] public deployedFIRs */\n    tag_14:\n      0x00\n      dup2\n      dup2\n      sload\n      dup2\n      lt\n      tag_27\n      jumpi\n      invalid\n    tag_27:\n      swap1\n      0x00\n      mstore\n      keccak256(0x00, 0x20)\n      add\n      0x00\n      swap2\n      pop\n      sload\n      swap1\n      0x0100\n      exp\n      swap1\n      div\n      0xffffffffffffffffffffffffffffffffffffffff\n      and\n      dup2\n      jump\t// out\n        /* \"FIR.sol\":420:507  function getLatestFIR() public view returns(address){\r... */\n    tag_18:\n        /* \"FIR.sol\":464:471  address */\n      0x00\n        /* \"FIR.sol\":490:499  latestFIR */\n      0x01\n      0x00\n      swap1\n      sload\n      swap1\n      0x0100\n      exp\n      swap1\n      div\n      0xffffffffffffffffffffffffffffffffffffffff\n      and\n        /* \"FIR.sol\":483:499  return latestFIR */\n      swap1\n      pop\n        /* \"FIR.sol\":420:507  function getLatestFIR() public view returns(address){\r... */\n      swap1\n      jump\t// out\n        /* \"FIR.sol\":195:412  function createFIR(string memory summary,string memory fullName) public{\r... */\n    tag_23:\n        /* \"FIR.sol\":277:291  address newFIR */\n      0x00\n        /* \"FIR.sol\":310:317  summary */\n      dup3\n        /* \"FIR.sol\":318:326  fullName */\n      dup3\n        /* \"FIR.sol\":327:337  msg.sender */\n      caller\n        /* \"FIR.sol\":302:338  new FIR(summary,fullName,msg.sender) */\n      mload(0x40)\n      tag_31\n      swap1\n      tag_32\n      jump\t// in\n    tag_31:\n      tag_33\n      swap4\n      swap3\n      swap2\n      swap1\n      tag_34\n      jump\t// in\n    tag_33:\n      mload(0x40)\n      dup1\n      swap2\n      sub\n      swap1\n      0x00\n      create\n      dup1\n      iszero\n      dup1\n      iszero\n      tag_35\n      jumpi\n      returndatasize\n      0x00\n      dup1\n      returndatacopy\n      revert(0x00, returndatasize)\n    tag_35:\n      pop\n        /* \"FIR.sol\":277:339  address newFIR = address(new FIR(summary,fullName,msg.sender)) */\n      swap1\n      pop\n        /* \"FIR.sol\":350:362  deployedFIRs */\n      0x00\n        /* \"FIR.sol\":368:374  newFIR */\n      dup2\n        /* \"FIR.sol\":350:375  deployedFIRs.push(newFIR) */\n      swap1\n      dup1\n      0x01\n      dup2\n      sload\n      add\n      dup1\n      dup3\n      sstore\n      dup1\n      swap2\n      pop\n      pop\n      0x01\n      swap1\n      sub\n      swap1\n      0x00\n      mstore\n      keccak256(0x00, 0x20)\n      add\n      0x00\n      swap1\n      swap2\n      swap1\n      swap2\n      swap1\n      swap2\n      0x0100\n      exp\n      dup2\n      sload\n      dup2\n      0xffffffffffffffffffffffffffffffffffffffff\n      mul\n      not\n      and\n      swap1\n      dup4\n      0xffffffffffffffffffffffffffffffffffffffff\n      and\n      mul\n      or\n      swap1\n      sstore\n      pop\n        /* \"FIR.sol\":398:404  newFIR */\n      dup1\n        /* \"FIR.sol\":386:395  latestFIR */\n      0x01\n      0x00\n        /* \"FIR.sol\":386:404  latestFIR = newFIR */\n      0x0100\n      exp\n      dup2\n      sload\n      dup2\n      0xffffffffffffffffffffffffffffffffffffffff\n      mul\n      not\n      and\n      swap1\n      dup4\n      0xffffffffffffffffffffffffffffffffffffffff\n      and\n      mul\n      or\n      swap1\n      sstore\n      pop\n        /* \"FIR.sol\":195:412  function createFIR(string memory summary,string memory fullName) public{\r... */\n      pop\n      pop\n      pop\n      jump\t// out\n    tag_32:\n      dataSize(sub_0)\n      dup1\n      dataOffset(sub_0)\n      dup4\n      codecopy\n      add\n      swap1\n      jump\t// out\n        /* \"--CODEGEN--\":6:448   */\n    tag_38:\n      0x00\n        /* \"--CODEGEN--\":108:111   */\n      dup3\n        /* \"--CODEGEN--\":101:105   */\n      0x1f\n        /* \"--CODEGEN--\":93:99   */\n      dup4\n        /* \"--CODEGEN--\":89:106   */\n      add\n        /* \"--CODEGEN--\":85:112   */\n      slt\n        /* \"--CODEGEN--\":75:77   */\n      tag_40\n      jumpi\n        /* \"--CODEGEN--\":126:127   */\n      0x00\n        /* \"--CODEGEN--\":123:124   */\n      dup1\n        /* \"--CODEGEN--\":116:128   */\n      revert\n        /* \"--CODEGEN--\":75:77   */\n    tag_40:\n        /* \"--CODEGEN--\":163:169   */\n      dup2\n        /* \"--CODEGEN--\":150:170   */\n      calldataload\n        /* \"--CODEGEN--\":185:250   */\n      tag_41\n        /* \"--CODEGEN--\":200:249   */\n      tag_42\n        /* \"--CODEGEN--\":242:248   */\n      dup3\n        /* \"--CODEGEN--\":200:249   */\n      tag_43\n      jump\t// in\n    tag_42:\n        /* \"--CODEGEN--\":185:250   */\n      tag_44\n      jump\t// in\n    tag_41:\n        /* \"--CODEGEN--\":176:250   */\n      swap2\n      pop\n        /* \"--CODEGEN--\":270:276   */\n      dup1\n        /* \"--CODEGEN--\":263:268   */\n      dup3\n        /* \"--CODEGEN--\":256:277   */\n      mstore\n        /* \"--CODEGEN--\":306:310   */\n      0x20\n        /* \"--CODEGEN--\":298:304   */\n      dup4\n        /* \"--CODEGEN--\":294:311   */\n      add\n        /* \"--CODEGEN--\":339:343   */\n      0x20\n        /* \"--CODEGEN--\":332:337   */\n      dup4\n        /* \"--CODEGEN--\":328:344   */\n      add\n        /* \"--CODEGEN--\":374:377   */\n      dup6\n        /* \"--CODEGEN--\":365:371   */\n      dup4\n        /* \"--CODEGEN--\":360:363   */\n      dup4\n        /* \"--CODEGEN--\":356:372   */\n      add\n        /* \"--CODEGEN--\":353:378   */\n      gt\n        /* \"--CODEGEN--\":350:352   */\n      iszero\n      tag_45\n      jumpi\n        /* \"--CODEGEN--\":391:392   */\n      0x00\n        /* \"--CODEGEN--\":388:389   */\n      dup1\n        /* \"--CODEGEN--\":381:393   */\n      revert\n        /* \"--CODEGEN--\":350:352   */\n    tag_45:\n        /* \"--CODEGEN--\":401:442   */\n      tag_46\n        /* \"--CODEGEN--\":435:441   */\n      dup4\n        /* \"--CODEGEN--\":430:433   */\n      dup3\n        /* \"--CODEGEN--\":425:428   */\n      dup5\n        /* \"--CODEGEN--\":401:442   */\n      tag_47\n      jump\t// in\n    tag_46:\n        /* \"--CODEGEN--\":68:448   */\n      pop\n      pop\n      pop\n      swap3\n      swap2\n      pop\n      pop\n      jump\t// out\n        /* \"--CODEGEN--\":456:586   */\n    tag_48:\n      0x00\n        /* \"--CODEGEN--\":536:542   */\n      dup2\n        /* \"--CODEGEN--\":523:543   */\n      calldataload\n        /* \"--CODEGEN--\":514:543   */\n      swap1\n      pop\n        /* \"--CODEGEN--\":548:581   */\n      tag_50\n        /* \"--CODEGEN--\":575:580   */\n      dup2\n        /* \"--CODEGEN--\":548:581   */\n      tag_51\n      jump\t// in\n    tag_50:\n        /* \"--CODEGEN--\":508:586   */\n      swap3\n      swap2\n      pop\n      pop\n      jump\t// out\n        /* \"--CODEGEN--\":593:1171   */\n    tag_22:\n      0x00\n      dup1\n        /* \"--CODEGEN--\":734:736   */\n      0x40\n        /* \"--CODEGEN--\":722:731   */\n      dup4\n        /* \"--CODEGEN--\":713:720   */\n      dup6\n        /* \"--CODEGEN--\":709:732   */\n      sub\n        /* \"--CODEGEN--\":705:737   */\n      slt\n        /* \"--CODEGEN--\":702:704   */\n      iszero\n      tag_53\n      jumpi\n        /* \"--CODEGEN--\":750:751   */\n      0x00\n        /* \"--CODEGEN--\":747:748   */\n      dup1\n        /* \"--CODEGEN--\":740:752   */\n      revert\n        /* \"--CODEGEN--\":702:704   */\n    tag_53:\n        /* \"--CODEGEN--\":813:814   */\n      0x00\n        /* \"--CODEGEN--\":802:811   */\n      dup4\n        /* \"--CODEGEN--\":798:815   */\n      add\n        /* \"--CODEGEN--\":785:816   */\n      calldataload\n        /* \"--CODEGEN--\":836:854   */\n      0xffffffffffffffff\n        /* \"--CODEGEN--\":828:834   */\n      dup2\n        /* \"--CODEGEN--\":825:855   */\n      gt\n        /* \"--CODEGEN--\":822:824   */\n      iszero\n      tag_54\n      jumpi\n        /* \"--CODEGEN--\":868:869   */\n      0x00\n        /* \"--CODEGEN--\":865:866   */\n      dup1\n        /* \"--CODEGEN--\":858:870   */\n      revert\n        /* \"--CODEGEN--\":822:824   */\n    tag_54:\n        /* \"--CODEGEN--\":888:951   */\n      tag_55\n        /* \"--CODEGEN--\":943:950   */\n      dup6\n        /* \"--CODEGEN--\":934:940   */\n      dup3\n        /* \"--CODEGEN--\":923:932   */\n      dup7\n        /* \"--CODEGEN--\":919:941   */\n      add\n        /* \"--CODEGEN--\":888:951   */\n      tag_38\n      jump\t// in\n    tag_55:\n        /* \"--CODEGEN--\":878:951   */\n      swap3\n      pop\n        /* \"--CODEGEN--\":764:957   */\n      pop\n        /* \"--CODEGEN--\":1016:1018   */\n      0x20\n        /* \"--CODEGEN--\":1005:1014   */\n      dup4\n        /* \"--CODEGEN--\":1001:1019   */\n      add\n        /* \"--CODEGEN--\":988:1020   */\n      calldataload\n        /* \"--CODEGEN--\":1040:1058   */\n      0xffffffffffffffff\n        /* \"--CODEGEN--\":1032:1038   */\n      dup2\n        /* \"--CODEGEN--\":1029:1059   */\n      gt\n        /* \"--CODEGEN--\":1026:1028   */\n      iszero\n      tag_56\n      jumpi\n        /* \"--CODEGEN--\":1072:1073   */\n      0x00\n        /* \"--CODEGEN--\":1069:1070   */\n      dup1\n        /* \"--CODEGEN--\":1062:1074   */\n      revert\n        /* \"--CODEGEN--\":1026:1028   */\n    tag_56:\n        /* \"--CODEGEN--\":1092:1155   */\n      tag_57\n        /* \"--CODEGEN--\":1147:1154   */\n      dup6\n        /* \"--CODEGEN--\":1138:1144   */\n      dup3\n        /* \"--CODEGEN--\":1127:1136   */\n      dup7\n        /* \"--CODEGEN--\":1123:1145   */\n      add\n        /* \"--CODEGEN--\":1092:1155   */\n      tag_38\n      jump\t// in\n    tag_57:\n        /* \"--CODEGEN--\":1082:1155   */\n      swap2\n      pop\n        /* \"--CODEGEN--\":967:1161   */\n      pop\n        /* \"--CODEGEN--\":696:1171   */\n      swap3\n      pop\n      swap3\n      swap1\n      pop\n      jump\t// out\n        /* \"--CODEGEN--\":1178:1419   */\n    tag_13:\n      0x00\n        /* \"--CODEGEN--\":1282:1284   */\n      0x20\n        /* \"--CODEGEN--\":1270:1279   */\n      dup3\n        /* \"--CODEGEN--\":1261:1268   */\n      dup5\n        /* \"--CODEGEN--\":1257:1280   */\n      sub\n        /* \"--CODEGEN--\":1253:1285   */\n      slt\n        /* \"--CODEGEN--\":1250:1252   */\n      iszero\n      tag_59\n      jumpi\n        /* \"--CODEGEN--\":1298:1299   */\n      0x00\n        /* \"--CODEGEN--\":1295:1296   */\n      dup1\n        /* \"--CODEGEN--\":1288:1300   */\n      revert\n        /* \"--CODEGEN--\":1250:1252   */\n    tag_59:\n        /* \"--CODEGEN--\":1333:1334   */\n      0x00\n        /* \"--CODEGEN--\":1350:1403   */\n      tag_60\n        /* \"--CODEGEN--\":1395:1402   */\n      dup5\n        /* \"--CODEGEN--\":1386:1392   */\n      dup3\n        /* \"--CODEGEN--\":1375:1384   */\n      dup6\n        /* \"--CODEGEN--\":1371:1393   */\n      add\n        /* \"--CODEGEN--\":1350:1403   */\n      tag_48\n      jump\t// in\n    tag_60:\n        /* \"--CODEGEN--\":1340:1403   */\n      swap2\n      pop\n        /* \"--CODEGEN--\":1312:1409   */\n      pop\n        /* \"--CODEGEN--\":1244:1419   */\n      swap3\n      swap2\n      pop\n      pop\n      jump\t// out\n        /* \"--CODEGEN--\":1427:1600   */\n    tag_61:\n      0x00\n        /* \"--CODEGEN--\":1514:1560   */\n      tag_63\n        /* \"--CODEGEN--\":1556:1559   */\n      dup4\n        /* \"--CODEGEN--\":1548:1554   */\n      dup4\n        /* \"--CODEGEN--\":1514:1560   */\n      tag_64\n      jump\t// in\n    tag_63:\n        /* \"--CODEGEN--\":1589:1593   */\n      0x20\n        /* \"--CODEGEN--\":1584:1587   */\n      dup4\n        /* \"--CODEGEN--\":1580:1594   */\n      add\n        /* \"--CODEGEN--\":1566:1594   */\n      swap1\n      pop\n        /* \"--CODEGEN--\":1507:1600   */\n      swap3\n      swap2\n      pop\n      pop\n      jump\t// out\n        /* \"--CODEGEN--\":1608:1750   */\n    tag_65:\n        /* \"--CODEGEN--\":1699:1744   */\n      tag_67\n        /* \"--CODEGEN--\":1738:1743   */\n      dup2\n        /* \"--CODEGEN--\":1699:1744   */\n      tag_68\n      jump\t// in\n    tag_67:\n        /* \"--CODEGEN--\":1694:1697   */\n      dup3\n        /* \"--CODEGEN--\":1687:1745   */\n      mstore\n        /* \"--CODEGEN--\":1681:1750   */\n      pop\n      pop\n      jump\t// out\n        /* \"--CODEGEN--\":1757:1860   */\n    tag_64:\n        /* \"--CODEGEN--\":1830:1854   */\n      tag_70\n        /* \"--CODEGEN--\":1848:1853   */\n      dup2\n        /* \"--CODEGEN--\":1830:1854   */\n      tag_71\n      jump\t// in\n    tag_70:\n        /* \"--CODEGEN--\":1825:1828   */\n      dup3\n        /* \"--CODEGEN--\":1818:1855   */\n      mstore\n        /* \"--CODEGEN--\":1812:1860   */\n      pop\n      pop\n      jump\t// out\n        /* \"--CODEGEN--\":1867:1980   */\n    tag_72:\n        /* \"--CODEGEN--\":1950:1974   */\n      tag_74\n        /* \"--CODEGEN--\":1968:1973   */\n      dup2\n        /* \"--CODEGEN--\":1950:1974   */\n      tag_71\n      jump\t// in\n    tag_74:\n        /* \"--CODEGEN--\":1945:1948   */\n      dup3\n        /* \"--CODEGEN--\":1938:1975   */\n      mstore\n        /* \"--CODEGEN--\":1932:1980   */\n      pop\n      pop\n      jump\t// out\n        /* \"--CODEGEN--\":2018:2708   */\n    tag_75:\n      0x00\n        /* \"--CODEGEN--\":2163:2217   */\n      tag_77\n        /* \"--CODEGEN--\":2211:2216   */\n      dup3\n        /* \"--CODEGEN--\":2163:2217   */\n      tag_78\n      jump\t// in\n    tag_77:\n        /* \"--CODEGEN--\":2230:2316   */\n      tag_79\n        /* \"--CODEGEN--\":2309:2315   */\n      dup2\n        /* \"--CODEGEN--\":2304:2307   */\n      dup6\n        /* \"--CODEGEN--\":2230:2316   */\n      tag_80\n      jump\t// in\n    tag_79:\n        /* \"--CODEGEN--\":2223:2316   */\n      swap4\n      pop\n        /* \"--CODEGEN--\":2337:2393   */\n      tag_81\n        /* \"--CODEGEN--\":2387:2392   */\n      dup4\n        /* \"--CODEGEN--\":2337:2393   */\n      tag_82\n      jump\t// in\n    tag_81:\n        /* \"--CODEGEN--\":2413:2420   */\n      dup1\n        /* \"--CODEGEN--\":2441:2442   */\n      0x00\n        /* \"--CODEGEN--\":2426:2686   */\n    tag_83:\n        /* \"--CODEGEN--\":2451:2457   */\n      dup4\n        /* \"--CODEGEN--\":2448:2449   */\n      dup2\n        /* \"--CODEGEN--\":2445:2458   */\n      lt\n        /* \"--CODEGEN--\":2426:2686   */\n      iszero\n      tag_85\n      jumpi\n        /* \"--CODEGEN--\":2518:2524   */\n      dup2\n        /* \"--CODEGEN--\":2512:2525   */\n      mload\n        /* \"--CODEGEN--\":2539:2602   */\n      tag_86\n        /* \"--CODEGEN--\":2598:2601   */\n      dup9\n        /* \"--CODEGEN--\":2583:2596   */\n      dup3\n        /* \"--CODEGEN--\":2539:2602   */\n      tag_61\n      jump\t// in\n    tag_86:\n        /* \"--CODEGEN--\":2532:2602   */\n      swap8\n      pop\n        /* \"--CODEGEN--\":2619:2679   */\n      tag_87\n        /* \"--CODEGEN--\":2672:2678   */\n      dup4\n        /* \"--CODEGEN--\":2619:2679   */\n      tag_88\n      jump\t// in\n    tag_87:\n        /* \"--CODEGEN--\":2609:2679   */\n      swap3\n      pop\n        /* \"--CODEGEN--\":2483:2686   */\n      pop\n        /* \"--CODEGEN--\":2473:2474   */\n      0x01\n        /* \"--CODEGEN--\":2470:2471   */\n      dup2\n        /* \"--CODEGEN--\":2466:2475   */\n      add\n        /* \"--CODEGEN--\":2461:2475   */\n      swap1\n      pop\n        /* \"--CODEGEN--\":2426:2686   */\n      jump(tag_83)\n    tag_85:\n        /* \"--CODEGEN--\":2430:2444   */\n      pop\n        /* \"--CODEGEN--\":2699:2702   */\n      dup6\n        /* \"--CODEGEN--\":2692:2702   */\n      swap4\n      pop\n        /* \"--CODEGEN--\":2142:2708   */\n      pop\n      pop\n      pop\n      swap3\n      swap2\n      pop\n      pop\n      jump\t// out\n        /* \"--CODEGEN--\":2716:3063   */\n    tag_89:\n      0x00\n        /* \"--CODEGEN--\":2828:2867   */\n      tag_91\n        /* \"--CODEGEN--\":2861:2866   */\n      dup3\n        /* \"--CODEGEN--\":2828:2867   */\n      tag_92\n      jump\t// in\n    tag_91:\n        /* \"--CODEGEN--\":2879:2950   */\n      tag_93\n        /* \"--CODEGEN--\":2943:2949   */\n      dup2\n        /* \"--CODEGEN--\":2938:2941   */\n      dup6\n        /* \"--CODEGEN--\":2879:2950   */\n      tag_94\n      jump\t// in\n    tag_93:\n        /* \"--CODEGEN--\":2872:2950   */\n      swap4\n      pop\n        /* \"--CODEGEN--\":2955:3007   */\n      tag_95\n        /* \"--CODEGEN--\":3000:3006   */\n      dup2\n        /* \"--CODEGEN--\":2995:2998   */\n      dup6\n        /* \"--CODEGEN--\":2988:2992   */\n      0x20\n        /* \"--CODEGEN--\":2981:2986   */\n      dup7\n        /* \"--CODEGEN--\":2977:2993   */\n      add\n        /* \"--CODEGEN--\":2955:3007   */\n      tag_96\n      jump\t// in\n    tag_95:\n        /* \"--CODEGEN--\":3028:3057   */\n      tag_97\n        /* \"--CODEGEN--\":3050:3056   */\n      dup2\n        /* \"--CODEGEN--\":3028:3057   */\n      tag_98\n      jump\t// in\n    tag_97:\n        /* \"--CODEGEN--\":3023:3026   */\n      dup5\n        /* \"--CODEGEN--\":3019:3058   */\n      add\n        /* \"--CODEGEN--\":3012:3058   */\n      swap2\n      pop\n        /* \"--CODEGEN--\":2808:3063   */\n      pop\n      swap3\n      swap2\n      pop\n      pop\n      jump\t// out\n        /* \"--CODEGEN--\":3070:3292   */\n    tag_16:\n      0x00\n        /* \"--CODEGEN--\":3197:3199   */\n      0x20\n        /* \"--CODEGEN--\":3186:3195   */\n      dup3\n        /* \"--CODEGEN--\":3182:3200   */\n      add\n        /* \"--CODEGEN--\":3174:3200   */\n      swap1\n      pop\n        /* \"--CODEGEN--\":3211:3282   */\n      tag_100\n        /* \"--CODEGEN--\":3279:3280   */\n      0x00\n        /* \"--CODEGEN--\":3268:3277   */\n      dup4\n        /* \"--CODEGEN--\":3264:3281   */\n      add\n        /* \"--CODEGEN--\":3255:3261   */\n      dup5\n        /* \"--CODEGEN--\":3211:3282   */\n      tag_72\n      jump\t// in\n    tag_100:\n        /* \"--CODEGEN--\":3168:3292   */\n      swap3\n      swap2\n      pop\n      pop\n      jump\t// out\n        /* \"--CODEGEN--\":3299:3669   */\n    tag_10:\n      0x00\n        /* \"--CODEGEN--\":3476:3478   */\n      0x20\n        /* \"--CODEGEN--\":3465:3474   */\n      dup3\n        /* \"--CODEGEN--\":3461:3479   */\n      add\n        /* \"--CODEGEN--\":3453:3479   */\n      swap1\n      pop\n        /* \"--CODEGEN--\":3526:3535   */\n      dup2\n        /* \"--CODEGEN--\":3520:3524   */\n      dup2\n        /* \"--CODEGEN--\":3516:3536   */\n      sub\n        /* \"--CODEGEN--\":3512:3513   */\n      0x00\n        /* \"--CODEGEN--\":3501:3510   */\n      dup4\n        /* \"--CODEGEN--\":3497:3514   */\n      add\n        /* \"--CODEGEN--\":3490:3537   */\n      mstore\n        /* \"--CODEGEN--\":3551:3659   */\n      tag_102\n        /* \"--CODEGEN--\":3654:3658   */\n      dup2\n        /* \"--CODEGEN--\":3645:3651   */\n      dup5\n        /* \"--CODEGEN--\":3551:3659   */\n      tag_75\n      jump\t// in\n    tag_102:\n        /* \"--CODEGEN--\":3543:3659   */\n      swap1\n      pop\n        /* \"--CODEGEN--\":3447:3669   */\n      swap3\n      swap2\n      pop\n      pop\n      jump\t// out\n        /* \"--CODEGEN--\":3676:4312   */\n    tag_34:\n      0x00\n        /* \"--CODEGEN--\":3907:3909   */\n      0x60\n        /* \"--CODEGEN--\":3896:3905   */\n      dup3\n        /* \"--CODEGEN--\":3892:3910   */\n      add\n        /* \"--CODEGEN--\":3884:3910   */\n      swap1\n      pop\n        /* \"--CODEGEN--\":3957:3966   */\n      dup2\n        /* \"--CODEGEN--\":3951:3955   */\n      dup2\n        /* \"--CODEGEN--\":3947:3967   */\n      sub\n        /* \"--CODEGEN--\":3943:3944   */\n      0x00\n        /* \"--CODEGEN--\":3932:3941   */\n      dup4\n        /* \"--CODEGEN--\":3928:3945   */\n      add\n        /* \"--CODEGEN--\":3921:3968   */\n      mstore\n        /* \"--CODEGEN--\":3982:4060   */\n      tag_104\n        /* \"--CODEGEN--\":4055:4059   */\n      dup2\n        /* \"--CODEGEN--\":4046:4052   */\n      dup7\n        /* \"--CODEGEN--\":3982:4060   */\n      tag_89\n      jump\t// in\n    tag_104:\n        /* \"--CODEGEN--\":3974:4060   */\n      swap1\n      pop\n        /* \"--CODEGEN--\":4108:4117   */\n      dup2\n        /* \"--CODEGEN--\":4102:4106   */\n      dup2\n        /* \"--CODEGEN--\":4098:4118   */\n      sub\n        /* \"--CODEGEN--\":4093:4095   */\n      0x20\n        /* \"--CODEGEN--\":4082:4091   */\n      dup4\n        /* \"--CODEGEN--\":4078:4096   */\n      add\n        /* \"--CODEGEN--\":4071:4119   */\n      mstore\n        /* \"--CODEGEN--\":4133:4211   */\n      tag_105\n        /* \"--CODEGEN--\":4206:4210   */\n      dup2\n        /* \"--CODEGEN--\":4197:4203   */\n      dup6\n        /* \"--CODEGEN--\":4133:4211   */\n      tag_89\n      jump\t// in\n    tag_105:\n        /* \"--CODEGEN--\":4125:4211   */\n      swap1\n      pop\n        /* \"--CODEGEN--\":4222:4302   */\n      tag_106\n        /* \"--CODEGEN--\":4298:4300   */\n      0x40\n        /* \"--CODEGEN--\":4287:4296   */\n      dup4\n        /* \"--CODEGEN--\":4283:4301   */\n      add\n        /* \"--CODEGEN--\":4274:4280   */\n      dup5\n        /* \"--CODEGEN--\":4222:4302   */\n      tag_65\n      jump\t// in\n    tag_106:\n        /* \"--CODEGEN--\":3878:4312   */\n      swap5\n      swap4\n      pop\n      pop\n      pop\n      pop\n      jump\t// out\n        /* \"--CODEGEN--\":4319:4575   */\n    tag_44:\n      0x00\n        /* \"--CODEGEN--\":4381:4383   */\n      0x40\n        /* \"--CODEGEN--\":4375:4384   */\n      mload\n        /* \"--CODEGEN--\":4365:4384   */\n      swap1\n      pop\n        /* \"--CODEGEN--\":4419:4423   */\n      dup2\n        /* \"--CODEGEN--\":4411:4417   */\n      dup2\n        /* \"--CODEGEN--\":4407:4424   */\n      add\n        /* \"--CODEGEN--\":4518:4524   */\n      dup2\n        /* \"--CODEGEN--\":4506:4516   */\n      dup2\n        /* \"--CODEGEN--\":4503:4525   */\n      lt\n        /* \"--CODEGEN--\":4482:4500   */\n      0xffffffffffffffff\n        /* \"--CODEGEN--\":4470:4480   */\n      dup3\n        /* \"--CODEGEN--\":4467:4501   */\n      gt\n        /* \"--CODEGEN--\":4464:4526   */\n      or\n        /* \"--CODEGEN--\":4461:4463   */\n      iszero\n      tag_108\n      jumpi\n        /* \"--CODEGEN--\":4539:4540   */\n      0x00\n        /* \"--CODEGEN--\":4536:4537   */\n      dup1\n        /* \"--CODEGEN--\":4529:4541   */\n      revert\n        /* \"--CODEGEN--\":4461:4463   */\n    tag_108:\n        /* \"--CODEGEN--\":4559:4569   */\n      dup1\n        /* \"--CODEGEN--\":4555:4557   */\n      0x40\n        /* \"--CODEGEN--\":4548:4570   */\n      mstore\n        /* \"--CODEGEN--\":4359:4575   */\n      pop\n      swap2\n      swap1\n      pop\n      jump\t// out\n        /* \"--CODEGEN--\":4582:4904   */\n    tag_43:\n      0x00\n        /* \"--CODEGEN--\":4726:4744   */\n      0xffffffffffffffff\n        /* \"--CODEGEN--\":4718:4724   */\n      dup3\n        /* \"--CODEGEN--\":4715:4745   */\n      gt\n        /* \"--CODEGEN--\":4712:4714   */\n      iszero\n      tag_110\n      jumpi\n        /* \"--CODEGEN--\":4758:4759   */\n      0x00\n        /* \"--CODEGEN--\":4755:4756   */\n      dup1\n        /* \"--CODEGEN--\":4748:4760   */\n      revert\n        /* \"--CODEGEN--\":4712:4714   */\n    tag_110:\n        /* \"--CODEGEN--\":4825:4829   */\n      0x1f\n        /* \"--CODEGEN--\":4821:4830   */\n      not\n        /* \"--CODEGEN--\":4814:4818   */\n      0x1f\n        /* \"--CODEGEN--\":4806:4812   */\n      dup4\n        /* \"--CODEGEN--\":4802:4819   */\n      add\n        /* \"--CODEGEN--\":4798:4831   */\n      and\n        /* \"--CODEGEN--\":4790:4831   */\n      swap1\n      pop\n        /* \"--CODEGEN--\":4889:4893   */\n      0x20\n        /* \"--CODEGEN--\":4883:4887   */\n      dup2\n        /* \"--CODEGEN--\":4879:4894   */\n      add\n        /* \"--CODEGEN--\":4871:4894   */\n      swap1\n      pop\n        /* \"--CODEGEN--\":4649:4904   */\n      swap2\n      swap1\n      pop\n      jump\t// out\n        /* \"--CODEGEN--\":4911:5062   */\n    tag_82:\n      0x00\n        /* \"--CODEGEN--\":4997:5000   */\n      dup2\n        /* \"--CODEGEN--\":4989:5000   */\n      swap1\n      pop\n        /* \"--CODEGEN--\":5035:5039   */\n      0x20\n        /* \"--CODEGEN--\":5030:5033   */\n      dup3\n        /* \"--CODEGEN--\":5026:5040   */\n      add\n        /* \"--CODEGEN--\":5018:5040   */\n      swap1\n      pop\n        /* \"--CODEGEN--\":4983:5062   */\n      swap2\n      swap1\n      pop\n      jump\t// out\n        /* \"--CODEGEN--\":5069:5206   */\n    tag_78:\n      0x00\n        /* \"--CODEGEN--\":5178:5183   */\n      dup2\n        /* \"--CODEGEN--\":5172:5184   */\n      mload\n        /* \"--CODEGEN--\":5162:5184   */\n      swap1\n      pop\n        /* \"--CODEGEN--\":5143:5206   */\n      swap2\n      swap1\n      pop\n      jump\t// out\n        /* \"--CODEGEN--\":5213:5335   */\n    tag_92:\n      0x00\n        /* \"--CODEGEN--\":5307:5312   */\n      dup2\n        /* \"--CODEGEN--\":5301:5313   */\n      mload\n        /* \"--CODEGEN--\":5291:5313   */\n      swap1\n      pop\n        /* \"--CODEGEN--\":5272:5335   */\n      swap2\n      swap1\n      pop\n      jump\t// out\n        /* \"--CODEGEN--\":5342:5450   */\n    tag_88:\n      0x00\n        /* \"--CODEGEN--\":5440:5444   */\n      0x20\n        /* \"--CODEGEN--\":5435:5438   */\n      dup3\n        /* \"--CODEGEN--\":5431:5445   */\n      add\n        /* \"--CODEGEN--\":5423:5445   */\n      swap1\n      pop\n        /* \"--CODEGEN--\":5417:5450   */\n      swap2\n      swap1\n      pop\n      jump\t// out\n        /* \"--CODEGEN--\":5458:5636   */\n    tag_80:\n      0x00\n        /* \"--CODEGEN--\":5588:5594   */\n      dup3\n        /* \"--CODEGEN--\":5583:5586   */\n      dup3\n        /* \"--CODEGEN--\":5576:5595   */\n      mstore\n        /* \"--CODEGEN--\":5625:5629   */\n      0x20\n        /* \"--CODEGEN--\":5620:5623   */\n      dup3\n        /* \"--CODEGEN--\":5616:5630   */\n      add\n        /* \"--CODEGEN--\":5601:5630   */\n      swap1\n      pop\n        /* \"--CODEGEN--\":5569:5636   */\n      swap3\n      swap2\n      pop\n      pop\n      jump\t// out\n        /* \"--CODEGEN--\":5645:5808   */\n    tag_94:\n      0x00\n        /* \"--CODEGEN--\":5760:5766   */\n      dup3\n        /* \"--CODEGEN--\":5755:5758   */\n      dup3\n        /* \"--CODEGEN--\":5748:5767   */\n      mstore\n        /* \"--CODEGEN--\":5797:5801   */\n      0x20\n        /* \"--CODEGEN--\":5792:5795   */\n      dup3\n        /* \"--CODEGEN--\":5788:5802   */\n      add\n        /* \"--CODEGEN--\":5773:5802   */\n      swap1\n      pop\n        /* \"--CODEGEN--\":5741:5808   */\n      swap3\n      swap2\n      pop\n      pop\n      jump\t// out\n        /* \"--CODEGEN--\":5816:5907   */\n    tag_71:\n      0x00\n        /* \"--CODEGEN--\":5878:5902   */\n      tag_118\n        /* \"--CODEGEN--\":5896:5901   */\n      dup3\n        /* \"--CODEGEN--\":5878:5902   */\n      tag_119\n      jump\t// in\n    tag_118:\n        /* \"--CODEGEN--\":5867:5902   */\n      swap1\n      pop\n        /* \"--CODEGEN--\":5861:5907   */\n      swap2\n      swap1\n      pop\n      jump\t// out\n        /* \"--CODEGEN--\":5914:6035   */\n    tag_119:\n      0x00\n        /* \"--CODEGEN--\":5987:6029   */\n      0xffffffffffffffffffffffffffffffffffffffff\n        /* \"--CODEGEN--\":5980:5985   */\n      dup3\n        /* \"--CODEGEN--\":5976:6030   */\n      and\n        /* \"--CODEGEN--\":5965:6030   */\n      swap1\n      pop\n        /* \"--CODEGEN--\":5959:6035   */\n      swap2\n      swap1\n      pop\n      jump\t// out\n        /* \"--CODEGEN--\":6042:6114   */\n    tag_121:\n      0x00\n        /* \"--CODEGEN--\":6104:6109   */\n      dup2\n        /* \"--CODEGEN--\":6093:6109   */\n      swap1\n      pop\n        /* \"--CODEGEN--\":6087:6114   */\n      swap2\n      swap1\n      pop\n      jump\t// out\n        /* \"--CODEGEN--\":6121:6250   */\n    tag_68:\n      0x00\n        /* \"--CODEGEN--\":6208:6245   */\n      tag_124\n        /* \"--CODEGEN--\":6239:6244   */\n      dup3\n        /* \"--CODEGEN--\":6208:6245   */\n      tag_125\n      jump\t// in\n    tag_124:\n        /* \"--CODEGEN--\":6195:6245   */\n      swap1\n      pop\n        /* \"--CODEGEN--\":6189:6250   */\n      swap2\n      swap1\n      pop\n      jump\t// out\n        /* \"--CODEGEN--\":6257:6378   */\n    tag_125:\n      0x00\n        /* \"--CODEGEN--\":6336:6373   */\n      tag_127\n        /* \"--CODEGEN--\":6367:6372   */\n      dup3\n        /* \"--CODEGEN--\":6336:6373   */\n      tag_128\n      jump\t// in\n    tag_127:\n        /* \"--CODEGEN--\":6323:6373   */\n      swap1\n      pop\n        /* \"--CODEGEN--\":6317:6378   */\n      swap2\n      swap1\n      pop\n      jump\t// out\n        /* \"--CODEGEN--\":6385:6493   */\n    tag_128:\n      0x00\n        /* \"--CODEGEN--\":6464:6488   */\n      tag_130\n        /* \"--CODEGEN--\":6482:6487   */\n      dup3\n        /* \"--CODEGEN--\":6464:6488   */\n      tag_119\n      jump\t// in\n    tag_130:\n        /* \"--CODEGEN--\":6451:6488   */\n      swap1\n      pop\n        /* \"--CODEGEN--\":6445:6493   */\n      swap2\n      swap1\n      pop\n      jump\t// out\n        /* \"--CODEGEN--\":6501:6646   */\n    tag_47:\n        /* \"--CODEGEN--\":6582:6588   */\n      dup3\n        /* \"--CODEGEN--\":6577:6580   */\n      dup2\n        /* \"--CODEGEN--\":6572:6575   */\n      dup4\n        /* \"--CODEGEN--\":6559:6589   */\n      calldatacopy\n        /* \"--CODEGEN--\":6638:6639   */\n      0x00\n        /* \"--CODEGEN--\":6629:6635   */\n      dup4\n        /* \"--CODEGEN--\":6624:6627   */\n      dup4\n        /* \"--CODEGEN--\":6620:6636   */\n      add\n        /* \"--CODEGEN--\":6613:6640   */\n      mstore\n        /* \"--CODEGEN--\":6552:6646   */\n      pop\n      pop\n      pop\n      jump\t// out\n        /* \"--CODEGEN--\":6655:6923   */\n    tag_96:\n        /* \"--CODEGEN--\":6720:6721   */\n      0x00\n        /* \"--CODEGEN--\":6727:6828   */\n    tag_133:\n        /* \"--CODEGEN--\":6741:6747   */\n      dup4\n        /* \"--CODEGEN--\":6738:6739   */\n      dup2\n        /* \"--CODEGEN--\":6735:6748   */\n      lt\n        /* \"--CODEGEN--\":6727:6828   */\n      iszero\n      tag_135\n      jumpi\n        /* \"--CODEGEN--\":6817:6818   */\n      dup1\n        /* \"--CODEGEN--\":6812:6815   */\n      dup3\n        /* \"--CODEGEN--\":6808:6819   */\n      add\n        /* \"--CODEGEN--\":6802:6820   */\n      mload\n        /* \"--CODEGEN--\":6798:6799   */\n      dup2\n        /* \"--CODEGEN--\":6793:6796   */\n      dup5\n        /* \"--CODEGEN--\":6789:6800   */\n      add\n        /* \"--CODEGEN--\":6782:6821   */\n      mstore\n        /* \"--CODEGEN--\":6763:6765   */\n      0x20\n        /* \"--CODEGEN--\":6760:6761   */\n      dup2\n        /* \"--CODEGEN--\":6756:6766   */\n      add\n        /* \"--CODEGEN--\":6751:6766   */\n      swap1\n      pop\n        /* \"--CODEGEN--\":6727:6828   */\n      jump(tag_133)\n    tag_135:\n        /* \"--CODEGEN--\":6843:6849   */\n      dup4\n        /* \"--CODEGEN--\":6840:6841   */\n      dup2\n        /* \"--CODEGEN--\":6837:6850   */\n      gt\n        /* \"--CODEGEN--\":6834:6836   */\n      iszero\n      tag_136\n      jumpi\n        /* \"--CODEGEN--\":6908:6909   */\n      0x00\n        /* \"--CODEGEN--\":6899:6905   */\n      dup5\n        /* \"--CODEGEN--\":6894:6897   */\n      dup5\n        /* \"--CODEGEN--\":6890:6906   */\n      add\n        /* \"--CODEGEN--\":6883:6910   */\n      mstore\n        /* \"--CODEGEN--\":6834:6836   */\n    tag_136:\n        /* \"--CODEGEN--\":6704:6923   */\n      pop\n      pop\n      pop\n      pop\n      jump\t// out\n        /* \"--CODEGEN--\":6931:7028   */\n    tag_98:\n      0x00\n        /* \"--CODEGEN--\":7019:7021   */\n      0x1f\n        /* \"--CODEGEN--\":7015:7022   */\n      not\n        /* \"--CODEGEN--\":7010:7012   */\n      0x1f\n        /* \"--CODEGEN--\":7003:7008   */\n      dup4\n        /* \"--CODEGEN--\":6999:7013   */\n      add\n        /* \"--CODEGEN--\":6995:7023   */\n      and\n        /* \"--CODEGEN--\":6985:7023   */\n      swap1\n      pop\n        /* \"--CODEGEN--\":6979:7028   */\n      swap2\n      swap1\n      pop\n      jump\t// out\n        /* \"--CODEGEN--\":7036:7153   */\n    tag_51:\n        /* \"--CODEGEN--\":7105:7129   */\n      tag_139\n        /* \"--CODEGEN--\":7123:7128   */\n      dup2\n        /* \"--CODEGEN--\":7105:7129   */\n      tag_121\n      jump\t// in\n    tag_139:\n        /* \"--CODEGEN--\":7098:7103   */\n      dup2\n        /* \"--CODEGEN--\":7095:7130   */\n      eq\n        /* \"--CODEGEN--\":7085:7087   */\n      tag_140\n      jumpi\n        /* \"--CODEGEN--\":7144:7145   */\n      0x00\n        /* \"--CODEGEN--\":7141:7142   */\n      dup1\n        /* \"--CODEGEN--\":7134:7146   */\n      revert\n        /* \"--CODEGEN--\":7085:7087   */\n    tag_140:\n        /* \"--CODEGEN--\":7079:7153   */\n      pop\n      jump\t// out\n    stop\n\n    sub_0: assembly {\n            /* \"FIR.sol\":624:2080  contract FIR{\r... */\n          mstore(0x40, 0x80)\n            /* \"FIR.sol\":972:1341  constructor(string memory aboutCase,string memory name,address creator){\r... */\n          callvalue\n          dup1\n          iszero\n          tag_1\n          jumpi\n          0x00\n          dup1\n          revert\n        tag_1:\n          pop\n          mload(0x40)\n          sub(codesize, bytecodeSize)\n          dup1\n          bytecodeSize\n          dup4\n          codecopy\n          dup2\n          dup2\n          add\n          0x40\n          mstore\n          dup2\n          add\n          swap1\n          tag_2\n          swap2\n          swap1\n          tag_3\n          jump\t// in\n        tag_2:\n            /* \"FIR.sol\":1063:1070  creator */\n          dup1\n            /* \"FIR.sol\":1054:1060  victim */\n          0x01\n          0x00\n            /* \"FIR.sol\":1054:1070  victim = creator */\n          0x0100\n          exp\n          dup2\n          sload\n          dup2\n          0xffffffffffffffffffffffffffffffffffffffff\n          mul\n          not\n          and\n          swap1\n          dup4\n          0xffffffffffffffffffffffffffffffffffffffff\n          and\n          mul\n          or\n          swap1\n          sstore\n          pop\n            /* \"FIR.sol\":1095:1104  aboutCase */\n          dup3\n            /* \"FIR.sol\":1081:1092  caseDetails */\n          0x02\n            /* \"FIR.sol\":1081:1104  caseDetails = aboutCase */\n          swap1\n          dup1\n          mload\n          swap1\n          0x20\n          add\n          swap1\n          tag_6\n          swap3\n          swap2\n          swap1\n          tag_7\n          jump\t// in\n        tag_6:\n          pop\n            /* \"FIR.sol\":1128:1132  name */\n          dup2\n            /* \"FIR.sol\":1115:1125  victimName */\n          0x03\n            /* \"FIR.sol\":1115:1132  victimName = name */\n          swap1\n          dup1\n          mload\n          swap1\n          0x20\n          add\n          swap1\n          tag_8\n          swap3\n          swap2\n          swap1\n          tag_7\n          jump\t// in\n        tag_8:\n          pop\n            /* \"FIR.sol\":1152:1153  0 */\n          0x00\n            /* \"FIR.sol\":1143:1149  status */\n          0x04\n            /* \"FIR.sol\":1143:1153  status = 0 */\n          dup2\n          swap1\n          sstore\n          pop\n            /* \"FIR.sol\":1166:1182  diary[0]=\"Filed\" */\n          mload(0x40)\n          dup1\n          0x40\n          add\n          0x40\n          mstore\n          dup1\n          0x05\n          dup2\n          mstore\n          0x20\n          add\n          0x46696c6564000000000000000000000000000000000000000000000000000000\n          dup2\n          mstore\n          pop\n            /* \"FIR.sol\":1166:1171  diary */\n          0x00\n            /* \"FIR.sol\":1166:1174  diary[0] */\n          dup1\n            /* \"FIR.sol\":1172:1173  0 */\n          dup1\n            /* \"FIR.sol\":1166:1174  diary[0] */\n          dup2\n          mstore\n          0x20\n          add\n          swap1\n          dup2\n          mstore\n          0x20\n          add\n          0x00\n          keccak256\n            /* \"FIR.sol\":1166:1182  diary[0]=\"Filed\" */\n          swap1\n          dup1\n          mload\n          swap1\n          0x20\n          add\n          swap1\n          tag_9\n          swap3\n          swap2\n          swap1\n          tag_7\n          jump\t// in\n        tag_9:\n          pop\n            /* \"FIR.sol\":1193:1215  diary[1]=\"In Progress\" */\n          mload(0x40)\n          dup1\n          0x40\n          add\n          0x40\n          mstore\n          dup1\n          0x0b\n          dup2\n          mstore\n          0x20\n          add\n          0x496e2050726f6772657373000000000000000000000000000000000000000000\n          dup2\n          mstore\n          pop\n            /* \"FIR.sol\":1193:1198  diary */\n          0x00\n            /* \"FIR.sol\":1193:1201  diary[1] */\n          dup1\n            /* \"FIR.sol\":1199:1200  1 */\n          0x01\n            /* \"FIR.sol\":1193:1201  diary[1] */\n          dup2\n          mstore\n          0x20\n          add\n          swap1\n          dup2\n          mstore\n          0x20\n          add\n          0x00\n          keccak256\n            /* \"FIR.sol\":1193:1215  diary[1]=\"In Progress\" */\n          swap1\n          dup1\n          mload\n          swap1\n          0x20\n          add\n          swap1\n          tag_10\n          swap3\n          swap2\n          swap1\n          tag_7\n          jump\t// in\n        tag_10:\n          pop\n            /* \"FIR.sol\":1226:1269  diary[2]=\"Approved, Investigation going on\" */\n          mload(0x40)\n          dup1\n          0x40\n          add\n          0x40\n          mstore\n          dup1\n          0x20\n          dup2\n          mstore\n          0x20\n          add\n          0x417070726f7665642c20496e7665737469676174696f6e20676f696e67206f6e\n          dup2\n          mstore\n          pop\n            /* \"FIR.sol\":1226:1231  diary */\n          0x00\n            /* \"FIR.sol\":1226:1234  diary[2] */\n          dup1\n            /* \"FIR.sol\":1232:1233  2 */\n          0x02\n            /* \"FIR.sol\":1226:1234  diary[2] */\n          dup2\n          mstore\n          0x20\n          add\n          swap1\n          dup2\n          mstore\n          0x20\n          add\n          0x00\n          keccak256\n            /* \"FIR.sol\":1226:1269  diary[2]=\"Approved, Investigation going on\" */\n          swap1\n          dup1\n          mload\n          swap1\n          0x20\n          add\n          swap1\n          tag_11\n          swap3\n          swap2\n          swap1\n          tag_7\n          jump\t// in\n        tag_11:\n          pop\n            /* \"FIR.sol\":1280:1305  diary[3]=\"Final Closings\" */\n          mload(0x40)\n          dup1\n          0x40\n          add\n          0x40\n          mstore\n          dup1\n          0x0e\n          dup2\n          mstore\n          0x20\n          add\n          0x46696e616c20436c6f73696e6773000000000000000000000000000000000000\n          dup2\n          mstore\n          pop\n            /* \"FIR.sol\":1280:1285  diary */\n          0x00\n            /* \"FIR.sol\":1280:1288  diary[3] */\n          dup1\n            /* \"FIR.sol\":1286:1287  3 */\n          0x03\n            /* \"FIR.sol\":1280:1288  diary[3] */\n          dup2\n          mstore\n          0x20\n          add\n          swap1\n          dup2\n          mstore\n          0x20\n          add\n          0x00\n          keccak256\n            /* \"FIR.sol\":1280:1305  diary[3]=\"Final Closings\" */\n          swap1\n          dup1\n          mload\n          swap1\n          0x20\n          add\n          swap1\n          tag_12\n          swap3\n          swap2\n          swap1\n          tag_7\n          jump\t// in\n        tag_12:\n          pop\n            /* \"FIR.sol\":1316:1333  diary[4]=\"Closed\" */\n          mload(0x40)\n          dup1\n          0x40\n          add\n          0x40\n          mstore\n          dup1\n          0x06\n          dup2\n          mstore\n          0x20\n          add\n          0x436c6f7365640000000000000000000000000000000000000000000000000000\n          dup2\n          mstore\n          pop\n            /* \"FIR.sol\":1316:1321  diary */\n          0x00\n            /* \"FIR.sol\":1316:1324  diary[4] */\n          dup1\n            /* \"FIR.sol\":1322:1323  4 */\n          0x04\n            /* \"FIR.sol\":1316:1324  diary[4] */\n          dup2\n          mstore\n          0x20\n          add\n          swap1\n          dup2\n          mstore\n          0x20\n          add\n          0x00\n          keccak256\n            /* \"FIR.sol\":1316:1333  diary[4]=\"Closed\" */\n          swap1\n          dup1\n          mload\n          swap1\n          0x20\n          add\n          swap1\n          tag_13\n          swap3\n          swap2\n          swap1\n          tag_7\n          jump\t// in\n        tag_13:\n          pop\n            /* \"FIR.sol\":972:1341  constructor(string memory aboutCase,string memory name,address creator){\r... */\n          pop\n          pop\n          pop\n            /* \"FIR.sol\":624:2080  contract FIR{\r... */\n          jump(tag_14)\n        tag_7:\n          dup3\n          dup1\n          sload\n          0x01\n          dup2\n          0x01\n          and\n          iszero\n          0x0100\n          mul\n          sub\n          and\n          0x02\n          swap1\n          div\n          swap1\n          0x00\n          mstore\n          keccak256(0x00, 0x20)\n          swap1\n          0x1f\n          add\n          0x20\n          swap1\n          div\n          dup2\n          add\n          swap3\n          dup3\n          0x1f\n          lt\n          tag_16\n          jumpi\n          dup1\n          mload\n          not(0xff)\n          and\n          dup4\n          dup1\n          add\n          or\n          dup6\n          sstore\n          jump(tag_15)\n        tag_16:\n          dup3\n          dup1\n          add\n          0x01\n          add\n          dup6\n          sstore\n          dup3\n          iszero\n          tag_15\n          jumpi\n          swap2\n          dup3\n          add\n        tag_17:\n          dup3\n          dup2\n          gt\n          iszero\n          tag_18\n          jumpi\n          dup3\n          mload\n          dup3\n          sstore\n          swap2\n          0x20\n          add\n          swap2\n          swap1\n          0x01\n          add\n          swap1\n          jump(tag_17)\n        tag_18:\n        tag_15:\n          pop\n          swap1\n          pop\n          tag_19\n          swap2\n          swap1\n          tag_20\n          jump\t// in\n        tag_19:\n          pop\n          swap1\n          jump\t// out\n        tag_20:\n        tag_21:\n          dup1\n          dup3\n          gt\n          iszero\n          tag_22\n          jumpi\n          0x00\n          dup2\n          0x00\n          swap1\n          sstore\n          pop\n          0x01\n          add\n          jump(tag_21)\n        tag_22:\n          pop\n          swap1\n          jump\t// out\n            /* \"--CODEGEN--\":5:139   */\n        tag_24:\n          0x00\n            /* \"--CODEGEN--\":89:95   */\n          dup2\n            /* \"--CODEGEN--\":83:96   */\n          mload\n            /* \"--CODEGEN--\":74:96   */\n          swap1\n          pop\n            /* \"--CODEGEN--\":101:134   */\n          tag_26\n            /* \"--CODEGEN--\":128:133   */\n          dup2\n            /* \"--CODEGEN--\":101:134   */\n          tag_27\n          jump\t// in\n        tag_26:\n            /* \"--CODEGEN--\":68:139   */\n          swap3\n          swap2\n          pop\n          pop\n          jump\t// out\n            /* \"--CODEGEN--\":147:591   */\n        tag_28:\n          0x00\n            /* \"--CODEGEN--\":260:263   */\n          dup3\n            /* \"--CODEGEN--\":253:257   */\n          0x1f\n            /* \"--CODEGEN--\":245:251   */\n          dup4\n            /* \"--CODEGEN--\":241:258   */\n          add\n            /* \"--CODEGEN--\":237:264   */\n          slt\n            /* \"--CODEGEN--\":227:229   */\n          tag_30\n          jumpi\n            /* \"--CODEGEN--\":278:279   */\n          0x00\n            /* \"--CODEGEN--\":275:276   */\n          dup1\n            /* \"--CODEGEN--\":268:280   */\n          revert\n            /* \"--CODEGEN--\":227:229   */\n        tag_30:\n            /* \"--CODEGEN--\":308:314   */\n          dup2\n            /* \"--CODEGEN--\":302:315   */\n          mload\n            /* \"--CODEGEN--\":330:395   */\n          tag_31\n            /* \"--CODEGEN--\":345:394   */\n          tag_32\n            /* \"--CODEGEN--\":387:393   */\n          dup3\n            /* \"--CODEGEN--\":345:394   */\n          tag_33\n          jump\t// in\n        tag_32:\n            /* \"--CODEGEN--\":330:395   */\n          tag_34\n          jump\t// in\n        tag_31:\n            /* \"--CODEGEN--\":321:395   */\n          swap2\n          pop\n            /* \"--CODEGEN--\":415:421   */\n          dup1\n            /* \"--CODEGEN--\":408:413   */\n          dup3\n            /* \"--CODEGEN--\":401:422   */\n          mstore\n            /* \"--CODEGEN--\":451:455   */\n          0x20\n            /* \"--CODEGEN--\":443:449   */\n          dup4\n            /* \"--CODEGEN--\":439:456   */\n          add\n            /* \"--CODEGEN--\":484:488   */\n          0x20\n            /* \"--CODEGEN--\":477:482   */\n          dup4\n            /* \"--CODEGEN--\":473:489   */\n          add\n            /* \"--CODEGEN--\":519:522   */\n          dup6\n            /* \"--CODEGEN--\":510:516   */\n          dup4\n            /* \"--CODEGEN--\":505:508   */\n          dup4\n            /* \"--CODEGEN--\":501:517   */\n          add\n            /* \"--CODEGEN--\":498:523   */\n          gt\n            /* \"--CODEGEN--\":495:497   */\n          iszero\n          tag_35\n          jumpi\n            /* \"--CODEGEN--\":536:537   */\n          0x00\n            /* \"--CODEGEN--\":533:534   */\n          dup1\n            /* \"--CODEGEN--\":526:538   */\n          revert\n            /* \"--CODEGEN--\":495:497   */\n        tag_35:\n            /* \"--CODEGEN--\":546:585   */\n          tag_36\n            /* \"--CODEGEN--\":578:584   */\n          dup4\n            /* \"--CODEGEN--\":573:576   */\n          dup3\n            /* \"--CODEGEN--\":568:571   */\n          dup5\n            /* \"--CODEGEN--\":546:585   */\n          tag_37\n          jump\t// in\n        tag_36:\n            /* \"--CODEGEN--\":220:591   */\n          pop\n          pop\n          pop\n          swap3\n          swap2\n          pop\n          pop\n          jump\t// out\n            /* \"--CODEGEN--\":599:1332   */\n        tag_3:\n          0x00\n          dup1\n          0x00\n            /* \"--CODEGEN--\":768:770   */\n          0x60\n            /* \"--CODEGEN--\":756:765   */\n          dup5\n            /* \"--CODEGEN--\":747:754   */\n          dup7\n            /* \"--CODEGEN--\":743:766   */\n          sub\n            /* \"--CODEGEN--\":739:771   */\n          slt\n            /* \"--CODEGEN--\":736:738   */\n          iszero\n          tag_39\n          jumpi\n            /* \"--CODEGEN--\":784:785   */\n          0x00\n            /* \"--CODEGEN--\":781:782   */\n          dup1\n            /* \"--CODEGEN--\":774:786   */\n          revert\n            /* \"--CODEGEN--\":736:738   */\n        tag_39:\n            /* \"--CODEGEN--\":840:841   */\n          0x00\n            /* \"--CODEGEN--\":829:838   */\n          dup5\n            /* \"--CODEGEN--\":825:842   */\n          add\n            /* \"--CODEGEN--\":819:843   */\n          mload\n            /* \"--CODEGEN--\":863:881   */\n          0xffffffffffffffff\n            /* \"--CODEGEN--\":855:861   */\n          dup2\n            /* \"--CODEGEN--\":852:882   */\n          gt\n            /* \"--CODEGEN--\":849:851   */\n          iszero\n          tag_40\n          jumpi\n            /* \"--CODEGEN--\":895:896   */\n          0x00\n            /* \"--CODEGEN--\":892:893   */\n          dup1\n            /* \"--CODEGEN--\":885:897   */\n          revert\n            /* \"--CODEGEN--\":849:851   */\n        tag_40:\n            /* \"--CODEGEN--\":915:989   */\n          tag_41\n            /* \"--CODEGEN--\":981:988   */\n          dup7\n            /* \"--CODEGEN--\":972:978   */\n          dup3\n            /* \"--CODEGEN--\":961:970   */\n          dup8\n            /* \"--CODEGEN--\":957:979   */\n          add\n            /* \"--CODEGEN--\":915:989   */\n          tag_28\n          jump\t// in\n        tag_41:\n            /* \"--CODEGEN--\":905:989   */\n          swap4\n          pop\n            /* \"--CODEGEN--\":798:995   */\n          pop\n            /* \"--CODEGEN--\":1047:1049   */\n          0x20\n            /* \"--CODEGEN--\":1036:1045   */\n          dup5\n            /* \"--CODEGEN--\":1032:1050   */\n          add\n            /* \"--CODEGEN--\":1026:1051   */\n          mload\n            /* \"--CODEGEN--\":1071:1089   */\n          0xffffffffffffffff\n            /* \"--CODEGEN--\":1063:1069   */\n          dup2\n            /* \"--CODEGEN--\":1060:1090   */\n          gt\n            /* \"--CODEGEN--\":1057:1059   */\n          iszero\n          tag_42\n          jumpi\n            /* \"--CODEGEN--\":1103:1104   */\n          0x00\n            /* \"--CODEGEN--\":1100:1101   */\n          dup1\n            /* \"--CODEGEN--\":1093:1105   */\n          revert\n            /* \"--CODEGEN--\":1057:1059   */\n        tag_42:\n            /* \"--CODEGEN--\":1123:1197   */\n          tag_43\n            /* \"--CODEGEN--\":1189:1196   */\n          dup7\n            /* \"--CODEGEN--\":1180:1186   */\n          dup3\n            /* \"--CODEGEN--\":1169:1178   */\n          dup8\n            /* \"--CODEGEN--\":1165:1187   */\n          add\n            /* \"--CODEGEN--\":1123:1197   */\n          tag_28\n          jump\t// in\n        tag_43:\n            /* \"--CODEGEN--\":1113:1197   */\n          swap3\n          pop\n            /* \"--CODEGEN--\":1005:1203   */\n          pop\n            /* \"--CODEGEN--\":1234:1236   */\n          0x40\n            /* \"--CODEGEN--\":1252:1316   */\n          tag_44\n            /* \"--CODEGEN--\":1308:1315   */\n          dup7\n            /* \"--CODEGEN--\":1299:1305   */\n          dup3\n            /* \"--CODEGEN--\":1288:1297   */\n          dup8\n            /* \"--CODEGEN--\":1284:1306   */\n          add\n            /* \"--CODEGEN--\":1252:1316   */\n          tag_24\n          jump\t// in\n        tag_44:\n            /* \"--CODEGEN--\":1242:1316   */\n          swap2\n          pop\n            /* \"--CODEGEN--\":1213:1322   */\n          pop\n            /* \"--CODEGEN--\":730:1332   */\n          swap3\n          pop\n          swap3\n          pop\n          swap3\n          jump\t// out\n            /* \"--CODEGEN--\":1339:1595   */\n        tag_34:\n          0x00\n            /* \"--CODEGEN--\":1401:1403   */\n          0x40\n            /* \"--CODEGEN--\":1395:1404   */\n          mload\n            /* \"--CODEGEN--\":1385:1404   */\n          swap1\n          pop\n            /* \"--CODEGEN--\":1439:1443   */\n          dup2\n            /* \"--CODEGEN--\":1431:1437   */\n          dup2\n            /* \"--CODEGEN--\":1427:1444   */\n          add\n            /* \"--CODEGEN--\":1538:1544   */\n          dup2\n            /* \"--CODEGEN--\":1526:1536   */\n          dup2\n            /* \"--CODEGEN--\":1523:1545   */\n          lt\n            /* \"--CODEGEN--\":1502:1520   */\n          0xffffffffffffffff\n            /* \"--CODEGEN--\":1490:1500   */\n          dup3\n            /* \"--CODEGEN--\":1487:1521   */\n          gt\n            /* \"--CODEGEN--\":1484:1546   */\n          or\n            /* \"--CODEGEN--\":1481:1483   */\n          iszero\n          tag_46\n          jumpi\n            /* \"--CODEGEN--\":1559:1560   */\n          0x00\n            /* \"--CODEGEN--\":1556:1557   */\n          dup1\n            /* \"--CODEGEN--\":1549:1561   */\n          revert\n            /* \"--CODEGEN--\":1481:1483   */\n        tag_46:\n            /* \"--CODEGEN--\":1579:1589   */\n          dup1\n            /* \"--CODEGEN--\":1575:1577   */\n          0x40\n            /* \"--CODEGEN--\":1568:1590   */\n          mstore\n            /* \"--CODEGEN--\":1379:1595   */\n          pop\n          swap2\n          swap1\n          pop\n          jump\t// out\n            /* \"--CODEGEN--\":1602:1924   */\n        tag_33:\n          0x00\n            /* \"--CODEGEN--\":1746:1764   */\n          0xffffffffffffffff\n            /* \"--CODEGEN--\":1738:1744   */\n          dup3\n            /* \"--CODEGEN--\":1735:1765   */\n          gt\n            /* \"--CODEGEN--\":1732:1734   */\n          iszero\n          tag_48\n          jumpi\n            /* \"--CODEGEN--\":1778:1779   */\n          0x00\n            /* \"--CODEGEN--\":1775:1776   */\n          dup1\n            /* \"--CODEGEN--\":1768:1780   */\n          revert\n            /* \"--CODEGEN--\":1732:1734   */\n        tag_48:\n            /* \"--CODEGEN--\":1845:1849   */\n          0x1f\n            /* \"--CODEGEN--\":1841:1850   */\n          not\n            /* \"--CODEGEN--\":1834:1838   */\n          0x1f\n            /* \"--CODEGEN--\":1826:1832   */\n          dup4\n            /* \"--CODEGEN--\":1822:1839   */\n          add\n            /* \"--CODEGEN--\":1818:1851   */\n          and\n            /* \"--CODEGEN--\":1810:1851   */\n          swap1\n          pop\n            /* \"--CODEGEN--\":1909:1913   */\n          0x20\n            /* \"--CODEGEN--\":1903:1907   */\n          dup2\n            /* \"--CODEGEN--\":1899:1914   */\n          add\n            /* \"--CODEGEN--\":1891:1914   */\n          swap1\n          pop\n            /* \"--CODEGEN--\":1669:1924   */\n          swap2\n          swap1\n          pop\n          jump\t// out\n            /* \"--CODEGEN--\":1931:2022   */\n        tag_49:\n          0x00\n            /* \"--CODEGEN--\":1993:2017   */\n          tag_51\n            /* \"--CODEGEN--\":2011:2016   */\n          dup3\n            /* \"--CODEGEN--\":1993:2017   */\n          tag_52\n          jump\t// in\n        tag_51:\n            /* \"--CODEGEN--\":1982:2017   */\n          swap1\n          pop\n            /* \"--CODEGEN--\":1976:2022   */\n          swap2\n          swap1\n          pop\n          jump\t// out\n            /* \"--CODEGEN--\":2029:2150   */\n        tag_52:\n          0x00\n            /* \"--CODEGEN--\":2102:2144   */\n          0xffffffffffffffffffffffffffffffffffffffff\n            /* \"--CODEGEN--\":2095:2100   */\n          dup3\n            /* \"--CODEGEN--\":2091:2145   */\n          and\n            /* \"--CODEGEN--\":2080:2145   */\n          swap1\n          pop\n            /* \"--CODEGEN--\":2074:2150   */\n          swap2\n          swap1\n          pop\n          jump\t// out\n            /* \"--CODEGEN--\":2158:2426   */\n        tag_37:\n            /* \"--CODEGEN--\":2223:2224   */\n          0x00\n            /* \"--CODEGEN--\":2230:2331   */\n        tag_55:\n            /* \"--CODEGEN--\":2244:2250   */\n          dup4\n            /* \"--CODEGEN--\":2241:2242   */\n          dup2\n            /* \"--CODEGEN--\":2238:2251   */\n          lt\n            /* \"--CODEGEN--\":2230:2331   */\n          iszero\n          tag_57\n          jumpi\n            /* \"--CODEGEN--\":2320:2321   */\n          dup1\n            /* \"--CODEGEN--\":2315:2318   */\n          dup3\n            /* \"--CODEGEN--\":2311:2322   */\n          add\n            /* \"--CODEGEN--\":2305:2323   */\n          mload\n            /* \"--CODEGEN--\":2301:2302   */\n          dup2\n            /* \"--CODEGEN--\":2296:2299   */\n          dup5\n            /* \"--CODEGEN--\":2292:2303   */\n          add\n            /* \"--CODEGEN--\":2285:2324   */\n          mstore\n            /* \"--CODEGEN--\":2266:2268   */\n          0x20\n            /* \"--CODEGEN--\":2263:2264   */\n          dup2\n            /* \"--CODEGEN--\":2259:2269   */\n          add\n            /* \"--CODEGEN--\":2254:2269   */\n          swap1\n          pop\n            /* \"--CODEGEN--\":2230:2331   */\n          jump(tag_55)\n        tag_57:\n            /* \"--CODEGEN--\":2346:2352   */\n          dup4\n            /* \"--CODEGEN--\":2343:2344   */\n          dup2\n            /* \"--CODEGEN--\":2340:2353   */\n          gt\n            /* \"--CODEGEN--\":2337:2339   */\n          iszero\n          tag_58\n          jumpi\n            /* \"--CODEGEN--\":2411:2412   */\n          0x00\n            /* \"--CODEGEN--\":2402:2408   */\n          dup5\n            /* \"--CODEGEN--\":2397:2400   */\n          dup5\n            /* \"--CODEGEN--\":2393:2409   */\n          add\n            /* \"--CODEGEN--\":2386:2413   */\n          mstore\n            /* \"--CODEGEN--\":2337:2339   */\n        tag_58:\n            /* \"--CODEGEN--\":2207:2426   */\n          pop\n          pop\n          pop\n          pop\n          jump\t// out\n            /* \"--CODEGEN--\":2434:2551   */\n        tag_27:\n            /* \"--CODEGEN--\":2503:2527   */\n          tag_60\n            /* \"--CODEGEN--\":2521:2526   */\n          dup2\n            /* \"--CODEGEN--\":2503:2527   */\n          tag_49\n          jump\t// in\n        tag_60:\n            /* \"--CODEGEN--\":2496:2501   */\n          dup2\n            /* \"--CODEGEN--\":2493:2528   */\n          eq\n            /* \"--CODEGEN--\":2483:2485   */\n          tag_61\n          jumpi\n            /* \"--CODEGEN--\":2542:2543   */\n          0x00\n            /* \"--CODEGEN--\":2539:2540   */\n          dup1\n            /* \"--CODEGEN--\":2532:2544   */\n          revert\n            /* \"--CODEGEN--\":2483:2485   */\n        tag_61:\n            /* \"--CODEGEN--\":2477:2551   */\n          pop\n          jump\t// out\n            /* \"FIR.sol\":624:2080  contract FIR{\r... */\n        tag_14:\n          dataSize(sub_0)\n          dup1\n          dataOffset(sub_0)\n          0x00\n          codecopy\n          0x00\n          return\n        stop\n\n        sub_0: assembly {\n                /* \"FIR.sol\":624:2080  contract FIR{\r... */\n              mstore(0x40, 0x80)\n              callvalue\n              dup1\n              iszero\n              tag_1\n              jumpi\n              0x00\n              dup1\n              revert\n            tag_1:\n              pop\n              jumpi(tag_2, lt(calldatasize, 0x04))\n              shr(0xe0, calldataload(0x00))\n              dup1\n              0x8d70158c\n              gt\n              tag_13\n              jumpi\n              dup1\n              0x8d70158c\n              eq\n              tag_8\n              jumpi\n              dup1\n              0x930c2003\n              eq\n              tag_9\n              jumpi\n              dup1\n              0xb4c2f727\n              eq\n              tag_10\n              jumpi\n              dup1\n              0xdae5611b\n              eq\n              tag_11\n              jumpi\n              dup1\n              0xfbbf93a0\n              eq\n              tag_12\n              jumpi\n              jump(tag_2)\n            tag_13:\n              dup1\n              0x200d2ed2\n              eq\n              tag_3\n              jumpi\n              dup1\n              0x2eac9422\n              eq\n              tag_4\n              jumpi\n              dup1\n              0x4e69d560\n              eq\n              tag_5\n              jumpi\n              dup1\n              0x4f4ae772\n              eq\n              tag_6\n              jumpi\n              dup1\n              0x6bc975f2\n              eq\n              tag_7\n              jumpi\n            tag_2:\n              0x00\n              dup1\n              revert\n                /* \"FIR.sol\":911:929  uint public status */\n            tag_3:\n              tag_14\n              tag_15\n              jump\t// in\n            tag_14:\n              mload(0x40)\n              tag_16\n              swap2\n              swap1\n              tag_17\n              jump\t// in\n            tag_16:\n              mload(0x40)\n              dup1\n              swap2\n              sub\n              swap1\n              return\n                /* \"FIR.sol\":772:808  mapping(uint => string) public diary */\n            tag_4:\n              tag_18\n              0x04\n              dup1\n              calldatasize\n              sub\n              dup2\n              add\n              swap1\n              tag_19\n              swap2\n              swap1\n              tag_20\n              jump\t// in\n            tag_19:\n              tag_21\n              jump\t// in\n            tag_18:\n              mload(0x40)\n              tag_22\n              swap2\n              swap1\n              tag_23\n              jump\t// in\n            tag_22:\n              mload(0x40)\n              dup1\n              swap2\n              sub\n              swap1\n              return\n                /* \"FIR.sol\":1874:1968  function getStatus() public view returns(string memory){\r... */\n            tag_5:\n              tag_24\n              tag_25\n              jump\t// in\n            tag_24:\n              mload(0x40)\n              tag_26\n              swap2\n              swap1\n              tag_23\n              jump\t// in\n            tag_26:\n              mload(0x40)\n              dup1\n              swap2\n              sub\n              swap1\n              return\n                /* \"FIR.sol\":880:904  string public victimName */\n            tag_6:\n              tag_27\n              tag_28\n              jump\t// in\n            tag_27:\n              mload(0x40)\n              tag_29\n              swap2\n              swap1\n              tag_23\n              jump\t// in\n            tag_29:\n              mload(0x40)\n              dup1\n              swap2\n              sub\n              swap1\n              return\n                /* \"FIR.sol\":848:873  string public caseDetails */\n            tag_7:\n              tag_30\n              tag_31\n              jump\t// in\n            tag_30:\n              mload(0x40)\n              tag_32\n              swap2\n              swap1\n              tag_23\n              jump\t// in\n            tag_32:\n              mload(0x40)\n              dup1\n              swap2\n              sub\n              swap1\n              return\n                /* \"FIR.sol\":1976:2077  function getAllUpdateLogs() public view returns(updateLogs[] memory){\r... */\n            tag_8:\n              tag_33\n              tag_34\n              jump\t// in\n            tag_33:\n              mload(0x40)\n              tag_35\n              swap2\n              swap1\n              tag_36\n              jump\t// in\n            tag_35:\n              mload(0x40)\n              dup1\n              swap2\n              sub\n              swap1\n              return\n                /* \"FIR.sol\":820:841  address public victim */\n            tag_9:\n              tag_37\n              tag_38\n              jump\t// in\n            tag_37:\n              mload(0x40)\n              tag_39\n              swap2\n              swap1\n              tag_40\n              jump\t// in\n            tag_39:\n              mload(0x40)\n              dup1\n              swap2\n              sub\n              swap1\n              return\n                /* \"FIR.sol\":936:963  updateLogs[] public updates */\n            tag_10:\n              tag_41\n              0x04\n              dup1\n              calldatasize\n              sub\n              dup2\n              add\n              swap1\n              tag_42\n              swap2\n              swap1\n              tag_20\n              jump\t// in\n            tag_42:\n              tag_43\n              jump\t// in\n            tag_41:\n              mload(0x40)\n              tag_44\n              swap4\n              swap3\n              swap2\n              swap1\n              tag_45\n              jump\t// in\n            tag_44:\n              mload(0x40)\n              dup1\n              swap2\n              sub\n              swap1\n              return\n                /* \"FIR.sol\":1562:1866  function updateCaseStatus(string memory name,string memory brief) public{\r... */\n            tag_11:\n              tag_46\n              0x04\n              dup1\n              calldatasize\n              sub\n              dup2\n              add\n              swap1\n              tag_47\n              swap2\n              swap1\n              tag_48\n              jump\t// in\n            tag_47:\n              tag_49\n              jump\t// in\n            tag_46:\n              stop\n                /* \"FIR.sol\":1349:1554  function getDetails() public view returns (\r... */\n            tag_12:\n              tag_50\n              tag_51\n              jump\t// in\n            tag_50:\n              mload(0x40)\n              tag_52\n              swap4\n              swap3\n              swap2\n              swap1\n              tag_45\n              jump\t// in\n            tag_52:\n              mload(0x40)\n              dup1\n              swap2\n              sub\n              swap1\n              return\n                /* \"FIR.sol\":911:929  uint public status */\n            tag_15:\n              sload(0x04)\n              dup2\n              jump\t// out\n                /* \"FIR.sol\":772:808  mapping(uint => string) public diary */\n            tag_21:\n              mstore(0x20, 0x00)\n              dup1\n              0x00\n              mstore\n              keccak256(0x00, 0x40)\n              0x00\n              swap2\n              pop\n              swap1\n              pop\n              dup1\n              sload\n              0x01\n              dup2\n              0x01\n              and\n              iszero\n              0x0100\n              mul\n              sub\n              and\n              0x02\n              swap1\n              div\n              dup1\n              0x1f\n              add\n              0x20\n              dup1\n              swap2\n              div\n              mul\n              0x20\n              add\n              mload(0x40)\n              swap1\n              dup2\n              add\n              0x40\n              mstore\n              dup1\n              swap3\n              swap2\n              swap1\n              dup2\n              dup2\n              mstore\n              0x20\n              add\n              dup3\n              dup1\n              sload\n              0x01\n              dup2\n              0x01\n              and\n              iszero\n              0x0100\n              mul\n              sub\n              and\n              0x02\n              swap1\n              div\n              dup1\n              iszero\n              tag_53\n              jumpi\n              dup1\n              0x1f\n              lt\n              tag_54\n              jumpi\n              0x0100\n              dup1\n              dup4\n              sload\n              div\n              mul\n              dup4\n              mstore\n              swap2\n              0x20\n              add\n              swap2\n              jump(tag_53)\n            tag_54:\n              dup3\n              add\n              swap2\n              swap1\n              0x00\n              mstore\n              keccak256(0x00, 0x20)\n              swap1\n            tag_55:\n              dup2\n              sload\n              dup2\n              mstore\n              swap1\n              0x01\n              add\n              swap1\n              0x20\n              add\n              dup1\n              dup4\n              gt\n              tag_55\n              jumpi\n              dup3\n              swap1\n              sub\n              0x1f\n              and\n              dup3\n              add\n              swap2\n            tag_53:\n              pop\n              pop\n              pop\n              pop\n              pop\n              dup2\n              jump\t// out\n                /* \"FIR.sol\":1874:1968  function getStatus() public view returns(string memory){\r... */\n            tag_25:\n                /* \"FIR.sol\":1915:1928  string memory */\n              0x60\n                /* \"FIR.sol\":1947:1952  diary */\n              0x00\n                /* \"FIR.sol\":1947:1960  diary[status] */\n              dup1\n                /* \"FIR.sol\":1953:1959  status */\n              sload(0x04)\n                /* \"FIR.sol\":1947:1960  diary[status] */\n              dup2\n              mstore\n              0x20\n              add\n              swap1\n              dup2\n              mstore\n              0x20\n              add\n              0x00\n              keccak256\n                /* \"FIR.sol\":1940:1960  return diary[status] */\n              dup1\n              sload\n              0x01\n              dup2\n              0x01\n              and\n              iszero\n              0x0100\n              mul\n              sub\n              and\n              0x02\n              swap1\n              div\n              dup1\n              0x1f\n              add\n              0x20\n              dup1\n              swap2\n              div\n              mul\n              0x20\n              add\n              mload(0x40)\n              swap1\n              dup2\n              add\n              0x40\n              mstore\n              dup1\n              swap3\n              swap2\n              swap1\n              dup2\n              dup2\n              mstore\n              0x20\n              add\n              dup3\n              dup1\n              sload\n              0x01\n              dup2\n              0x01\n              and\n              iszero\n              0x0100\n              mul\n              sub\n              and\n              0x02\n              swap1\n              div\n              dup1\n              iszero\n              tag_57\n              jumpi\n              dup1\n              0x1f\n              lt\n              tag_58\n              jumpi\n              0x0100\n              dup1\n              dup4\n              sload\n              div\n              mul\n              dup4\n              mstore\n              swap2\n              0x20\n              add\n              swap2\n              jump(tag_57)\n            tag_58:\n              dup3\n              add\n              swap2\n              swap1\n              0x00\n              mstore\n              keccak256(0x00, 0x20)\n              swap1\n            tag_59:\n              dup2\n              sload\n              dup2\n              mstore\n              swap1\n              0x01\n              add\n              swap1\n              0x20\n              add\n              dup1\n              dup4\n              gt\n              tag_59\n              jumpi\n              dup3\n              swap1\n              sub\n              0x1f\n              and\n              dup3\n              add\n              swap2\n            tag_57:\n              pop\n              pop\n              pop\n              pop\n              pop\n              swap1\n              pop\n                /* \"FIR.sol\":1874:1968  function getStatus() public view returns(string memory){\r... */\n              swap1\n              jump\t// out\n                /* \"FIR.sol\":880:904  string public victimName */\n            tag_28:\n              0x03\n              dup1\n              sload\n              0x01\n              dup2\n              0x01\n              and\n              iszero\n              0x0100\n              mul\n              sub\n              and\n              0x02\n              swap1\n              div\n              dup1\n              0x1f\n              add\n              0x20\n              dup1\n              swap2\n              div\n              mul\n              0x20\n              add\n              mload(0x40)\n              swap1\n              dup2\n              add\n              0x40\n              mstore\n              dup1\n              swap3\n              swap2\n              swap1\n              dup2\n              dup2\n              mstore\n              0x20\n              add\n              dup3\n              dup1\n              sload\n              0x01\n              dup2\n              0x01\n              and\n              iszero\n              0x0100\n              mul\n              sub\n              and\n              0x02\n              swap1\n              div\n              dup1\n              iszero\n              tag_60\n              jumpi\n              dup1\n              0x1f\n              lt\n              tag_61\n              jumpi\n              0x0100\n              dup1\n              dup4\n              sload\n              div\n              mul\n              dup4\n              mstore\n              swap2\n              0x20\n              add\n              swap2\n              jump(tag_60)\n            tag_61:\n              dup3\n              add\n              swap2\n              swap1\n              0x00\n              mstore\n              keccak256(0x00, 0x20)\n              swap1\n            tag_62:\n              dup2\n              sload\n              dup2\n              mstore\n              swap1\n              0x01\n              add\n              swap1\n              0x20\n              add\n              dup1\n              dup4\n              gt\n              tag_62\n              jumpi\n              dup3\n              swap1\n              sub\n              0x1f\n              and\n              dup3\n              add\n              swap2\n            tag_60:\n              pop\n              pop\n              pop\n              pop\n              pop\n              dup2\n              jump\t// out\n                /* \"FIR.sol\":848:873  string public caseDetails */\n            tag_31:\n              0x02\n              dup1\n              sload\n              0x01\n              dup2\n              0x01\n              and\n              iszero\n              0x0100\n              mul\n              sub\n              and\n              0x02\n              swap1\n              div\n              dup1\n              0x1f\n              add\n              0x20\n              dup1\n              swap2\n              div\n              mul\n              0x20\n              add\n              mload(0x40)\n              swap1\n              dup2\n              add\n              0x40\n              mstore\n              dup1\n              swap3\n              swap2\n              swap1\n              dup2\n              dup2\n              mstore\n              0x20\n              add\n              dup3\n              dup1\n              sload\n              0x01\n              dup2\n              0x01\n              and\n              iszero\n              0x0100\n              mul\n              sub\n              and\n              0x02\n              swap1\n              div\n              dup1\n              iszero\n              tag_63\n              jumpi\n              dup1\n              0x1f\n              lt\n              tag_64\n              jumpi\n              0x0100\n              dup1\n              dup4\n              sload\n              div\n              mul\n              dup4\n              mstore\n              swap2\n              0x20\n              add\n              swap2\n              jump(tag_63)\n            tag_64:\n              dup3\n              add\n              swap2\n              swap1\n              0x00\n              mstore\n              keccak256(0x00, 0x20)\n              swap1\n            tag_65:\n              dup2\n              sload\n              dup2\n              mstore\n              swap1\n              0x01\n              add\n              swap1\n              0x20\n              add\n              dup1\n              dup4\n              gt\n              tag_65\n              jumpi\n              dup3\n              swap1\n              sub\n              0x1f\n              and\n              dup3\n              add\n              swap2\n            tag_63:\n              pop\n              pop\n              pop\n              pop\n              pop\n              dup2\n              jump\t// out\n                /* \"FIR.sol\":1976:2077  function getAllUpdateLogs() public view returns(updateLogs[] memory){\r... */\n            tag_34:\n                /* \"FIR.sol\":2024:2043  updateLogs[] memory */\n              0x60\n                /* \"FIR.sol\":2062:2069  updates */\n              0x05\n                /* \"FIR.sol\":2055:2069  return updates */\n              dup1\n              sload\n              dup1\n              0x20\n              mul\n              0x20\n              add\n              mload(0x40)\n              swap1\n              dup2\n              add\n              0x40\n              mstore\n              dup1\n              swap3\n              swap2\n              swap1\n              dup2\n              dup2\n              mstore\n              0x20\n              add\n              0x00\n              swap1\n            tag_67:\n              dup3\n              dup3\n              lt\n              iszero\n              tag_68\n              jumpi\n              dup4\n              dup3\n              swap1\n              0x00\n              mstore\n              keccak256(0x00, 0x20)\n              swap1\n              0x03\n              mul\n              add\n              mload(0x40)\n              dup1\n              0x60\n              add\n              0x40\n              mstore\n              swap1\n              dup2\n              0x00\n              dup3\n              add\n              0x00\n              swap1\n              sload\n              swap1\n              0x0100\n              exp\n              swap1\n              div\n              0xffffffffffffffffffffffffffffffffffffffff\n              and\n              0xffffffffffffffffffffffffffffffffffffffff\n              and\n              0xffffffffffffffffffffffffffffffffffffffff\n              and\n              dup2\n              mstore\n              0x20\n              add\n              0x01\n              dup3\n              add\n              dup1\n              sload\n              0x01\n              dup2\n              0x01\n              and\n              iszero\n              0x0100\n              mul\n              sub\n              and\n              0x02\n              swap1\n              div\n              dup1\n              0x1f\n              add\n              0x20\n              dup1\n              swap2\n              div\n              mul\n              0x20\n              add\n              mload(0x40)\n              swap1\n              dup2\n              add\n              0x40\n              mstore\n              dup1\n              swap3\n              swap2\n              swap1\n              dup2\n              dup2\n              mstore\n              0x20\n              add\n              dup3\n              dup1\n              sload\n              0x01\n              dup2\n              0x01\n              and\n              iszero\n              0x0100\n              mul\n              sub\n              and\n              0x02\n              swap1\n              div\n              dup1\n              iszero\n              tag_70\n              jumpi\n              dup1\n              0x1f\n              lt\n              tag_71\n              jumpi\n              0x0100\n              dup1\n              dup4\n              sload\n              div\n              mul\n              dup4\n              mstore\n              swap2\n              0x20\n              add\n              swap2\n              jump(tag_70)\n            tag_71:\n              dup3\n              add\n              swap2\n              swap1\n              0x00\n              mstore\n              keccak256(0x00, 0x20)\n              swap1\n            tag_72:\n              dup2\n              sload\n              dup2\n              mstore\n              swap1\n              0x01\n              add\n              swap1\n              0x20\n              add\n              dup1\n              dup4\n              gt\n              tag_72\n              jumpi\n              dup3\n              swap1\n              sub\n              0x1f\n              and\n              dup3\n              add\n              swap2\n            tag_70:\n              pop\n              pop\n              pop\n              pop\n              pop\n              dup2\n              mstore\n              0x20\n              add\n              0x02\n              dup3\n              add\n              dup1\n              sload\n              0x01\n              dup2\n              0x01\n              and\n              iszero\n              0x0100\n              mul\n              sub\n              and\n              0x02\n              swap1\n              div\n              dup1\n              0x1f\n              add\n              0x20\n              dup1\n              swap2\n              div\n              mul\n              0x20\n              add\n              mload(0x40)\n              swap1\n              dup2\n              add\n              0x40\n              mstore\n              dup1\n              swap3\n              swap2\n              swap1\n              dup2\n              dup2\n              mstore\n              0x20\n              add\n              dup3\n              dup1\n              sload\n              0x01\n              dup2\n              0x01\n              and\n              iszero\n              0x0100\n              mul\n              sub\n              and\n              0x02\n              swap1\n              div\n              dup1\n              iszero\n              tag_73\n              jumpi\n              dup1\n              0x1f\n              lt\n              tag_74\n              jumpi\n              0x0100\n              dup1\n              dup4\n              sload\n              div\n              mul\n              dup4\n              mstore\n              swap2\n              0x20\n              add\n              swap2\n              jump(tag_73)\n            tag_74:\n              dup3\n              add\n              swap2\n              swap1\n              0x00\n              mstore\n              keccak256(0x00, 0x20)\n              swap1\n            tag_75:\n              dup2\n              sload\n              dup2\n              mstore\n              swap1\n              0x01\n              add\n              swap1\n              0x20\n              add\n              dup1\n              dup4\n              gt\n              tag_75\n              jumpi\n              dup3\n              swap1\n              sub\n              0x1f\n              and\n              dup3\n              add\n              swap2\n            tag_73:\n              pop\n              pop\n              pop\n              pop\n              pop\n              dup2\n              mstore\n              pop\n              pop\n              dup2\n              mstore\n              0x20\n              add\n              swap1\n              0x01\n              add\n              swap1\n              jump(tag_67)\n            tag_68:\n              pop\n              pop\n              pop\n              pop\n              swap1\n              pop\n                /* \"FIR.sol\":1976:2077  function getAllUpdateLogs() public view returns(updateLogs[] memory){\r... */\n              swap1\n              jump\t// out\n                /* \"FIR.sol\":820:841  address public victim */\n            tag_38:\n              0x01\n              0x00\n              swap1\n              sload\n              swap1\n              0x0100\n              exp\n              swap1\n              div\n              0xffffffffffffffffffffffffffffffffffffffff\n              and\n              dup2\n              jump\t// out\n                /* \"FIR.sol\":936:963  updateLogs[] public updates */\n            tag_43:\n              0x05\n              dup2\n              dup2\n              sload\n              dup2\n              lt\n              tag_76\n              jumpi\n              invalid\n            tag_76:\n              swap1\n              0x00\n              mstore\n              keccak256(0x00, 0x20)\n              swap1\n              0x03\n              mul\n              add\n              0x00\n              swap2\n              pop\n              swap1\n              pop\n              dup1\n              0x00\n              add\n              0x00\n              swap1\n              sload\n              swap1\n              0x0100\n              exp\n              swap1\n              div\n              0xffffffffffffffffffffffffffffffffffffffff\n              and\n              swap1\n              dup1\n              0x01\n              add\n              dup1\n              sload\n              0x01\n              dup2\n              0x01\n              and\n              iszero\n              0x0100\n              mul\n              sub\n              and\n              0x02\n              swap1\n              div\n              dup1\n              0x1f\n              add\n              0x20\n              dup1\n              swap2\n              div\n              mul\n              0x20\n              add\n              mload(0x40)\n              swap1\n              dup2\n              add\n              0x40\n              mstore\n              dup1\n              swap3\n              swap2\n              swap1\n              dup2\n              dup2\n              mstore\n              0x20\n              add\n              dup3\n              dup1\n              sload\n              0x01\n              dup2\n              0x01\n              and\n              iszero\n              0x0100\n              mul\n              sub\n              and\n              0x02\n              swap1\n              div\n              dup1\n              iszero\n              tag_78\n              jumpi\n              dup1\n              0x1f\n              lt\n              tag_79\n              jumpi\n              0x0100\n              dup1\n              dup4\n              sload\n              div\n              mul\n              dup4\n              mstore\n              swap2\n              0x20\n              add\n              swap2\n              jump(tag_78)\n            tag_79:\n              dup3\n              add\n              swap2\n              swap1\n              0x00\n              mstore\n              keccak256(0x00, 0x20)\n              swap1\n            tag_80:\n              dup2\n              sload\n              dup2\n              mstore\n              swap1\n              0x01\n              add\n              swap1\n              0x20\n              add\n              dup1\n              dup4\n              gt\n              tag_80\n              jumpi\n              dup3\n              swap1\n              sub\n              0x1f\n              and\n              dup3\n              add\n              swap2\n            tag_78:\n              pop\n              pop\n              pop\n              pop\n              pop\n              swap1\n              dup1\n              0x02\n              add\n              dup1\n              sload\n              0x01\n              dup2\n              0x01\n              and\n              iszero\n              0x0100\n              mul\n              sub\n              and\n              0x02\n              swap1\n              div\n              dup1\n              0x1f\n              add\n              0x20\n              dup1\n              swap2\n              div\n              mul\n              0x20\n              add\n              mload(0x40)\n              swap1\n              dup2\n              add\n              0x40\n              mstore\n              dup1\n              swap3\n              swap2\n              swap1\n              dup2\n              dup2\n              mstore\n              0x20\n              add\n              dup3\n              dup1\n              sload\n              0x01\n              dup2\n              0x01\n              and\n              iszero\n              0x0100\n              mul\n              sub\n              and\n              0x02\n              swap1\n              div\n              dup1\n              iszero\n              tag_81\n              jumpi\n              dup1\n              0x1f\n              lt\n              tag_82\n              jumpi\n              0x0100\n              dup1\n              dup4\n              sload\n              div\n              mul\n              dup4\n              mstore\n              swap2\n              0x20\n              add\n              swap2\n              jump(tag_81)\n            tag_82:\n              dup3\n              add\n              swap2\n              swap1\n              0x00\n              mstore\n              keccak256(0x00, 0x20)\n              swap1\n            tag_83:\n              dup2\n              sload\n              dup2\n              mstore\n              swap1\n              0x01\n              add\n              swap1\n              0x20\n              add\n              dup1\n              dup4\n              gt\n              tag_83\n              jumpi\n              dup3\n              swap1\n              sub\n              0x1f\n              and\n              dup3\n              add\n              swap2\n            tag_81:\n              pop\n              pop\n              pop\n              pop\n              pop\n              swap1\n              pop\n              dup4\n              jump\t// out\n                /* \"FIR.sol\":1562:1866  function updateCaseStatus(string memory name,string memory brief) public{\r... */\n            tag_49:\n                /* \"FIR.sol\":1645:1672  updateLogs memory newUpdate */\n              tag_85\n              tag_86\n              jump\t// in\n            tag_85:\n                /* \"FIR.sol\":1676:1805  updateLogs({\r... */\n              mload(0x40)\n              dup1\n              0x60\n              add\n              0x40\n              mstore\n              dup1\n                /* \"FIR.sol\":1717:1727  msg.sender */\n              caller\n                /* \"FIR.sol\":1676:1805  updateLogs({\r... */\n              0xffffffffffffffffffffffffffffffffffffffff\n              and\n              dup2\n              mstore\n              0x20\n              add\n                /* \"FIR.sol\":1754:1758  name */\n              dup5\n                /* \"FIR.sol\":1676:1805  updateLogs({\r... */\n              dup2\n              mstore\n              0x20\n              add\n                /* \"FIR.sol\":1788:1793  brief */\n              dup4\n                /* \"FIR.sol\":1676:1805  updateLogs({\r... */\n              dup2\n              mstore\n              pop\n                /* \"FIR.sol\":1645:1805  updateLogs memory newUpdate =  updateLogs({\r... */\n              swap1\n              pop\n                /* \"FIR.sol\":1816:1823  updates */\n              0x05\n                /* \"FIR.sol\":1829:1838  newUpdate */\n              dup2\n                /* \"FIR.sol\":1816:1839  updates.push(newUpdate) */\n              swap1\n              dup1\n              0x01\n              dup2\n              sload\n              add\n              dup1\n              dup3\n              sstore\n              dup1\n              swap2\n              pop\n              pop\n              0x01\n              swap1\n              sub\n              swap1\n              0x00\n              mstore\n              keccak256(0x00, 0x20)\n              swap1\n              0x03\n              mul\n              add\n              0x00\n              swap1\n              swap2\n              swap1\n              swap2\n              swap1\n              swap2\n              pop\n              0x00\n              dup3\n              add\n              mload\n              dup2\n              0x00\n              add\n              exp(0x0100, 0x00)\n              dup2\n              sload\n              dup2\n              0xffffffffffffffffffffffffffffffffffffffff\n              mul\n              not\n              and\n              swap1\n              dup4\n              0xffffffffffffffffffffffffffffffffffffffff\n              and\n              mul\n              or\n              swap1\n              sstore\n              pop\n              0x20\n              dup3\n              add\n              mload\n              dup2\n              0x01\n              add\n              swap1\n              dup1\n              mload\n              swap1\n              0x20\n              add\n              swap1\n              tag_88\n              swap3\n              swap2\n              swap1\n              tag_89\n              jump\t// in\n            tag_88:\n              pop\n              0x40\n              dup3\n              add\n              mload\n              dup2\n              0x02\n              add\n              swap1\n              dup1\n              mload\n              swap1\n              0x20\n              add\n              swap1\n              tag_90\n              swap3\n              swap2\n              swap1\n              tag_89\n              jump\t// in\n            tag_90:\n              pop\n              pop\n              pop\n                /* \"FIR.sol\":1850:1856  status */\n              0x04\n              0x00\n                /* \"FIR.sol\":1850:1858  status++ */\n              dup2\n              sload\n              dup1\n              swap3\n              swap2\n              swap1\n              0x01\n              add\n              swap2\n              swap1\n              pop\n              sstore\n              pop\n                /* \"FIR.sol\":1562:1866  function updateCaseStatus(string memory name,string memory brief) public{\r... */\n              pop\n              pop\n              pop\n              jump\t// out\n                /* \"FIR.sol\":1349:1554  function getDetails() public view returns (\r... */\n            tag_51:\n                /* \"FIR.sol\":1402:1409  address */\n              0x00\n                /* \"FIR.sol\":1410:1423  string memory */\n              0x60\n                /* \"FIR.sol\":1424:1437  string memory */\n              dup1\n                /* \"FIR.sol\":1478:1484  victim */\n              0x01\n              0x00\n              swap1\n              sload\n              swap1\n              0x0100\n              exp\n              swap1\n              div\n              0xffffffffffffffffffffffffffffffffffffffff\n              and\n                /* \"FIR.sol\":1499:1510  caseDetails */\n              0x02\n                /* \"FIR.sol\":1525:1535  victimName */\n              0x03\n                /* \"FIR.sol\":1456:1546  return (\r... */\n              dup2\n              dup1\n              sload\n              0x01\n              dup2\n              0x01\n              and\n              iszero\n              0x0100\n              mul\n              sub\n              and\n              0x02\n              swap1\n              div\n              dup1\n              0x1f\n              add\n              0x20\n              dup1\n              swap2\n              div\n              mul\n              0x20\n              add\n              mload(0x40)\n              swap1\n              dup2\n              add\n              0x40\n              mstore\n              dup1\n              swap3\n              swap2\n              swap1\n              dup2\n              dup2\n              mstore\n              0x20\n              add\n              dup3\n              dup1\n              sload\n              0x01\n              dup2\n              0x01\n              and\n              iszero\n              0x0100\n              mul\n              sub\n              and\n              0x02\n              swap1\n              div\n              dup1\n              iszero\n              tag_92\n              jumpi\n              dup1\n              0x1f\n              lt\n              tag_93\n              jumpi\n              0x0100\n              dup1\n              dup4\n              sload\n              div\n              mul\n              dup4\n              mstore\n              swap2\n              0x20\n              add\n              swap2\n              jump(tag_92)\n            tag_93:\n              dup3\n              add\n              swap2\n              swap1\n              0x00\n              mstore\n              keccak256(0x00, 0x20)\n              swap1\n            tag_94:\n              dup2\n              sload\n              dup2\n              mstore\n              swap1\n              0x01\n              add\n              swap1\n              0x20\n              add\n              dup1\n              dup4\n              gt\n              tag_94\n              jumpi\n              dup3\n              swap1\n              sub\n              0x1f\n              and\n              dup3\n              add\n              swap2\n            tag_92:\n              pop\n              pop\n              pop\n              pop\n              pop\n              swap2\n              pop\n              dup1\n              dup1\n              sload\n              0x01\n              dup2\n              0x01\n              and\n              iszero\n              0x0100\n              mul\n              sub\n              and\n              0x02\n              swap1\n              div\n              dup1\n              0x1f\n              add\n              0x20\n              dup1\n              swap2\n              div\n              mul\n              0x20\n              add\n              mload(0x40)\n              swap1\n              dup2\n              add\n              0x40\n              mstore\n              dup1\n              swap3\n              swap2\n              swap1\n              dup2\n              dup2\n              mstore\n              0x20\n              add\n              dup3\n              dup1\n              sload\n              0x01\n              dup2\n              0x01\n              and\n              iszero\n              0x0100\n              mul\n              sub\n              and\n              0x02\n              swap1\n              div\n              dup1\n              iszero\n              tag_95\n              jumpi\n              dup1\n              0x1f\n              lt\n              tag_96\n              jumpi\n              0x0100\n              dup1\n              dup4\n              sload\n              div\n              mul\n              dup4\n              mstore\n              swap2\n              0x20\n              add\n              swap2\n              jump(tag_95)\n            tag_96:\n              dup3\n              add\n              swap2\n              swap1\n              0x00\n              mstore\n              keccak256(0x00, 0x20)\n              swap1\n            tag_97:\n              dup2\n              sload\n              dup2\n              mstore\n              swap1\n              0x01\n              add\n              swap1\n              0x20\n              add\n              dup1\n              dup4\n              gt\n              tag_97\n              jumpi\n              dup3\n              swap1\n              sub\n              0x1f\n              and\n              dup3\n              add\n              swap2\n            tag_95:\n              pop\n              pop\n              pop\n              pop\n              pop\n              swap1\n              pop\n              swap3\n              pop\n              swap3\n              pop\n              swap3\n              pop\n                /* \"FIR.sol\":1349:1554  function getDetails() public view returns (\r... */\n              swap1\n              swap2\n              swap3\n              jump\t// out\n            tag_86:\n              mload(0x40)\n              dup1\n              0x60\n              add\n              0x40\n              mstore\n              dup1\n              and(0xffffffffffffffffffffffffffffffffffffffff, 0x00)\n              dup2\n              mstore\n              0x20\n              add\n              0x60\n              dup2\n              mstore\n              0x20\n              add\n              0x60\n              dup2\n              mstore\n              pop\n              swap1\n              jump\t// out\n            tag_89:\n              dup3\n              dup1\n              sload\n              0x01\n              dup2\n              0x01\n              and\n              iszero\n              0x0100\n              mul\n              sub\n              and\n              0x02\n              swap1\n              div\n              swap1\n              0x00\n              mstore\n              keccak256(0x00, 0x20)\n              swap1\n              0x1f\n              add\n              0x20\n              swap1\n              div\n              dup2\n              add\n              swap3\n              dup3\n              0x1f\n              lt\n              tag_99\n              jumpi\n              dup1\n              mload\n              not(0xff)\n              and\n              dup4\n              dup1\n              add\n              or\n              dup6\n              sstore\n              jump(tag_98)\n            tag_99:\n              dup3\n              dup1\n              add\n              0x01\n              add\n              dup6\n              sstore\n              dup3\n              iszero\n              tag_98\n              jumpi\n              swap2\n              dup3\n              add\n            tag_100:\n              dup3\n              dup2\n              gt\n              iszero\n              tag_101\n              jumpi\n              dup3\n              mload\n              dup3\n              sstore\n              swap2\n              0x20\n              add\n              swap2\n              swap1\n              0x01\n              add\n              swap1\n              jump(tag_100)\n            tag_101:\n            tag_98:\n              pop\n              swap1\n              pop\n              tag_102\n              swap2\n              swap1\n              tag_103\n              jump\t// in\n            tag_102:\n              pop\n              swap1\n              jump\t// out\n            tag_103:\n            tag_104:\n              dup1\n              dup3\n              gt\n              iszero\n              tag_105\n              jumpi\n              0x00\n              dup2\n              0x00\n              swap1\n              sstore\n              pop\n              0x01\n              add\n              jump(tag_104)\n            tag_105:\n              pop\n              swap1\n              jump\t// out\n                /* \"--CODEGEN--\":6:448   */\n            tag_107:\n              0x00\n                /* \"--CODEGEN--\":108:111   */\n              dup3\n                /* \"--CODEGEN--\":101:105   */\n              0x1f\n                /* \"--CODEGEN--\":93:99   */\n              dup4\n                /* \"--CODEGEN--\":89:106   */\n              add\n                /* \"--CODEGEN--\":85:112   */\n              slt\n                /* \"--CODEGEN--\":75:77   */\n              tag_109\n              jumpi\n                /* \"--CODEGEN--\":126:127   */\n              0x00\n                /* \"--CODEGEN--\":123:124   */\n              dup1\n                /* \"--CODEGEN--\":116:128   */\n              revert\n                /* \"--CODEGEN--\":75:77   */\n            tag_109:\n                /* \"--CODEGEN--\":163:169   */\n              dup2\n                /* \"--CODEGEN--\":150:170   */\n              calldataload\n                /* \"--CODEGEN--\":185:250   */\n              tag_110\n                /* \"--CODEGEN--\":200:249   */\n              tag_111\n                /* \"--CODEGEN--\":242:248   */\n              dup3\n                /* \"--CODEGEN--\":200:249   */\n              tag_112\n              jump\t// in\n            tag_111:\n                /* \"--CODEGEN--\":185:250   */\n              tag_113\n              jump\t// in\n            tag_110:\n                /* \"--CODEGEN--\":176:250   */\n              swap2\n              pop\n                /* \"--CODEGEN--\":270:276   */\n              dup1\n                /* \"--CODEGEN--\":263:268   */\n              dup3\n                /* \"--CODEGEN--\":256:277   */\n              mstore\n                /* \"--CODEGEN--\":306:310   */\n              0x20\n                /* \"--CODEGEN--\":298:304   */\n              dup4\n                /* \"--CODEGEN--\":294:311   */\n              add\n                /* \"--CODEGEN--\":339:343   */\n              0x20\n                /* \"--CODEGEN--\":332:337   */\n              dup4\n                /* \"--CODEGEN--\":328:344   */\n              add\n                /* \"--CODEGEN--\":374:377   */\n              dup6\n                /* \"--CODEGEN--\":365:371   */\n              dup4\n                /* \"--CODEGEN--\":360:363   */\n              dup4\n                /* \"--CODEGEN--\":356:372   */\n              add\n                /* \"--CODEGEN--\":353:378   */\n              gt\n                /* \"--CODEGEN--\":350:352   */\n              iszero\n              tag_114\n              jumpi\n                /* \"--CODEGEN--\":391:392   */\n              0x00\n                /* \"--CODEGEN--\":388:389   */\n              dup1\n                /* \"--CODEGEN--\":381:393   */\n              revert\n                /* \"--CODEGEN--\":350:352   */\n            tag_114:\n                /* \"--CODEGEN--\":401:442   */\n              tag_115\n                /* \"--CODEGEN--\":435:441   */\n              dup4\n                /* \"--CODEGEN--\":430:433   */\n              dup3\n                /* \"--CODEGEN--\":425:428   */\n              dup5\n                /* \"--CODEGEN--\":401:442   */\n              tag_116\n              jump\t// in\n            tag_115:\n                /* \"--CODEGEN--\":68:448   */\n              pop\n              pop\n              pop\n              swap3\n              swap2\n              pop\n              pop\n              jump\t// out\n                /* \"--CODEGEN--\":456:586   */\n            tag_117:\n              0x00\n                /* \"--CODEGEN--\":536:542   */\n              dup2\n                /* \"--CODEGEN--\":523:543   */\n              calldataload\n                /* \"--CODEGEN--\":514:543   */\n              swap1\n              pop\n                /* \"--CODEGEN--\":548:581   */\n              tag_119\n                /* \"--CODEGEN--\":575:580   */\n              dup2\n                /* \"--CODEGEN--\":548:581   */\n              tag_120\n              jump\t// in\n            tag_119:\n                /* \"--CODEGEN--\":508:586   */\n              swap3\n              swap2\n              pop\n              pop\n              jump\t// out\n                /* \"--CODEGEN--\":593:1171   */\n            tag_48:\n              0x00\n              dup1\n                /* \"--CODEGEN--\":734:736   */\n              0x40\n                /* \"--CODEGEN--\":722:731   */\n              dup4\n                /* \"--CODEGEN--\":713:720   */\n              dup6\n                /* \"--CODEGEN--\":709:732   */\n              sub\n                /* \"--CODEGEN--\":705:737   */\n              slt\n                /* \"--CODEGEN--\":702:704   */\n              iszero\n              tag_122\n              jumpi\n                /* \"--CODEGEN--\":750:751   */\n              0x00\n                /* \"--CODEGEN--\":747:748   */\n              dup1\n                /* \"--CODEGEN--\":740:752   */\n              revert\n                /* \"--CODEGEN--\":702:704   */\n            tag_122:\n                /* \"--CODEGEN--\":813:814   */\n              0x00\n                /* \"--CODEGEN--\":802:811   */\n              dup4\n                /* \"--CODEGEN--\":798:815   */\n              add\n                /* \"--CODEGEN--\":785:816   */\n              calldataload\n                /* \"--CODEGEN--\":836:854   */\n              0xffffffffffffffff\n                /* \"--CODEGEN--\":828:834   */\n              dup2\n                /* \"--CODEGEN--\":825:855   */\n              gt\n                /* \"--CODEGEN--\":822:824   */\n              iszero\n              tag_123\n              jumpi\n                /* \"--CODEGEN--\":868:869   */\n              0x00\n                /* \"--CODEGEN--\":865:866   */\n              dup1\n                /* \"--CODEGEN--\":858:870   */\n              revert\n                /* \"--CODEGEN--\":822:824   */\n            tag_123:\n                /* \"--CODEGEN--\":888:951   */\n              tag_124\n                /* \"--CODEGEN--\":943:950   */\n              dup6\n                /* \"--CODEGEN--\":934:940   */\n              dup3\n                /* \"--CODEGEN--\":923:932   */\n              dup7\n                /* \"--CODEGEN--\":919:941   */\n              add\n                /* \"--CODEGEN--\":888:951   */\n              tag_107\n              jump\t// in\n            tag_124:\n                /* \"--CODEGEN--\":878:951   */\n              swap3\n              pop\n                /* \"--CODEGEN--\":764:957   */\n              pop\n                /* \"--CODEGEN--\":1016:1018   */\n              0x20\n                /* \"--CODEGEN--\":1005:1014   */\n              dup4\n                /* \"--CODEGEN--\":1001:1019   */\n              add\n                /* \"--CODEGEN--\":988:1020   */\n              calldataload\n                /* \"--CODEGEN--\":1040:1058   */\n              0xffffffffffffffff\n                /* \"--CODEGEN--\":1032:1038   */\n              dup2\n                /* \"--CODEGEN--\":1029:1059   */\n              gt\n                /* \"--CODEGEN--\":1026:1028   */\n              iszero\n              tag_125\n              jumpi\n                /* \"--CODEGEN--\":1072:1073   */\n              0x00\n                /* \"--CODEGEN--\":1069:1070   */\n              dup1\n                /* \"--CODEGEN--\":1062:1074   */\n              revert\n                /* \"--CODEGEN--\":1026:1028   */\n            tag_125:\n                /* \"--CODEGEN--\":1092:1155   */\n              tag_126\n                /* \"--CODEGEN--\":1147:1154   */\n              dup6\n                /* \"--CODEGEN--\":1138:1144   */\n              dup3\n                /* \"--CODEGEN--\":1127:1136   */\n              dup7\n                /* \"--CODEGEN--\":1123:1145   */\n              add\n                /* \"--CODEGEN--\":1092:1155   */\n              tag_107\n              jump\t// in\n            tag_126:\n                /* \"--CODEGEN--\":1082:1155   */\n              swap2\n              pop\n                /* \"--CODEGEN--\":967:1161   */\n              pop\n                /* \"--CODEGEN--\":696:1171   */\n              swap3\n              pop\n              swap3\n              swap1\n              pop\n              jump\t// out\n                /* \"--CODEGEN--\":1178:1419   */\n            tag_20:\n              0x00\n                /* \"--CODEGEN--\":1282:1284   */\n              0x20\n                /* \"--CODEGEN--\":1270:1279   */\n              dup3\n                /* \"--CODEGEN--\":1261:1268   */\n              dup5\n                /* \"--CODEGEN--\":1257:1280   */\n              sub\n                /* \"--CODEGEN--\":1253:1285   */\n              slt\n                /* \"--CODEGEN--\":1250:1252   */\n              iszero\n              tag_128\n              jumpi\n                /* \"--CODEGEN--\":1298:1299   */\n              0x00\n                /* \"--CODEGEN--\":1295:1296   */\n              dup1\n                /* \"--CODEGEN--\":1288:1300   */\n              revert\n                /* \"--CODEGEN--\":1250:1252   */\n            tag_128:\n                /* \"--CODEGEN--\":1333:1334   */\n              0x00\n                /* \"--CODEGEN--\":1350:1403   */\n              tag_129\n                /* \"--CODEGEN--\":1395:1402   */\n              dup5\n                /* \"--CODEGEN--\":1386:1392   */\n              dup3\n                /* \"--CODEGEN--\":1375:1384   */\n              dup6\n                /* \"--CODEGEN--\":1371:1393   */\n              add\n                /* \"--CODEGEN--\":1350:1403   */\n              tag_117\n              jump\t// in\n            tag_129:\n                /* \"--CODEGEN--\":1340:1403   */\n              swap2\n              pop\n                /* \"--CODEGEN--\":1312:1409   */\n              pop\n                /* \"--CODEGEN--\":1244:1419   */\n              swap3\n              swap2\n              pop\n              pop\n              jump\t// out\n                /* \"--CODEGEN--\":1427:1684   */\n            tag_130:\n              0x00\n                /* \"--CODEGEN--\":1580:1678   */\n              tag_132\n                /* \"--CODEGEN--\":1674:1677   */\n              dup4\n                /* \"--CODEGEN--\":1666:1672   */\n              dup4\n                /* \"--CODEGEN--\":1580:1678   */\n              tag_133\n              jump\t// in\n            tag_132:\n                /* \"--CODEGEN--\":1566:1678   */\n              swap1\n              pop\n                /* \"--CODEGEN--\":1559:1684   */\n              swap3\n              swap2\n              pop\n              pop\n              jump\t// out\n                /* \"--CODEGEN--\":1692:1795   */\n            tag_134:\n                /* \"--CODEGEN--\":1765:1789   */\n              tag_136\n                /* \"--CODEGEN--\":1783:1788   */\n              dup2\n                /* \"--CODEGEN--\":1765:1789   */\n              tag_137\n              jump\t// in\n            tag_136:\n                /* \"--CODEGEN--\":1760:1763   */\n              dup3\n                /* \"--CODEGEN--\":1753:1790   */\n              mstore\n                /* \"--CODEGEN--\":1747:1795   */\n              pop\n              pop\n              jump\t// out\n                /* \"--CODEGEN--\":1802:1915   */\n            tag_138:\n                /* \"--CODEGEN--\":1885:1909   */\n              tag_140\n                /* \"--CODEGEN--\":1903:1908   */\n              dup2\n                /* \"--CODEGEN--\":1885:1909   */\n              tag_137\n              jump\t// in\n            tag_140:\n                /* \"--CODEGEN--\":1880:1883   */\n              dup3\n                /* \"--CODEGEN--\":1873:1910   */\n              mstore\n                /* \"--CODEGEN--\":1867:1915   */\n              pop\n              pop\n              jump\t// out\n                /* \"--CODEGEN--\":1981:3037   */\n            tag_141:\n              0x00\n                /* \"--CODEGEN--\":2178:2258   */\n              tag_143\n                /* \"--CODEGEN--\":2252:2257   */\n              dup3\n                /* \"--CODEGEN--\":2178:2258   */\n              tag_144\n              jump\t// in\n            tag_143:\n                /* \"--CODEGEN--\":2271:2383   */\n              tag_145\n                /* \"--CODEGEN--\":2376:2382   */\n              dup2\n                /* \"--CODEGEN--\":2371:2374   */\n              dup6\n                /* \"--CODEGEN--\":2271:2383   */\n              tag_146\n              jump\t// in\n            tag_145:\n                /* \"--CODEGEN--\":2264:2383   */\n              swap4\n              pop\n                /* \"--CODEGEN--\":2406:2409   */\n              dup4\n                /* \"--CODEGEN--\":2448:2452   */\n              0x20\n                /* \"--CODEGEN--\":2440:2446   */\n              dup3\n                /* \"--CODEGEN--\":2436:2453   */\n              mul\n                /* \"--CODEGEN--\":2431:2434   */\n              dup6\n                /* \"--CODEGEN--\":2427:2454   */\n              add\n                /* \"--CODEGEN--\":2475:2557   */\n              tag_147\n                /* \"--CODEGEN--\":2551:2556   */\n              dup6\n                /* \"--CODEGEN--\":2475:2557   */\n              tag_148\n              jump\t// in\n            tag_147:\n                /* \"--CODEGEN--\":2577:2584   */\n              dup1\n                /* \"--CODEGEN--\":2605:2606   */\n              0x00\n                /* \"--CODEGEN--\":2590:2998   */\n            tag_149:\n                /* \"--CODEGEN--\":2615:2621   */\n              dup6\n                /* \"--CODEGEN--\":2612:2613   */\n              dup2\n                /* \"--CODEGEN--\":2609:2622   */\n              lt\n                /* \"--CODEGEN--\":2590:2998   */\n              iszero\n              tag_151\n              jumpi\n                /* \"--CODEGEN--\":2677:2686   */\n              dup5\n                /* \"--CODEGEN--\":2671:2675   */\n              dup5\n                /* \"--CODEGEN--\":2667:2687   */\n              sub\n                /* \"--CODEGEN--\":2662:2665   */\n              dup10\n                /* \"--CODEGEN--\":2655:2688   */\n              mstore\n                /* \"--CODEGEN--\":2722:2728   */\n              dup2\n                /* \"--CODEGEN--\":2716:2729   */\n              mload\n                /* \"--CODEGEN--\":2744:2860   */\n              tag_152\n                /* \"--CODEGEN--\":2855:2859   */\n              dup6\n                /* \"--CODEGEN--\":2840:2853   */\n              dup3\n                /* \"--CODEGEN--\":2744:2860   */\n              tag_130\n              jump\t// in\n            tag_152:\n                /* \"--CODEGEN--\":2736:2860   */\n              swap5\n              pop\n                /* \"--CODEGEN--\":2877:2963   */\n              tag_153\n                /* \"--CODEGEN--\":2956:2962   */\n              dup4\n                /* \"--CODEGEN--\":2877:2963   */\n              tag_154\n              jump\t// in\n            tag_153:\n                /* \"--CODEGEN--\":2867:2963   */\n              swap3\n              pop\n                /* \"--CODEGEN--\":2986:2990   */\n              0x20\n                /* \"--CODEGEN--\":2981:2984   */\n              dup11\n                /* \"--CODEGEN--\":2977:2991   */\n              add\n                /* \"--CODEGEN--\":2970:2991   */\n              swap10\n              pop\n                /* \"--CODEGEN--\":2647:2998   */\n              pop\n                /* \"--CODEGEN--\":2637:2638   */\n              0x01\n                /* \"--CODEGEN--\":2634:2635   */\n              dup2\n                /* \"--CODEGEN--\":2630:2639   */\n              add\n                /* \"--CODEGEN--\":2625:2639   */\n              swap1\n              pop\n                /* \"--CODEGEN--\":2590:2998   */\n              jump(tag_149)\n            tag_151:\n                /* \"--CODEGEN--\":2594:2608   */\n              pop\n                /* \"--CODEGEN--\":3011:3015   */\n              dup3\n                /* \"--CODEGEN--\":3004:3015   */\n              swap8\n              pop\n                /* \"--CODEGEN--\":3028:3031   */\n              dup8\n                /* \"--CODEGEN--\":3021:3031   */\n              swap6\n              pop\n                /* \"--CODEGEN--\":2157:3037   */\n              pop\n              pop\n              pop\n              pop\n              pop\n              swap3\n              swap2\n              pop\n              pop\n              jump\t// out\n                /* \"--CODEGEN--\":3045:3372   */\n            tag_155:\n              0x00\n                /* \"--CODEGEN--\":3147:3186   */\n              tag_157\n                /* \"--CODEGEN--\":3180:3185   */\n              dup3\n                /* \"--CODEGEN--\":3147:3186   */\n              tag_158\n              jump\t// in\n            tag_157:\n                /* \"--CODEGEN--\":3198:3259   */\n              tag_159\n                /* \"--CODEGEN--\":3252:3258   */\n              dup2\n                /* \"--CODEGEN--\":3247:3250   */\n              dup6\n                /* \"--CODEGEN--\":3198:3259   */\n              tag_160\n              jump\t// in\n            tag_159:\n                /* \"--CODEGEN--\":3191:3259   */\n              swap4\n              pop\n                /* \"--CODEGEN--\":3264:3316   */\n              tag_161\n                /* \"--CODEGEN--\":3309:3315   */\n              dup2\n                /* \"--CODEGEN--\":3304:3307   */\n              dup6\n                /* \"--CODEGEN--\":3297:3301   */\n              0x20\n                /* \"--CODEGEN--\":3290:3295   */\n              dup7\n                /* \"--CODEGEN--\":3286:3302   */\n              add\n                /* \"--CODEGEN--\":3264:3316   */\n              tag_162\n              jump\t// in\n            tag_161:\n                /* \"--CODEGEN--\":3337:3366   */\n              tag_163\n                /* \"--CODEGEN--\":3359:3365   */\n              dup2\n                /* \"--CODEGEN--\":3337:3366   */\n              tag_164\n              jump\t// in\n            tag_163:\n                /* \"--CODEGEN--\":3332:3335   */\n              dup5\n                /* \"--CODEGEN--\":3328:3367   */\n              add\n                /* \"--CODEGEN--\":3321:3367   */\n              swap2\n              pop\n                /* \"--CODEGEN--\":3127:3372   */\n              pop\n              swap3\n              swap2\n              pop\n              pop\n              jump\t// out\n                /* \"--CODEGEN--\":3379:3726   */\n            tag_165:\n              0x00\n                /* \"--CODEGEN--\":3491:3530   */\n              tag_167\n                /* \"--CODEGEN--\":3524:3529   */\n              dup3\n                /* \"--CODEGEN--\":3491:3530   */\n              tag_158\n              jump\t// in\n            tag_167:\n                /* \"--CODEGEN--\":3542:3613   */\n              tag_168\n                /* \"--CODEGEN--\":3606:3612   */\n              dup2\n                /* \"--CODEGEN--\":3601:3604   */\n              dup6\n                /* \"--CODEGEN--\":3542:3613   */\n              tag_169\n              jump\t// in\n            tag_168:\n                /* \"--CODEGEN--\":3535:3613   */\n              swap4\n              pop\n                /* \"--CODEGEN--\":3618:3670   */\n              tag_170\n                /* \"--CODEGEN--\":3663:3669   */\n              dup2\n                /* \"--CODEGEN--\":3658:3661   */\n              dup6\n                /* \"--CODEGEN--\":3651:3655   */\n              0x20\n                /* \"--CODEGEN--\":3644:3649   */\n              dup7\n                /* \"--CODEGEN--\":3640:3656   */\n              add\n                /* \"--CODEGEN--\":3618:3670   */\n              tag_162\n              jump\t// in\n            tag_170:\n                /* \"--CODEGEN--\":3691:3720   */\n              tag_171\n                /* \"--CODEGEN--\":3713:3719   */\n              dup2\n                /* \"--CODEGEN--\":3691:3720   */\n              tag_164\n              jump\t// in\n            tag_171:\n                /* \"--CODEGEN--\":3686:3689   */\n              dup5\n                /* \"--CODEGEN--\":3682:3721   */\n              add\n                /* \"--CODEGEN--\":3675:3721   */\n              swap2\n              pop\n                /* \"--CODEGEN--\":3471:3726   */\n              pop\n              swap3\n              swap2\n              pop\n              pop\n              jump\t// out\n                /* \"--CODEGEN--\":3786:4606   */\n            tag_133:\n              0x00\n                /* \"--CODEGEN--\":3929:3933   */\n              0x60\n                /* \"--CODEGEN--\":3924:3927   */\n              dup4\n                /* \"--CODEGEN--\":3920:3934   */\n              add\n                /* \"--CODEGEN--\":4022:4026   */\n              0x00\n                /* \"--CODEGEN--\":4015:4020   */\n              dup4\n                /* \"--CODEGEN--\":4011:4027   */\n              add\n                /* \"--CODEGEN--\":4005:4028   */\n              mload\n                /* \"--CODEGEN--\":4034:4097   */\n              tag_173\n                /* \"--CODEGEN--\":4091:4095   */\n              0x00\n                /* \"--CODEGEN--\":4086:4089   */\n              dup7\n                /* \"--CODEGEN--\":4082:4096   */\n              add\n                /* \"--CODEGEN--\":4068:4080   */\n              dup3\n                /* \"--CODEGEN--\":4034:4097   */\n              tag_134\n              jump\t// in\n            tag_173:\n                /* \"--CODEGEN--\":3949:4103   */\n              pop\n                /* \"--CODEGEN--\":4183:4187   */\n              0x20\n                /* \"--CODEGEN--\":4176:4181   */\n              dup4\n                /* \"--CODEGEN--\":4172:4188   */\n              add\n                /* \"--CODEGEN--\":4166:4189   */\n              mload\n                /* \"--CODEGEN--\":4235:4238   */\n              dup5\n                /* \"--CODEGEN--\":4229:4233   */\n              dup3\n                /* \"--CODEGEN--\":4225:4239   */\n              sub\n                /* \"--CODEGEN--\":4218:4222   */\n              0x20\n                /* \"--CODEGEN--\":4213:4216   */\n              dup7\n                /* \"--CODEGEN--\":4209:4223   */\n              add\n                /* \"--CODEGEN--\":4202:4240   */\n              mstore\n                /* \"--CODEGEN--\":4255:4328   */\n              tag_174\n                /* \"--CODEGEN--\":4323:4327   */\n              dup3\n                /* \"--CODEGEN--\":4309:4321   */\n              dup3\n                /* \"--CODEGEN--\":4255:4328   */\n              tag_155\n              jump\t// in\n            tag_174:\n                /* \"--CODEGEN--\":4247:4328   */\n              swap2\n              pop\n                /* \"--CODEGEN--\":4113:4340   */\n              pop\n                /* \"--CODEGEN--\":4423:4427   */\n              0x40\n                /* \"--CODEGEN--\":4416:4421   */\n              dup4\n                /* \"--CODEGEN--\":4412:4428   */\n              add\n                /* \"--CODEGEN--\":4406:4429   */\n              mload\n                /* \"--CODEGEN--\":4475:4478   */\n              dup5\n                /* \"--CODEGEN--\":4469:4473   */\n              dup3\n                /* \"--CODEGEN--\":4465:4479   */\n              sub\n                /* \"--CODEGEN--\":4458:4462   */\n              0x40\n                /* \"--CODEGEN--\":4453:4456   */\n              dup7\n                /* \"--CODEGEN--\":4449:4463   */\n              add\n                /* \"--CODEGEN--\":4442:4480   */\n              mstore\n                /* \"--CODEGEN--\":4495:4568   */\n              tag_175\n                /* \"--CODEGEN--\":4563:4567   */\n              dup3\n                /* \"--CODEGEN--\":4549:4561   */\n              dup3\n                /* \"--CODEGEN--\":4495:4568   */\n              tag_155\n              jump\t// in\n            tag_175:\n                /* \"--CODEGEN--\":4487:4568   */\n              swap2\n              pop\n                /* \"--CODEGEN--\":4350:4580   */\n              pop\n                /* \"--CODEGEN--\":4597:4601   */\n              dup1\n                /* \"--CODEGEN--\":4590:4601   */\n              swap2\n              pop\n                /* \"--CODEGEN--\":3902:4606   */\n              pop\n              swap3\n              swap2\n              pop\n              pop\n              jump\t// out\n                /* \"--CODEGEN--\":4613:4726   */\n            tag_176:\n                /* \"--CODEGEN--\":4696:4720   */\n              tag_178\n                /* \"--CODEGEN--\":4714:4719   */\n              dup2\n                /* \"--CODEGEN--\":4696:4720   */\n              tag_179\n              jump\t// in\n            tag_178:\n                /* \"--CODEGEN--\":4691:4694   */\n              dup3\n                /* \"--CODEGEN--\":4684:4721   */\n              mstore\n                /* \"--CODEGEN--\":4678:4726   */\n              pop\n              pop\n              jump\t// out\n                /* \"--CODEGEN--\":4733:4955   */\n            tag_40:\n              0x00\n                /* \"--CODEGEN--\":4860:4862   */\n              0x20\n                /* \"--CODEGEN--\":4849:4858   */\n              dup3\n                /* \"--CODEGEN--\":4845:4863   */\n              add\n                /* \"--CODEGEN--\":4837:4863   */\n              swap1\n              pop\n                /* \"--CODEGEN--\":4874:4945   */\n              tag_181\n                /* \"--CODEGEN--\":4942:4943   */\n              0x00\n                /* \"--CODEGEN--\":4931:4940   */\n              dup4\n                /* \"--CODEGEN--\":4927:4944   */\n              add\n                /* \"--CODEGEN--\":4918:4924   */\n              dup5\n                /* \"--CODEGEN--\":4874:4945   */\n              tag_138\n              jump\t// in\n            tag_181:\n                /* \"--CODEGEN--\":4831:4955   */\n              swap3\n              swap2\n              pop\n              pop\n              jump\t// out\n                /* \"--CODEGEN--\":4962:5582   */\n            tag_45:\n              0x00\n                /* \"--CODEGEN--\":5185:5187   */\n              0x60\n                /* \"--CODEGEN--\":5174:5183   */\n              dup3\n                /* \"--CODEGEN--\":5170:5188   */\n              add\n                /* \"--CODEGEN--\":5162:5188   */\n              swap1\n              pop\n                /* \"--CODEGEN--\":5199:5270   */\n              tag_183\n                /* \"--CODEGEN--\":5267:5268   */\n              0x00\n                /* \"--CODEGEN--\":5256:5265   */\n              dup4\n                /* \"--CODEGEN--\":5252:5269   */\n              add\n                /* \"--CODEGEN--\":5243:5249   */\n              dup7\n                /* \"--CODEGEN--\":5199:5270   */\n              tag_138\n              jump\t// in\n            tag_183:\n                /* \"--CODEGEN--\":5318:5327   */\n              dup2\n                /* \"--CODEGEN--\":5312:5316   */\n              dup2\n                /* \"--CODEGEN--\":5308:5328   */\n              sub\n                /* \"--CODEGEN--\":5303:5305   */\n              0x20\n                /* \"--CODEGEN--\":5292:5301   */\n              dup4\n                /* \"--CODEGEN--\":5288:5306   */\n              add\n                /* \"--CODEGEN--\":5281:5329   */\n              mstore\n                /* \"--CODEGEN--\":5343:5421   */\n              tag_184\n                /* \"--CODEGEN--\":5416:5420   */\n              dup2\n                /* \"--CODEGEN--\":5407:5413   */\n              dup6\n                /* \"--CODEGEN--\":5343:5421   */\n              tag_165\n              jump\t// in\n            tag_184:\n                /* \"--CODEGEN--\":5335:5421   */\n              swap1\n              pop\n                /* \"--CODEGEN--\":5469:5478   */\n              dup2\n                /* \"--CODEGEN--\":5463:5467   */\n              dup2\n                /* \"--CODEGEN--\":5459:5479   */\n              sub\n                /* \"--CODEGEN--\":5454:5456   */\n              0x40\n                /* \"--CODEGEN--\":5443:5452   */\n              dup4\n                /* \"--CODEGEN--\":5439:5457   */\n              add\n                /* \"--CODEGEN--\":5432:5480   */\n              mstore\n                /* \"--CODEGEN--\":5494:5572   */\n              tag_185\n                /* \"--CODEGEN--\":5567:5571   */\n              dup2\n                /* \"--CODEGEN--\":5558:5564   */\n              dup5\n                /* \"--CODEGEN--\":5494:5572   */\n              tag_165\n              jump\t// in\n            tag_185:\n                /* \"--CODEGEN--\":5486:5572   */\n              swap1\n              pop\n                /* \"--CODEGEN--\":5156:5582   */\n              swap5\n              swap4\n              pop\n              pop\n              pop\n              pop\n              jump\t// out\n                /* \"--CODEGEN--\":5589:6063   */\n            tag_36:\n              0x00\n                /* \"--CODEGEN--\":5818:5820   */\n              0x20\n                /* \"--CODEGEN--\":5807:5816   */\n              dup3\n                /* \"--CODEGEN--\":5803:5821   */\n              add\n                /* \"--CODEGEN--\":5795:5821   */\n              swap1\n              pop\n                /* \"--CODEGEN--\":5868:5877   */\n              dup2\n                /* \"--CODEGEN--\":5862:5866   */\n              dup2\n                /* \"--CODEGEN--\":5858:5878   */\n              sub\n                /* \"--CODEGEN--\":5854:5855   */\n              0x00\n                /* \"--CODEGEN--\":5843:5852   */\n              dup4\n                /* \"--CODEGEN--\":5839:5856   */\n              add\n                /* \"--CODEGEN--\":5832:5879   */\n              mstore\n                /* \"--CODEGEN--\":5893:6053   */\n              tag_187\n                /* \"--CODEGEN--\":6048:6052   */\n              dup2\n                /* \"--CODEGEN--\":6039:6045   */\n              dup5\n                /* \"--CODEGEN--\":5893:6053   */\n              tag_141\n              jump\t// in\n            tag_187:\n                /* \"--CODEGEN--\":5885:6053   */\n              swap1\n              pop\n                /* \"--CODEGEN--\":5789:6063   */\n              swap3\n              swap2\n              pop\n              pop\n              jump\t// out\n                /* \"--CODEGEN--\":6070:6380   */\n            tag_23:\n              0x00\n                /* \"--CODEGEN--\":6217:6219   */\n              0x20\n                /* \"--CODEGEN--\":6206:6215   */\n              dup3\n                /* \"--CODEGEN--\":6202:6220   */\n              add\n                /* \"--CODEGEN--\":6194:6220   */\n              swap1\n              pop\n                /* \"--CODEGEN--\":6267:6276   */\n              dup2\n                /* \"--CODEGEN--\":6261:6265   */\n              dup2\n                /* \"--CODEGEN--\":6257:6277   */\n              sub\n                /* \"--CODEGEN--\":6253:6254   */\n              0x00\n                /* \"--CODEGEN--\":6242:6251   */\n              dup4\n                /* \"--CODEGEN--\":6238:6255   */\n              add\n                /* \"--CODEGEN--\":6231:6278   */\n              mstore\n                /* \"--CODEGEN--\":6292:6370   */\n              tag_189\n                /* \"--CODEGEN--\":6365:6369   */\n              dup2\n                /* \"--CODEGEN--\":6356:6362   */\n              dup5\n                /* \"--CODEGEN--\":6292:6370   */\n              tag_165\n              jump\t// in\n            tag_189:\n                /* \"--CODEGEN--\":6284:6370   */\n              swap1\n              pop\n                /* \"--CODEGEN--\":6188:6380   */\n              swap3\n              swap2\n              pop\n              pop\n              jump\t// out\n                /* \"--CODEGEN--\":6387:6609   */\n            tag_17:\n              0x00\n                /* \"--CODEGEN--\":6514:6516   */\n              0x20\n                /* \"--CODEGEN--\":6503:6512   */\n              dup3\n                /* \"--CODEGEN--\":6499:6517   */\n              add\n                /* \"--CODEGEN--\":6491:6517   */\n              swap1\n              pop\n                /* \"--CODEGEN--\":6528:6599   */\n              tag_191\n                /* \"--CODEGEN--\":6596:6597   */\n              0x00\n                /* \"--CODEGEN--\":6585:6594   */\n              dup4\n                /* \"--CODEGEN--\":6581:6598   */\n              add\n                /* \"--CODEGEN--\":6572:6578   */\n              dup5\n                /* \"--CODEGEN--\":6528:6599   */\n              tag_176\n              jump\t// in\n            tag_191:\n                /* \"--CODEGEN--\":6485:6609   */\n              swap3\n              swap2\n              pop\n              pop\n              jump\t// out\n                /* \"--CODEGEN--\":6616:6872   */\n            tag_113:\n              0x00\n                /* \"--CODEGEN--\":6678:6680   */\n              0x40\n                /* \"--CODEGEN--\":6672:6681   */\n              mload\n                /* \"--CODEGEN--\":6662:6681   */\n              swap1\n              pop\n                /* \"--CODEGEN--\":6716:6720   */\n              dup2\n                /* \"--CODEGEN--\":6708:6714   */\n              dup2\n                /* \"--CODEGEN--\":6704:6721   */\n              add\n                /* \"--CODEGEN--\":6815:6821   */\n              dup2\n                /* \"--CODEGEN--\":6803:6813   */\n              dup2\n                /* \"--CODEGEN--\":6800:6822   */\n              lt\n                /* \"--CODEGEN--\":6779:6797   */\n              0xffffffffffffffff\n                /* \"--CODEGEN--\":6767:6777   */\n              dup3\n                /* \"--CODEGEN--\":6764:6798   */\n              gt\n                /* \"--CODEGEN--\":6761:6823   */\n              or\n                /* \"--CODEGEN--\":6758:6760   */\n              iszero\n              tag_193\n              jumpi\n                /* \"--CODEGEN--\":6836:6837   */\n              0x00\n                /* \"--CODEGEN--\":6833:6834   */\n              dup1\n                /* \"--CODEGEN--\":6826:6838   */\n              revert\n                /* \"--CODEGEN--\":6758:6760   */\n            tag_193:\n                /* \"--CODEGEN--\":6856:6866   */\n              dup1\n                /* \"--CODEGEN--\":6852:6854   */\n              0x40\n                /* \"--CODEGEN--\":6845:6867   */\n              mstore\n                /* \"--CODEGEN--\":6656:6872   */\n              pop\n              swap2\n              swap1\n              pop\n              jump\t// out\n                /* \"--CODEGEN--\":6879:7201   */\n            tag_112:\n              0x00\n                /* \"--CODEGEN--\":7023:7041   */\n              0xffffffffffffffff\n                /* \"--CODEGEN--\":7015:7021   */\n              dup3\n                /* \"--CODEGEN--\":7012:7042   */\n              gt\n                /* \"--CODEGEN--\":7009:7011   */\n              iszero\n              tag_195\n              jumpi\n                /* \"--CODEGEN--\":7055:7056   */\n              0x00\n                /* \"--CODEGEN--\":7052:7053   */\n              dup1\n                /* \"--CODEGEN--\":7045:7057   */\n              revert\n                /* \"--CODEGEN--\":7009:7011   */\n            tag_195:\n                /* \"--CODEGEN--\":7122:7126   */\n              0x1f\n                /* \"--CODEGEN--\":7118:7127   */\n              not\n                /* \"--CODEGEN--\":7111:7115   */\n              0x1f\n                /* \"--CODEGEN--\":7103:7109   */\n              dup4\n                /* \"--CODEGEN--\":7099:7116   */\n              add\n                /* \"--CODEGEN--\":7095:7128   */\n              and\n                /* \"--CODEGEN--\":7087:7128   */\n              swap1\n              pop\n                /* \"--CODEGEN--\":7186:7190   */\n              0x20\n                /* \"--CODEGEN--\":7180:7184   */\n              dup2\n                /* \"--CODEGEN--\":7176:7191   */\n              add\n                /* \"--CODEGEN--\":7168:7191   */\n              swap1\n              pop\n                /* \"--CODEGEN--\":6946:7201   */\n              swap2\n              swap1\n              pop\n              jump\t// out\n                /* \"--CODEGEN--\":7208:7385   */\n            tag_148:\n              0x00\n                /* \"--CODEGEN--\":7320:7323   */\n              dup2\n                /* \"--CODEGEN--\":7312:7323   */\n              swap1\n              pop\n                /* \"--CODEGEN--\":7358:7362   */\n              0x20\n                /* \"--CODEGEN--\":7353:7356   */\n              dup3\n                /* \"--CODEGEN--\":7349:7363   */\n              add\n                /* \"--CODEGEN--\":7341:7363   */\n              swap1\n              pop\n                /* \"--CODEGEN--\":7306:7385   */\n              swap2\n              swap1\n              pop\n              jump\t// out\n                /* \"--CODEGEN--\":7392:7555   */\n            tag_144:\n              0x00\n                /* \"--CODEGEN--\":7527:7532   */\n              dup2\n                /* \"--CODEGEN--\":7521:7533   */\n              mload\n                /* \"--CODEGEN--\":7511:7533   */\n              swap1\n              pop\n                /* \"--CODEGEN--\":7492:7555   */\n              swap2\n              swap1\n              pop\n              jump\t// out\n                /* \"--CODEGEN--\":7562:7684   */\n            tag_158:\n              0x00\n                /* \"--CODEGEN--\":7656:7661   */\n              dup2\n                /* \"--CODEGEN--\":7650:7662   */\n              mload\n                /* \"--CODEGEN--\":7640:7662   */\n              swap1\n              pop\n                /* \"--CODEGEN--\":7621:7684   */\n              swap2\n              swap1\n              pop\n              jump\t// out\n                /* \"--CODEGEN--\":7691:7825   */\n            tag_154:\n              0x00\n                /* \"--CODEGEN--\":7815:7819   */\n              0x20\n                /* \"--CODEGEN--\":7810:7813   */\n              dup3\n                /* \"--CODEGEN--\":7806:7820   */\n              add\n                /* \"--CODEGEN--\":7798:7820   */\n              swap1\n              pop\n                /* \"--CODEGEN--\":7792:7825   */\n              swap2\n              swap1\n              pop\n              jump\t// out\n                /* \"--CODEGEN--\":7833:8037   */\n            tag_146:\n              0x00\n                /* \"--CODEGEN--\":7989:7995   */\n              dup3\n                /* \"--CODEGEN--\":7984:7987   */\n              dup3\n                /* \"--CODEGEN--\":7977:7996   */\n              mstore\n                /* \"--CODEGEN--\":8026:8030   */\n              0x20\n                /* \"--CODEGEN--\":8021:8024   */\n              dup3\n                /* \"--CODEGEN--\":8017:8031   */\n              add\n                /* \"--CODEGEN--\":8002:8031   */\n              swap1\n              pop\n                /* \"--CODEGEN--\":7970:8037   */\n              swap3\n              swap2\n              pop\n              pop\n              jump\t// out\n                /* \"--CODEGEN--\":8046:8199   */\n            tag_160:\n              0x00\n                /* \"--CODEGEN--\":8151:8157   */\n              dup3\n                /* \"--CODEGEN--\":8146:8149   */\n              dup3\n                /* \"--CODEGEN--\":8139:8158   */\n              mstore\n                /* \"--CODEGEN--\":8188:8192   */\n              0x20\n                /* \"--CODEGEN--\":8183:8186   */\n              dup3\n                /* \"--CODEGEN--\":8179:8193   */\n              add\n                /* \"--CODEGEN--\":8164:8193   */\n              swap1\n              pop\n                /* \"--CODEGEN--\":8132:8199   */\n              swap3\n              swap2\n              pop\n              pop\n              jump\t// out\n                /* \"--CODEGEN--\":8208:8371   */\n            tag_169:\n              0x00\n                /* \"--CODEGEN--\":8323:8329   */\n              dup3\n                /* \"--CODEGEN--\":8318:8321   */\n              dup3\n                /* \"--CODEGEN--\":8311:8330   */\n              mstore\n                /* \"--CODEGEN--\":8360:8364   */\n              0x20\n                /* \"--CODEGEN--\":8355:8358   */\n              dup3\n                /* \"--CODEGEN--\":8351:8365   */\n              add\n                /* \"--CODEGEN--\":8336:8365   */\n              swap1\n              pop\n                /* \"--CODEGEN--\":8304:8371   */\n              swap3\n              swap2\n              pop\n              pop\n              jump\t// out\n                /* \"--CODEGEN--\":8379:8470   */\n            tag_137:\n              0x00\n                /* \"--CODEGEN--\":8441:8465   */\n              tag_204\n                /* \"--CODEGEN--\":8459:8464   */\n              dup3\n                /* \"--CODEGEN--\":8441:8465   */\n              tag_205\n              jump\t// in\n            tag_204:\n                /* \"--CODEGEN--\":8430:8465   */\n              swap1\n              pop\n                /* \"--CODEGEN--\":8424:8470   */\n              swap2\n              swap1\n              pop\n              jump\t// out\n                /* \"--CODEGEN--\":8477:8598   */\n            tag_205:\n              0x00\n                /* \"--CODEGEN--\":8550:8592   */\n              0xffffffffffffffffffffffffffffffffffffffff\n                /* \"--CODEGEN--\":8543:8548   */\n              dup3\n                /* \"--CODEGEN--\":8539:8593   */\n              and\n                /* \"--CODEGEN--\":8528:8593   */\n              swap1\n              pop\n                /* \"--CODEGEN--\":8522:8598   */\n              swap2\n              swap1\n              pop\n              jump\t// out\n                /* \"--CODEGEN--\":8605:8677   */\n            tag_179:\n              0x00\n                /* \"--CODEGEN--\":8667:8672   */\n              dup2\n                /* \"--CODEGEN--\":8656:8672   */\n              swap1\n              pop\n                /* \"--CODEGEN--\":8650:8677   */\n              swap2\n              swap1\n              pop\n              jump\t// out\n                /* \"--CODEGEN--\":8685:8830   */\n            tag_116:\n                /* \"--CODEGEN--\":8766:8772   */\n              dup3\n                /* \"--CODEGEN--\":8761:8764   */\n              dup2\n                /* \"--CODEGEN--\":8756:8759   */\n              dup4\n                /* \"--CODEGEN--\":8743:8773   */\n              calldatacopy\n                /* \"--CODEGEN--\":8822:8823   */\n              0x00\n                /* \"--CODEGEN--\":8813:8819   */\n              dup4\n                /* \"--CODEGEN--\":8808:8811   */\n              dup4\n                /* \"--CODEGEN--\":8804:8820   */\n              add\n                /* \"--CODEGEN--\":8797:8824   */\n              mstore\n                /* \"--CODEGEN--\":8736:8830   */\n              pop\n              pop\n              pop\n              jump\t// out\n                /* \"--CODEGEN--\":8839:9107   */\n            tag_162:\n                /* \"--CODEGEN--\":8904:8905   */\n              0x00\n                /* \"--CODEGEN--\":8911:9012   */\n            tag_210:\n                /* \"--CODEGEN--\":8925:8931   */\n              dup4\n                /* \"--CODEGEN--\":8922:8923   */\n              dup2\n                /* \"--CODEGEN--\":8919:8932   */\n              lt\n                /* \"--CODEGEN--\":8911:9012   */\n              iszero\n              tag_212\n              jumpi\n                /* \"--CODEGEN--\":9001:9002   */\n              dup1\n                /* \"--CODEGEN--\":8996:8999   */\n              dup3\n                /* \"--CODEGEN--\":8992:9003   */\n              add\n                /* \"--CODEGEN--\":8986:9004   */\n              mload\n                /* \"--CODEGEN--\":8982:8983   */\n              dup2\n                /* \"--CODEGEN--\":8977:8980   */\n              dup5\n                /* \"--CODEGEN--\":8973:8984   */\n              add\n                /* \"--CODEGEN--\":8966:9005   */\n              mstore\n                /* \"--CODEGEN--\":8947:8949   */\n              0x20\n                /* \"--CODEGEN--\":8944:8945   */\n              dup2\n                /* \"--CODEGEN--\":8940:8950   */\n              add\n                /* \"--CODEGEN--\":8935:8950   */\n              swap1\n              pop\n                /* \"--CODEGEN--\":8911:9012   */\n              jump(tag_210)\n            tag_212:\n                /* \"--CODEGEN--\":9027:9033   */\n              dup4\n                /* \"--CODEGEN--\":9024:9025   */\n              dup2\n                /* \"--CODEGEN--\":9021:9034   */\n              gt\n                /* \"--CODEGEN--\":9018:9020   */\n              iszero\n              tag_213\n              jumpi\n                /* \"--CODEGEN--\":9092:9093   */\n              0x00\n                /* \"--CODEGEN--\":9083:9089   */\n              dup5\n                /* \"--CODEGEN--\":9078:9081   */\n              dup5\n                /* \"--CODEGEN--\":9074:9090   */\n              add\n                /* \"--CODEGEN--\":9067:9094   */\n              mstore\n                /* \"--CODEGEN--\":9018:9020   */\n            tag_213:\n                /* \"--CODEGEN--\":8888:9107   */\n              pop\n              pop\n              pop\n              pop\n              jump\t// out\n                /* \"--CODEGEN--\":9115:9212   */\n            tag_164:\n              0x00\n                /* \"--CODEGEN--\":9203:9205   */\n              0x1f\n                /* \"--CODEGEN--\":9199:9206   */\n              not\n                /* \"--CODEGEN--\":9194:9196   */\n              0x1f\n                /* \"--CODEGEN--\":9187:9192   */\n              dup4\n                /* \"--CODEGEN--\":9183:9197   */\n              add\n                /* \"--CODEGEN--\":9179:9207   */\n              and\n                /* \"--CODEGEN--\":9169:9207   */\n              swap1\n              pop\n                /* \"--CODEGEN--\":9163:9212   */\n              swap2\n              swap1\n              pop\n              jump\t// out\n                /* \"--CODEGEN--\":9220:9337   */\n            tag_120:\n                /* \"--CODEGEN--\":9289:9313   */\n              tag_216\n                /* \"--CODEGEN--\":9307:9312   */\n              dup2\n                /* \"--CODEGEN--\":9289:9313   */\n              tag_179\n              jump\t// in\n            tag_216:\n                /* \"--CODEGEN--\":9282:9287   */\n              dup2\n                /* \"--CODEGEN--\":9279:9314   */\n              eq\n                /* \"--CODEGEN--\":9269:9271   */\n              tag_217\n              jumpi\n                /* \"--CODEGEN--\":9328:9329   */\n              0x00\n                /* \"--CODEGEN--\":9325:9326   */\n              dup1\n                /* \"--CODEGEN--\":9318:9330   */\n              revert\n                /* \"--CODEGEN--\":9269:9271   */\n            tag_217:\n                /* \"--CODEGEN--\":9263:9337   */\n              pop\n              jump\t// out\n\n            auxdata: 0xa26469706673582212206bbfd55d366763efb2a11a96a8e50be599fbf5cb9f0e61fa58816bdec5cd56ec64736f6c63430007000033\n        }\n    }\n\n    auxdata: 0xa264697066735822122025dd9027f037b280f9ed93997c1719f8cc75576551fe75fc61f89af6ad85e97364736f6c63430007000033\n}\n","bytecode":{"linkReferences":{},"object":"608060405234801561001057600080fd5b50611cc7806100206000396000f3fe60806040523480156200001157600080fd5b5060043610620000525760003560e01c80632412f27a14620000575780635032253414620000795780639f9c3d8414620000af578063adb325d214620000d1575b600080fd5b62000061620000f1565b60405162000070919062000507565b60405180910390f35b620000976004803603810190620000919190620003c6565b62000181565b604051620000a69190620004ea565b60405180910390f35b620000b9620001be565b604051620000c89190620004ea565b60405180910390f35b620000ef6004803603810190620000e9919062000353565b620001e8565b005b606060008054806020026020016040519081016040528092919081815260200182805480156200017757602002820191906000526020600020905b8160009054906101000a900473ffffffffffffffffffffffffffffffffffffffff1673ffffffffffffffffffffffffffffffffffffffff16815260200190600101908083116200012c575b5050505050905090565b600081815481106200018f57fe5b906000526020600020016000915054906101000a900473ffffffffffffffffffffffffffffffffffffffff1681565b6000600160009054906101000a900473ffffffffffffffffffffffffffffffffffffffff16905090565b6000828233604051620001fb90620002d2565b62000209939291906200052b565b604051809103906000f08015801562000226573d6000803e3d6000fd5b5090506000819080600181540180825580915050600190039060005260206000200160009091909190916101000a81548173ffffffffffffffffffffffffffffffffffffffff021916908373ffffffffffffffffffffffffffffffffffffffff16021790555080600160006101000a81548173ffffffffffffffffffffffffffffffffffffffff021916908373ffffffffffffffffffffffffffffffffffffffff160217905550505050565b611581806200071183390190565b600082601f830112620002f257600080fd5b8135620003096200030382620005a4565b62000576565b915080825260208301602083018583830111156200032657600080fd5b62000333838284620006a0565b50505092915050565b6000813590506200034d81620006f6565b92915050565b600080604083850312156200036757600080fd5b600083013567ffffffffffffffff8111156200038257600080fd5b6200039085828601620002e0565b925050602083013567ffffffffffffffff811115620003ae57600080fd5b620003bc85828601620002e0565b9150509250929050565b600060208284031215620003d957600080fd5b6000620003e9848285016200033c565b91505092915050565b60006200040083836200041d565b60208301905092915050565b620004178162000664565b82525050565b620004288162000626565b82525050565b620004398162000626565b82525050565b60006200044c82620005e1565b62000458818562000604565b93506200046583620005d1565b8060005b838110156200049c578151620004808882620003f2565b97506200048d83620005f7565b92505060018101905062000469565b5085935050505092915050565b6000620004b682620005ec565b620004c2818562000615565b9350620004d4818560208601620006af565b620004df81620006e5565b840191505092915050565b60006020820190506200050160008301846200042e565b92915050565b600060208201905081810360008301526200052381846200043f565b905092915050565b60006060820190508181036000830152620005478186620004a9565b905081810360208301526200055d8185620004a9565b90506200056e60408301846200040c565b949350505050565b6000604051905081810181811067ffffffffffffffff821117156200059a57600080fd5b8060405250919050565b600067ffffffffffffffff821115620005bc57600080fd5b601f19601f8301169050602081019050919050565b6000819050602082019050919050565b600081519050919050565b600081519050919050565b6000602082019050919050565b600082825260208201905092915050565b600082825260208201905092915050565b600062000633826200063a565b9050919050565b600073ffffffffffffffffffffffffffffffffffffffff82169050919050565b6000819050919050565b6000620006718262000678565b9050919050565b600062000685826200068c565b9050919050565b600062000699826200063a565b9050919050565b82818337600083830152505050565b60005b83811015620006cf578082015181840152602081019050620006b2565b83811115620006df576000848401525b50505050565b6000601f19601f8301169050919050565b62000701816200065a565b81146200070d57600080fd5b5056fe60806040523480156200001157600080fd5b5060405162001581380380620015818339818101604052810190620000379190620003ae565b80600160006101000a81548173ffffffffffffffffffffffffffffffffffffffff021916908373ffffffffffffffffffffffffffffffffffffffff16021790555082600290805190602001906200009092919062000295565b508160039080519060200190620000a992919062000295565b5060006004819055506040518060400160405280600581526020017f46696c656400000000000000000000000000000000000000000000000000000081525060008080815260200190815260200160002090805190602001906200010f92919062000295565b506040518060400160405280600b81526020017f496e2050726f67726573730000000000000000000000000000000000000000008152506000806001815260200190815260200160002090805190602001906200016e92919062000295565b506040518060400160405280602081526020017f417070726f7665642c20496e7665737469676174696f6e20676f696e67206f6e815250600080600281526020019081526020016000209080519060200190620001cd92919062000295565b506040518060400160405280600e81526020017f46696e616c20436c6f73696e67730000000000000000000000000000000000008152506000806003815260200190815260200160002090805190602001906200022c92919062000295565b506040518060400160405280600681526020017f436c6f73656400000000000000000000000000000000000000000000000000008152506000806004815260200190815260200160002090805190602001906200028b92919062000295565b5050505062000515565b828054600181600116156101000203166002900490600052602060002090601f016020900481019282601f10620002d857805160ff191683800117855562000309565b8280016001018555821562000309579182015b8281111562000308578251825591602001919060010190620002eb565b5b5090506200031891906200031c565b5090565b5b80821115620003375760008160009055506001016200031d565b5090565b6000815190506200034c81620004fb565b92915050565b600082601f8301126200036457600080fd5b81516200037b620003758262000464565b62000436565b915080825260208301602083018583830111156200039857600080fd5b620003a5838284620004c5565b50505092915050565b600080600060608486031215620003c457600080fd5b600084015167ffffffffffffffff811115620003df57600080fd5b620003ed8682870162000352565b935050602084015167ffffffffffffffff8111156200040b57600080fd5b620004198682870162000352565b92505060406200042c868287016200033b565b9150509250925092565b6000604051905081810181811067ffffffffffffffff821117156200045a57600080fd5b8060405250919050565b600067ffffffffffffffff8211156200047c57600080fd5b601f19601f8301169050602081019050919050565b60006200049e82620004a5565b9050919050565b600073ffffffffffffffffffffffffffffffffffffffff82169050919050565b60005b83811015620004e5578082015181840152602081019050620004c8565b83811115620004f5576000848401525b50505050565b620005068162000491565b81146200051257600080fd5b50565b61105c80620005256000396000f3fe608060405234801561001057600080fd5b506004361061009e5760003560e01c80638d70158c116100665780638d70158c1461014b578063930c200314610169578063b4c2f72714610187578063dae5611b146101b9578063fbbf93a0146101d55761009e565b8063200d2ed2146100a35780632eac9422146100c15780634e69d560146100f15780634f4ae7721461010f5780636bc975f21461012d575b600080fd5b6100ab6101f5565b6040516100b89190610ea6565b60405180910390f35b6100db60048036038101906100d69190610c5a565b6101fb565b6040516100e89190610e84565b60405180910390f35b6100f96102ab565b6040516101069190610e84565b60405180910390f35b61011761035f565b6040516101249190610e84565b60405180910390f35b6101356103fd565b6040516101429190610e84565b60405180910390f35b61015361049b565b6040516101609190610e62565b60405180910390f35b610171610694565b60405161017e9190610e02565b60405180910390f35b6101a1600480360381019061019c9190610c5a565b6106ba565b6040516101b093929190610e1d565b60405180910390f35b6101d360048036038101906101ce9190610bee565b610841565b005b6101dd610942565b6040516101ec93929190610e1d565b60405180910390f35b60045481565b60006020528060005260406000206000915090508054600181600116156101000203166002900480601f0160208091040260200160405190810160405280929190818152602001828054600181600116156101000203166002900480156102a35780601f10610278576101008083540402835291602001916102a3565b820191906000526020600020905b81548152906001019060200180831161028657829003601f168201915b505050505081565b606060008060045481526020019081526020016000208054600181600116156101000203166002900480601f0160208091040260200160405190810160405280929190818152602001828054600181600116156101000203166002900480156103555780601f1061032a57610100808354040283529160200191610355565b820191906000526020600020905b81548152906001019060200180831161033857829003601f168201915b5050505050905090565b60038054600181600116156101000203166002900480601f0160208091040260200160405190810160405280929190818152602001828054600181600116156101000203166002900480156103f55780601f106103ca576101008083540402835291602001916103f5565b820191906000526020600020905b8154815290600101906020018083116103d857829003601f168201915b505050505081565b60028054600181600116156101000203166002900480601f0160208091040260200160405190810160405280929190818152602001828054600181600116156101000203166002900480156104935780601f1061046857610100808354040283529160200191610493565b820191906000526020600020905b81548152906001019060200180831161047657829003601f168201915b505050505081565b60606005805480602002602001604051908101604052809291908181526020016000905b8282101561068b57838290600052602060002090600302016040518060600160405290816000820160009054906101000a900473ffffffffffffffffffffffffffffffffffffffff1673ffffffffffffffffffffffffffffffffffffffff1673ffffffffffffffffffffffffffffffffffffffff168152602001600182018054600181600116156101000203166002900480601f0160208091040260200160405190810160405280929190818152602001828054600181600116156101000203166002900480156105d15780601f106105a6576101008083540402835291602001916105d1565b820191906000526020600020905b8154815290600101906020018083116105b457829003601f168201915b50505050508152602001600282018054600181600116156101000203166002900480601f0160208091040260200160405190810160405280929190818152602001828054600181600116156101000203166002900480156106735780601f1061064857610100808354040283529160200191610673565b820191906000526020600020905b81548152906001019060200180831161065657829003601f168201915b505050505081525050815260200190600101906104bf565b50505050905090565b600160009054906101000a900473ffffffffffffffffffffffffffffffffffffffff1681565b600581815481106106c757fe5b90600052602060002090600302016000915090508060000160009054906101000a900473ffffffffffffffffffffffffffffffffffffffff1690806001018054600181600116156101000203166002900480601f0160208091040260200160405190810160405280929190818152602001828054600181600116156101000203166002900480156107995780601f1061076e57610100808354040283529160200191610799565b820191906000526020600020905b81548152906001019060200180831161077c57829003601f168201915b505050505090806002018054600181600116156101000203166002900480601f0160208091040260200160405190810160405280929190818152602001828054600181600116156101000203166002900480156108375780601f1061080c57610100808354040283529160200191610837565b820191906000526020600020905b81548152906001019060200180831161081a57829003601f168201915b5050505050905083565b610849610ab1565b60405180606001604052803373ffffffffffffffffffffffffffffffffffffffff168152602001848152602001838152509050600581908060018154018082558091505060019003906000526020600020906003020160009091909190915060008201518160000160006101000a81548173ffffffffffffffffffffffffffffffffffffffff021916908373ffffffffffffffffffffffffffffffffffffffff160217905550602082015181600101908051906020019061090b929190610ae8565b506040820151816002019080519060200190610928929190610ae8565b505050600460008154809291906001019190505550505050565b6000606080600160009054906101000a900473ffffffffffffffffffffffffffffffffffffffff1660026003818054600181600116156101000203166002900480601f016020809104026020016040519081016040528092919081815260200182805460018160011615610100020316600290048015610a035780601f106109d857610100808354040283529160200191610a03565b820191906000526020600020905b8154815290600101906020018083116109e657829003601f168201915b50505050509150808054600181600116156101000203166002900480601f016020809104026020016040519081016040528092919081815260200182805460018160011615610100020316600290048015610a9f5780601f10610a7457610100808354040283529160200191610a9f565b820191906000526020600020905b815481529060010190602001808311610a8257829003601f168201915b50505050509050925092509250909192565b6040518060600160405280600073ffffffffffffffffffffffffffffffffffffffff16815260200160608152602001606081525090565b828054600181600116156101000203166002900490600052602060002090601f016020900481019282601f10610b2957805160ff1916838001178555610b57565b82800160010185558215610b57579182015b82811115610b56578251825591602001919060010190610b3b565b5b509050610b649190610b68565b5090565b5b80821115610b81576000816000905550600101610b69565b5090565b600082601f830112610b9657600080fd5b8135610ba9610ba482610eee565b610ec1565b91508082526020830160208301858383011115610bc557600080fd5b610bd0838284610fbc565b50505092915050565b600081359050610be88161100f565b92915050565b60008060408385031215610c0157600080fd5b600083013567ffffffffffffffff811115610c1b57600080fd5b610c2785828601610b85565b925050602083013567ffffffffffffffff811115610c4457600080fd5b610c5085828601610b85565b9150509250929050565b600060208284031215610c6c57600080fd5b6000610c7a84828501610bd9565b91505092915050565b6000610c8f8383610d9c565b905092915050565b610ca081610f80565b82525050565b610caf81610f80565b82525050565b6000610cc082610f2a565b610cca8185610f4d565b935083602082028501610cdc85610f1a565b8060005b85811015610d185784840389528151610cf98582610c83565b9450610d0483610f40565b925060208a01995050600181019050610ce0565b50829750879550505050505092915050565b6000610d3582610f35565b610d3f8185610f5e565b9350610d4f818560208601610fcb565b610d5881610ffe565b840191505092915050565b6000610d6e82610f35565b610d788185610f6f565b9350610d88818560208601610fcb565b610d9181610ffe565b840191505092915050565b6000606083016000830151610db46000860182610c97565b5060208301518482036020860152610dcc8282610d2a565b91505060408301518482036040860152610de68282610d2a565b9150508091505092915050565b610dfc81610fb2565b82525050565b6000602082019050610e176000830184610ca6565b92915050565b6000606082019050610e326000830186610ca6565b8181036020830152610e448185610d63565b90508181036040830152610e588184610d63565b9050949350505050565b60006020820190508181036000830152610e7c8184610cb5565b905092915050565b60006020820190508181036000830152610e9e8184610d63565b905092915050565b6000602082019050610ebb6000830184610df3565b92915050565b6000604051905081810181811067ffffffffffffffff82111715610ee457600080fd5b8060405250919050565b600067ffffffffffffffff821115610f0557600080fd5b601f19601f8301169050602081019050919050565b6000819050602082019050919050565b600081519050919050565b600081519050919050565b6000602082019050919050565b600082825260208201905092915050565b600082825260208201905092915050565b600082825260208201905092915050565b6000610f8b82610f92565b9050919050565b600073ffffffffffffffffffffffffffffffffffffffff82169050919050565b6000819050919050565b82818337600083830152505050565b60005b83811015610fe9578082015181840152602081019050610fce565b83811115610ff8576000848401525b50505050565b6000601f19601f8301169050919050565b61101881610fb2565b811461102357600080fd5b5056fea26469706673582212206bbfd55d366763efb2a11a96a8e50be599fbf5cb9f0e61fa58816bdec5cd56ec64736f6c63430007000033a264697066735822122025dd9027f037b280f9ed93997c1719f8cc75576551fe75fc61f89af6ad85e97364736f6c63430007000033","opcodes":"PUSH1 0x80 PUSH1 0x40 MSTORE CALLVALUE DUP1 ISZERO PUSH2 0x10 JUMPI PUSH1 0x0 DUP1 REVERT JUMPDEST POP PUSH2 0x1CC7 DUP1 PUSH2 0x20 PUSH1 0x0 CODECOPY PUSH1 0x0 RETURN INVALID PUSH1 0x80 PUSH1 0x40 MSTORE CALLVALUE DUP1 ISZERO PUSH3 0x11 JUMPI PUSH1 0x0 DUP1 REVERT JUMPDEST POP PUSH1 0x4 CALLDATASIZE LT PUSH3 0x52 JUMPI PUSH1 0x0 CALLDATALOAD PUSH1 0xE0 SHR DUP1 PUSH4 0x2412F27A EQ PUSH3 0x57 JUMPI DUP1 PUSH4 0x50322534 EQ PUSH3 0x79 JUMPI DUP1 PUSH4 0x9F9C3D84 EQ PUSH3 0xAF JUMPI DUP1 PUSH4 0xADB325D2 EQ PUSH3 0xD1 JUMPI JUMPDEST PUSH1 0x0 DUP1 REVERT JUMPDEST PUSH3 0x61 PUSH3 0xF1 JUMP JUMPDEST PUSH1 0x40 MLOAD PUSH3 0x70 SWAP2 SWAP1 PUSH3 0x507 JUMP JUMPDEST PUSH1 0x40 MLOAD DUP1 SWAP2 SUB SWAP1 RETURN JUMPDEST PUSH3 0x97 PUSH1 0x4 DUP1 CALLDATASIZE SUB DUP2 ADD SWAP1 PUSH3 0x91 SWAP2 SWAP1 PUSH3 0x3C6 JUMP JUMPDEST PUSH3 0x181 JUMP JUMPDEST PUSH1 0x40 MLOAD PUSH3 0xA6 SWAP2 SWAP1 PUSH3 0x4EA JUMP JUMPDEST PUSH1 0x40 MLOAD DUP1 SWAP2 SUB SWAP1 RETURN JUMPDEST PUSH3 0xB9 PUSH3 0x1BE JUMP JUMPDEST PUSH1 0x40 MLOAD PUSH3 0xC8 SWAP2 SWAP1 PUSH3 0x4EA JUMP JUMPDEST PUSH1 0x40 MLOAD DUP1 SWAP2 SUB SWAP1 RETURN JUMPDEST PUSH3 0xEF PUSH1 0x4 DUP1 CALLDATASIZE SUB DUP2 ADD SWAP1 PUSH3 0xE9 SWAP2 SWAP1 PUSH3 0x353 JUMP JUMPDEST PUSH3 0x1E8 JUMP JUMPDEST STOP JUMPDEST PUSH1 0x60 PUSH1 0x0 DUP1 SLOAD DUP1 PUSH1 0x20 MUL PUSH1 0x20 ADD PUSH1 0x40 MLOAD SWAP1 DUP2 ADD PUSH1 0x40 MSTORE DUP1 SWAP3 SWAP2 SWAP1 DUP2 DUP2 MSTORE PUSH1 0x20 ADD DUP3 DUP1 SLOAD DUP1 ISZERO PUSH3 0x177 JUMPI PUSH1 0x20 MUL DUP3 ADD SWAP2 SWAP1 PUSH1 0x0 MSTORE PUSH1 0x20 PUSH1 0x0 KECCAK256 SWAP1 JUMPDEST DUP2 PUSH1 0x0 SWAP1 SLOAD SWAP1 PUSH2 0x100 EXP SWAP1 DIV PUSH20 0xFFFFFFFFFFFFFFFFFFFFFFFFFFFFFFFFFFFFFFFF AND PUSH20 0xFFFFFFFFFFFFFFFFFFFFFFFFFFFFFFFFFFFFFFFF AND DUP2 MSTORE PUSH1 0x20 ADD SWAP1 PUSH1 0x1 ADD SWAP1 DUP1 DUP4 GT PUSH3 0x12C JUMPI JUMPDEST POP POP POP POP POP SWAP1 POP SWAP1 JUMP JUMPDEST PUSH1 0x0 DUP2 DUP2 SLOAD DUP2 LT PUSH3 0x18F JUMPI INVALID JUMPDEST SWAP1 PUSH1 0x0 MSTORE PUSH1 0x20 PUSH1 0x0 KECCAK256 ADD PUSH1 0x0 SWAP2 POP SLOAD SWAP1 PUSH2 0x100 EXP SWAP1 DIV PUSH20 0xFFFFFFFFFFFFFFFFFFFFFFFFFFFFFFFFFFFFFFFF AND DUP2 JUMP JUMPDEST PUSH1 0x0 PUSH1 0x1 PUSH1 0x0 SWAP1 SLOAD SWAP1 PUSH2 0x100 EXP SWAP1 DIV PUSH20 0xFFFFFFFFFFFFFFFFFFFFFFFFFFFFFFFFFFFFFFFF AND SWAP1 POP SWAP1 JUMP JUMPDEST PUSH1 0x0 DUP3 DUP3 CALLER PUSH1 0x40 MLOAD PUSH3 0x1FB SWAP1 PUSH3 0x2D2 JUMP JUMPDEST PUSH3 0x209 SWAP4 SWAP3 SWAP2 SWAP1 PUSH3 0x52B JUMP JUMPDEST PUSH1 0x40 MLOAD DUP1 SWAP2 SUB SWAP1 PUSH1 0x0 CREATE DUP1 ISZERO DUP1 ISZERO PUSH3 0x226 JUMPI RETURNDATASIZE PUSH1 0x0 DUP1 RETURNDATACOPY RETURNDATASIZE PUSH1 0x0 REVERT JUMPDEST POP SWAP1 POP PUSH1 0x0 DUP2 SWAP1 DUP1 PUSH1 0x1 DUP2 SLOAD ADD DUP1 DUP3 SSTORE DUP1 SWAP2 POP POP PUSH1 0x1 SWAP1 SUB SWAP1 PUSH1 0x0 MSTORE PUSH1 0x20 PUSH1 0x0 KECCAK256 ADD PUSH1 0x0 SWAP1 SWAP2 SWAP1 SWAP2 SWAP1 SWAP2 PUSH2 0x100 EXP DUP2 SLOAD DUP2 PUSH20 0xFFFFFFFFFFFFFFFFFFFFFFFFFFFFFFFFFFFFFFFF MUL NOT AND SWAP1 DUP4 PUSH20 0xFFFFFFFFFFFFFFFFFFFFFFFFFFFFFFFFFFFFFFFF AND MUL OR SWAP1 SSTORE POP DUP1 PUSH1 0x1 PUSH1 0x0 PUSH2 0x100 EXP DUP2 SLOAD DUP2 PUSH20 0xFFFFFFFFFFFFFFFFFFFFFFFFFFFFFFFFFFFFFFFF MUL NOT AND SWAP1 DUP4 PUSH20 0xFFFFFFFFFFFFFFFFFFFFFFFFFFFFFFFFFFFFFFFF AND MUL OR SWAP1 SSTORE POP POP POP POP JUMP JUMPDEST PUSH2 0x1581 DUP1 PUSH3 0x711 DUP4 CODECOPY ADD SWAP1 JUMP JUMPDEST PUSH1 0x0 DUP3 PUSH1 0x1F DUP4 ADD SLT PUSH3 0x2F2 JUMPI PUSH1 0x0 DUP1 REVERT JUMPDEST DUP2 CALLDATALOAD PUSH3 0x309 PUSH3 0x303 DUP3 PUSH3 0x5A4 JUMP JUMPDEST PUSH3 0x576 JUMP JUMPDEST SWAP2 POP DUP1 DUP3 MSTORE PUSH1 0x20 DUP4 ADD PUSH1 0x20 DUP4 ADD DUP6 DUP4 DUP4 ADD GT ISZERO PUSH3 0x326 JUMPI PUSH1 0x0 DUP1 REVERT JUMPDEST PUSH3 0x333 DUP4 DUP3 DUP5 PUSH3 0x6A0 JUMP JUMPDEST POP POP POP SWAP3 SWAP2 POP POP JUMP JUMPDEST PUSH1 0x0 DUP2 CALLDATALOAD SWAP1 POP PUSH3 0x34D DUP2 PUSH3 0x6F6 JUMP JUMPDEST SWAP3 SWAP2 POP POP JUMP JUMPDEST PUSH1 0x0 DUP1 PUSH1 0x40 DUP4 DUP6 SUB SLT ISZERO PUSH3 0x367 JUMPI PUSH1 0x0 DUP1 REVERT JUMPDEST PUSH1 0x0 DUP4 ADD CALLDATALOAD PUSH8 0xFFFFFFFFFFFFFFFF DUP2 GT ISZERO PUSH3 0x382 JUMPI PUSH1 0x0 DUP1 REVERT JUMPDEST PUSH3 0x390 DUP6 DUP3 DUP7 ADD PUSH3 0x2E0 JUMP JUMPDEST SWAP3 POP POP PUSH1 0x20 DUP4 ADD CALLDATALOAD PUSH8 0xFFFFFFFFFFFFFFFF DUP2 GT ISZERO PUSH3 0x3AE JUMPI PUSH1 0x0 DUP1 REVERT JUMPDEST PUSH3 0x3BC DUP6 DUP3 DUP7 ADD PUSH3 0x2E0 JUMP JUMPDEST SWAP2 POP POP SWAP3 POP SWAP3 SWAP1 POP JUMP JUMPDEST PUSH1 0x0 PUSH1 0x20 DUP3 DUP5 SUB SLT ISZERO PUSH3 0x3D9 JUMPI PUSH1 0x0 DUP1 REVERT JUMPDEST PUSH1 0x0 PUSH3 0x3E9 DUP5 DUP3 DUP6 ADD PUSH3 0x33C JUMP JUMPDEST SWAP2 POP POP SWAP3 SWAP2 POP POP JUMP JUMPDEST PUSH1 0x0 PUSH3 0x400 DUP4 DUP4 PUSH3 0x41D JUMP JUMPDEST PUSH1 0x20 DUP4 ADD SWAP1 POP SWAP3 SWAP2 POP POP JUMP JUMPDEST PUSH3 0x417 DUP2 PUSH3 0x664 JUMP JUMPDEST DUP3 MSTORE POP POP JUMP JUMPDEST PUSH3 0x428 DUP2 PUSH3 0x626 JUMP JUMPDEST DUP3 MSTORE POP POP JUMP JUMPDEST PUSH3 0x439 DUP2 PUSH3 0x626 JUMP JUMPDEST DUP3 MSTORE POP POP JUMP JUMPDEST PUSH1 0x0 PUSH3 0x44C DUP3 PUSH3 0x5E1 JUMP JUMPDEST PUSH3 0x458 DUP2 DUP6 PUSH3 0x604 JUMP JUMPDEST SWAP4 POP PUSH3 0x465 DUP4 PUSH3 0x5D1 JUMP JUMPDEST DUP1 PUSH1 0x0 JUMPDEST DUP4 DUP2 LT ISZERO PUSH3 0x49C JUMPI DUP2 MLOAD PUSH3 0x480 DUP9 DUP3 PUSH3 0x3F2 JUMP JUMPDEST SWAP8 POP PUSH3 0x48D DUP4 PUSH3 0x5F7 JUMP JUMPDEST SWAP3 POP POP PUSH1 0x1 DUP2 ADD SWAP1 POP PUSH3 0x469 JUMP JUMPDEST POP DUP6 SWAP4 POP POP POP POP SWAP3 SWAP2 POP POP JUMP JUMPDEST PUSH1 0x0 PUSH3 0x4B6 DUP3 PUSH3 0x5EC JUMP JUMPDEST PUSH3 0x4C2 DUP2 DUP6 PUSH3 0x615 JUMP JUMPDEST SWAP4 POP PUSH3 0x4D4 DUP2 DUP6 PUSH1 0x20 DUP7 ADD PUSH3 0x6AF JUMP JUMPDEST PUSH3 0x4DF DUP2 PUSH3 0x6E5 JUMP JUMPDEST DUP5 ADD SWAP2 POP POP SWAP3 SWAP2 POP POP JUMP JUMPDEST PUSH1 0x0 PUSH1 0x20 DUP3 ADD SWAP1 POP PUSH3 0x501 PUSH1 0x0 DUP4 ADD DUP5 PUSH3 0x42E JUMP JUMPDEST SWAP3 SWAP2 POP POP JUMP JUMPDEST PUSH1 0x0 PUSH1 0x20 DUP3 ADD SWAP1 POP DUP2 DUP2 SUB PUSH1 0x0 DUP4 ADD MSTORE PUSH3 0x523 DUP2 DUP5 PUSH3 0x43F JUMP JUMPDEST SWAP1 POP SWAP3 SWAP2 POP POP JUMP JUMPDEST PUSH1 0x0 PUSH1 0x60 DUP3 ADD SWAP1 POP DUP2 DUP2 SUB PUSH1 0x0 DUP4 ADD MSTORE PUSH3 0x547 DUP2 DUP7 PUSH3 0x4A9 JUMP JUMPDEST SWAP1 POP DUP2 DUP2 SUB PUSH1 0x20 DUP4 ADD MSTORE PUSH3 0x55D DUP2 DUP6 PUSH3 0x4A9 JUMP JUMPDEST SWAP1 POP PUSH3 0x56E PUSH1 0x40 DUP4 ADD DUP5 PUSH3 0x40C JUMP JUMPDEST SWAP5 SWAP4 POP POP POP POP JUMP JUMPDEST PUSH1 0x0 PUSH1 0x40 MLOAD SWAP1 POP DUP2 DUP2 ADD DUP2 DUP2 LT PUSH8 0xFFFFFFFFFFFFFFFF DUP3 GT OR ISZERO PUSH3 0x59A JUMPI PUSH1 0x0 DUP1 REVERT JUMPDEST DUP1 PUSH1 0x40 MSTORE POP SWAP2 SWAP1 POP JUMP JUMPDEST PUSH1 0x0 PUSH8 0xFFFFFFFFFFFFFFFF DUP3 GT ISZERO PUSH3 0x5BC JUMPI PUSH1 0x0 DUP1 REVERT JUMPDEST PUSH1 0x1F NOT PUSH1 0x1F DUP4 ADD AND SWAP1 POP PUSH1 0x20 DUP2 ADD SWAP1 POP SWAP2 SWAP1 POP JUMP JUMPDEST PUSH1 0x0 DUP2 SWAP1 POP PUSH1 0x20 DUP3 ADD SWAP1 POP SWAP2 SWAP1 POP JUMP JUMPDEST PUSH1 0x0 DUP2 MLOAD SWAP1 POP SWAP2 SWAP1 POP JUMP JUMPDEST PUSH1 0x0 DUP2 MLOAD SWAP1 POP SWAP2 SWAP1 POP JUMP JUMPDEST PUSH1 0x0 PUSH1 0x20 DUP3 ADD SWAP1 POP SWAP2 SWAP1 POP JUMP JUMPDEST PUSH1 0x0 DUP3 DUP3 MSTORE PUSH1 0x20 DUP3 ADD SWAP1 POP SWAP3 SWAP2 POP POP JUMP JUMPDEST PUSH1 0x0 DUP3 DUP3 MSTORE PUSH1 0x20 DUP3 ADD SWAP1 POP SWAP3 SWAP2 POP POP JUMP JUMPDEST PUSH1 0x0 PUSH3 0x633 DUP3 PUSH3 0x63A JUMP JUMPDEST SWAP1 POP SWAP2 SWAP1 POP JUMP JUMPDEST PUSH1 0x0 PUSH20 0xFFFFFFFFFFFFFFFFFFFFFFFFFFFFFFFFFFFFFFFF DUP3 AND SWAP1 POP SWAP2 SWAP1 POP JUMP JUMPDEST PUSH1 0x0 DUP2 SWAP1 POP SWAP2 SWAP1 POP JUMP JUMPDEST PUSH1 0x0 PUSH3 0x671 DUP3 PUSH3 0x678 JUMP JUMPDEST SWAP1 POP SWAP2 SWAP1 POP JUMP JUMPDEST PUSH1 0x0 PUSH3 0x685 DUP3 PUSH3 0x68C JUMP JUMPDEST SWAP1 POP SWAP2 SWAP1 POP JUMP JUMPDEST PUSH1 0x0 PUSH3 0x699 DUP3 PUSH3 0x63A JUMP JUMPDEST SWAP1 POP SWAP2 SWAP1 POP JUMP JUMPDEST DUP3 DUP2 DUP4 CALLDATACOPY PUSH1 0x0 DUP4 DUP4 ADD MSTORE POP POP POP JUMP JUMPDEST PUSH1 0x0 JUMPDEST DUP4 DUP2 LT ISZERO PUSH3 0x6CF JUMPI DUP1 DUP3 ADD MLOAD DUP2 DUP5 ADD MSTORE PUSH1 0x20 DUP2 ADD SWAP1 POP PUSH3 0x6B2 JUMP JUMPDEST DUP4 DUP2 GT ISZERO PUSH3 0x6DF JUMPI PUSH1 0x0 DUP5 DUP5 ADD MSTORE JUMPDEST POP POP POP POP JUMP JUMPDEST PUSH1 0x0 PUSH1 0x1F NOT PUSH1 0x1F DUP4 ADD AND SWAP1 POP SWAP2 SWAP1 POP JUMP JUMPDEST PUSH3 0x701 DUP2 PUSH3 0x65A JUMP JUMPDEST DUP2 EQ PUSH3 0x70D JUMPI PUSH1 0x0 DUP1 REVERT JUMPDEST POP JUMP INVALID PUSH1 0x80 PUSH1 0x40 MSTORE CALLVALUE DUP1 ISZERO PUSH3 0x11 JUMPI PUSH1 0x0 DUP1 REVERT JUMPDEST POP PUSH1 0x40 MLOAD PUSH3 0x1581 CODESIZE SUB DUP1 PUSH3 0x1581 DUP4 CODECOPY DUP2 DUP2 ADD PUSH1 0x40 MSTORE DUP2 ADD SWAP1 PUSH3 0x37 SWAP2 SWAP1 PUSH3 0x3AE JUMP JUMPDEST DUP1 PUSH1 0x1 PUSH1 0x0 PUSH2 0x100 EXP DUP2 SLOAD DUP2 PUSH20 0xFFFFFFFFFFFFFFFFFFFFFFFFFFFFFFFFFFFFFFFF MUL NOT AND SWAP1 DUP4 PUSH20 0xFFFFFFFFFFFFFFFFFFFFFFFFFFFFFFFFFFFFFFFF AND MUL OR SWAP1 SSTORE POP DUP3 PUSH1 0x2 SWAP1 DUP1 MLOAD SWAP1 PUSH1 0x20 ADD SWAP1 PUSH3 0x90 SWAP3 SWAP2 SWAP1 PUSH3 0x295 JUMP JUMPDEST POP DUP2 PUSH1 0x3 SWAP1 DUP1 MLOAD SWAP1 PUSH1 0x20 ADD SWAP1 PUSH3 0xA9 SWAP3 SWAP2 SWAP1 PUSH3 0x295 JUMP JUMPDEST POP PUSH1 0x0 PUSH1 0x4 DUP2 SWAP1 SSTORE POP PUSH1 0x40 MLOAD DUP1 PUSH1 0x40 ADD PUSH1 0x40 MSTORE DUP1 PUSH1 0x5 DUP2 MSTORE PUSH1 0x20 ADD PUSH32 0x46696C6564000000000000000000000000000000000000000000000000000000 DUP2 MSTORE POP PUSH1 0x0 DUP1 DUP1 DUP2 MSTORE PUSH1 0x20 ADD SWAP1 DUP2 MSTORE PUSH1 0x20 ADD PUSH1 0x0 KECCAK256 SWAP1 DUP1 MLOAD SWAP1 PUSH1 0x20 ADD SWAP1 PUSH3 0x10F SWAP3 SWAP2 SWAP1 PUSH3 0x295 JUMP JUMPDEST POP PUSH1 0x40 MLOAD DUP1 PUSH1 0x40 ADD PUSH1 0x40 MSTORE DUP1 PUSH1 0xB DUP2 MSTORE PUSH1 0x20 ADD PUSH32 0x496E2050726F6772657373000000000000000000000000000000000000000000 DUP2 MSTORE POP PUSH1 0x0 DUP1 PUSH1 0x1 DUP2 MSTORE PUSH1 0x20 ADD SWAP1 DUP2 MSTORE PUSH1 0x20 ADD PUSH1 0x0 KECCAK256 SWAP1 DUP1 MLOAD SWAP1 PUSH1 0x20 ADD SWAP1 PUSH3 0x16E SWAP3 SWAP2 SWAP1 PUSH3 0x295 JUMP JUMPDEST POP PUSH1 0x40 MLOAD DUP1 PUSH1 0x40 ADD PUSH1 0x40 MSTORE DUP1 PUSH1 0x20 DUP2 MSTORE PUSH1 0x20 ADD PUSH32 0x417070726F7665642C20496E7665737469676174696F6E20676F696E67206F6E DUP2 MSTORE POP PUSH1 0x0 DUP1 PUSH1 0x2 DUP2 MSTORE PUSH1 0x20 ADD SWAP1 DUP2 MSTORE PUSH1 0x20 ADD PUSH1 0x0 KECCAK256 SWAP1 DUP1 MLOAD SWAP1 PUSH1 0x20 ADD SWAP1 PUSH3 0x1CD SWAP3 SWAP2 SWAP1 PUSH3 0x295 JUMP JUMPDEST POP PUSH1 0x40 MLOAD DUP1 PUSH1 0x40 ADD PUSH1 0x40 MSTORE DUP1 PUSH1 0xE DUP2 MSTORE PUSH1 0x20 ADD PUSH32 0x46696E616C20436C6F73696E6773000000000000000000000000000000000000 DUP2 MSTORE POP PUSH1 0x0 DUP1 PUSH1 0x3 DUP2 MSTORE PUSH1 0x20 ADD SWAP1 DUP2 MSTORE PUSH1 0x20 ADD PUSH1 0x0 KECCAK256 SWAP1 DUP1 MLOAD SWAP1 PUSH1 0x20 ADD SWAP1 PUSH3 0x22C SWAP3 SWAP2 SWAP1 PUSH3 0x295 JUMP JUMPDEST POP PUSH1 0x40 MLOAD DUP1 PUSH1 0x40 ADD PUSH1 0x40 MSTORE DUP1 PUSH1 0x6 DUP2 MSTORE PUSH1 0x20 ADD PUSH32 0x436C6F7365640000000000000000000000000000000000000000000000000000 DUP2 MSTORE POP PUSH1 0x0 DUP1 PUSH1 0x4 DUP2 MSTORE PUSH1 0x20 ADD SWAP1 DUP2 MSTORE PUSH1 0x20 ADD PUSH1 0x0 KECCAK256 SWAP1 DUP1 MLOAD SWAP1 PUSH1 0x20 ADD SWAP1 PUSH3 0x28B SWAP3 SWAP2 SWAP1 PUSH3 0x295 JUMP JUMPDEST POP POP POP POP PUSH3 0x515 JUMP JUMPDEST DUP3 DUP1 SLOAD PUSH1 0x1 DUP2 PUSH1 0x1 AND ISZERO PUSH2 0x100 MUL SUB AND PUSH1 0x2 SWAP1 DIV SWAP1 PUSH1 0x0 MSTORE PUSH1 0x20 PUSH1 0x0 KECCAK256 SWAP1 PUSH1 0x1F ADD PUSH1 0x20 SWAP1 DIV DUP2 ADD SWAP3 DUP3 PUSH1 0x1F LT PUSH3 0x2D8 JUMPI DUP1 MLOAD PUSH1 0xFF NOT AND DUP4 DUP1 ADD OR DUP6 SSTORE PUSH3 0x309 JUMP JUMPDEST DUP3 DUP1 ADD PUSH1 0x1 ADD DUP6 SSTORE DUP3 ISZERO PUSH3 0x309 JUMPI SWAP2 DUP3 ADD JUMPDEST DUP3 DUP2 GT ISZERO PUSH3 0x308 JUMPI DUP3 MLOAD DUP3 SSTORE SWAP2 PUSH1 0x20 ADD SWAP2 SWAP1 PUSH1 0x1 ADD SWAP1 PUSH3 0x2EB JUMP JUMPDEST JUMPDEST POP SWAP1 POP PUSH3 0x318 SWAP2 SWAP1 PUSH3 0x31C JUMP JUMPDEST POP SWAP1 JUMP JUMPDEST JUMPDEST DUP1 DUP3 GT ISZERO PUSH3 0x337 JUMPI PUSH1 0x0 DUP2 PUSH1 0x0 SWAP1 SSTORE POP PUSH1 0x1 ADD PUSH3 0x31D JUMP JUMPDEST POP SWAP1 JUMP JUMPDEST PUSH1 0x0 DUP2 MLOAD SWAP1 POP PUSH3 0x34C DUP2 PUSH3 0x4FB JUMP JUMPDEST SWAP3 SWAP2 POP POP JUMP JUMPDEST PUSH1 0x0 DUP3 PUSH1 0x1F DUP4 ADD SLT PUSH3 0x364 JUMPI PUSH1 0x0 DUP1 REVERT JUMPDEST DUP2 MLOAD PUSH3 0x37B PUSH3 0x375 DUP3 PUSH3 0x464 JUMP JUMPDEST PUSH3 0x436 JUMP JUMPDEST SWAP2 POP DUP1 DUP3 MSTORE PUSH1 0x20 DUP4 ADD PUSH1 0x20 DUP4 ADD DUP6 DUP4 DUP4 ADD GT ISZERO PUSH3 0x398 JUMPI PUSH1 0x0 DUP1 REVERT JUMPDEST PUSH3 0x3A5 DUP4 DUP3 DUP5 PUSH3 0x4C5 JUMP JUMPDEST POP POP POP SWAP3 SWAP2 POP POP JUMP JUMPDEST PUSH1 0x0 DUP1 PUSH1 0x0 PUSH1 0x60 DUP5 DUP7 SUB SLT ISZERO PUSH3 0x3C4 JUMPI PUSH1 0x0 DUP1 REVERT JUMPDEST PUSH1 0x0 DUP5 ADD MLOAD PUSH8 0xFFFFFFFFFFFFFFFF DUP2 GT ISZERO PUSH3 0x3DF JUMPI PUSH1 0x0 DUP1 REVERT JUMPDEST PUSH3 0x3ED DUP7 DUP3 DUP8 ADD PUSH3 0x352 JUMP JUMPDEST SWAP4 POP POP PUSH1 0x20 DUP5 ADD MLOAD PUSH8 0xFFFFFFFFFFFFFFFF DUP2 GT ISZERO PUSH3 0x40B JUMPI PUSH1 0x0 DUP1 REVERT JUMPDEST PUSH3 0x419 DUP7 DUP3 DUP8 ADD PUSH3 0x352 JUMP JUMPDEST SWAP3 POP POP PUSH1 0x40 PUSH3 0x42C DUP7 DUP3 DUP8 ADD PUSH3 0x33B JUMP JUMPDEST SWAP2 POP POP SWAP3 POP SWAP3 POP SWAP3 JUMP JUMPDEST PUSH1 0x0 PUSH1 0x40 MLOAD SWAP1 POP DUP2 DUP2 ADD DUP2 DUP2 LT PUSH8 0xFFFFFFFFFFFFFFFF DUP3 GT OR ISZERO PUSH3 0x45A JUMPI PUSH1 0x0 DUP1 REVERT JUMPDEST DUP1 PUSH1 0x40 MSTORE POP SWAP2 SWAP1 POP JUMP JUMPDEST PUSH1 0x0 PUSH8 0xFFFFFFFFFFFFFFFF DUP3 GT ISZERO PUSH3 0x47C JUMPI PUSH1 0x0 DUP1 REVERT JUMPDEST PUSH1 0x1F NOT PUSH1 0x1F DUP4 ADD AND SWAP1 POP PUSH1 0x20 DUP2 ADD SWAP1 POP SWAP2 SWAP1 POP JUMP JUMPDEST PUSH1 0x0 PUSH3 0x49E DUP3 PUSH3 0x4A5 JUMP JUMPDEST SWAP1 POP SWAP2 SWAP1 POP JUMP JUMPDEST PUSH1 0x0 PUSH20 0xFFFFFFFFFFFFFFFFFFFFFFFFFFFFFFFFFFFFFFFF DUP3 AND SWAP1 POP SWAP2 SWAP1 POP JUMP JUMPDEST PUSH1 0x0 JUMPDEST DUP4 DUP2 LT ISZERO PUSH3 0x4E5 JUMPI DUP1 DUP3 ADD MLOAD DUP2 DUP5 ADD MSTORE PUSH1 0x20 DUP2 ADD SWAP1 POP PUSH3 0x4C8 JUMP JUMPDEST DUP4 DUP2 GT ISZERO PUSH3 0x4F5 JUMPI PUSH1 0x0 DUP5 DUP5 ADD MSTORE JUMPDEST POP POP POP POP JUMP JUMPDEST PUSH3 0x506 DUP2 PUSH3 0x491 JUMP JUMPDEST DUP2 EQ PUSH3 0x512 JUMPI PUSH1 0x0 DUP1 REVERT JUMPDEST POP JUMP JUMPDEST PUSH2 0x105C DUP1 PUSH3 0x525 PUSH1 0x0 CODECOPY PUSH1 0x0 RETURN INVALID PUSH1 0x80 PUSH1 0x40 MSTORE CALLVALUE DUP1 ISZERO PUSH2 0x10 JUMPI PUSH1 0x0 DUP1 REVERT JUMPDEST POP PUSH1 0x4 CALLDATASIZE LT PUSH2 0x9E JUMPI PUSH1 0x0 CALLDATALOAD PUSH1 0xE0 SHR DUP1 PUSH4 0x8D70158C GT PUSH2 0x66 JUMPI DUP1 PUSH4 0x8D70158C EQ PUSH2 0x14B JUMPI DUP1 PUSH4 0x930C2003 EQ PUSH2 0x169 JUMPI DUP1 PUSH4 0xB4C2F727 EQ PUSH2 0x187 JUMPI DUP1 PUSH4 0xDAE5611B EQ PUSH2 0x1B9 JUMPI DUP1 PUSH4 0xFBBF93A0 EQ PUSH2 0x1D5 JUMPI PUSH2 0x9E JUMP JUMPDEST DUP1 PUSH4 0x200D2ED2 EQ PUSH2 0xA3 JUMPI DUP1 PUSH4 0x2EAC9422 EQ PUSH2 0xC1 JUMPI DUP1 PUSH4 0x4E69D560 EQ PUSH2 0xF1 JUMPI DUP1 PUSH4 0x4F4AE772 EQ PUSH2 0x10F JUMPI DUP1 PUSH4 0x6BC975F2 EQ PUSH2 0x12D JUMPI JUMPDEST PUSH1 0x0 DUP1 REVERT JUMPDEST PUSH2 0xAB PUSH2 0x1F5 JUMP JUMPDEST PUSH1 0x40 MLOAD PUSH2 0xB8 SWAP2 SWAP1 PUSH2 0xEA6 JUMP JUMPDEST PUSH1 0x40 MLOAD DUP1 SWAP2 SUB SWAP1 RETURN JUMPDEST PUSH2 0xDB PUSH1 0x4 DUP1 CALLDATASIZE SUB DUP2 ADD SWAP1 PUSH2 0xD6 SWAP2 SWAP1 PUSH2 0xC5A JUMP JUMPDEST PUSH2 0x1FB JUMP JUMPDEST PUSH1 0x40 MLOAD PUSH2 0xE8 SWAP2 SWAP1 PUSH2 0xE84 JUMP JUMPDEST PUSH1 0x40 MLOAD DUP1 SWAP2 SUB SWAP1 RETURN JUMPDEST PUSH2 0xF9 PUSH2 0x2AB JUMP JUMPDEST PUSH1 0x40 MLOAD PUSH2 0x106 SWAP2 SWAP1 PUSH2 0xE84 JUMP JUMPDEST PUSH1 0x40 MLOAD DUP1 SWAP2 SUB SWAP1 RETURN JUMPDEST PUSH2 0x117 PUSH2 0x35F JUMP JUMPDEST PUSH1 0x40 MLOAD PUSH2 0x124 SWAP2 SWAP1 PUSH2 0xE84 JUMP JUMPDEST PUSH1 0x40 MLOAD DUP1 SWAP2 SUB SWAP1 RETURN JUMPDEST PUSH2 0x135 PUSH2 0x3FD JUMP JUMPDEST PUSH1 0x40 MLOAD PUSH2 0x142 SWAP2 SWAP1 PUSH2 0xE84 JUMP JUMPDEST PUSH1 0x40 MLOAD DUP1 SWAP2 SUB SWAP1 RETURN JUMPDEST PUSH2 0x153 PUSH2 0x49B JUMP JUMPDEST PUSH1 0x40 MLOAD PUSH2 0x160 SWAP2 SWAP1 PUSH2 0xE62 JUMP JUMPDEST PUSH1 0x40 MLOAD DUP1 SWAP2 SUB SWAP1 RETURN JUMPDEST PUSH2 0x171 PUSH2 0x694 JUMP JUMPDEST PUSH1 0x40 MLOAD PUSH2 0x17E SWAP2 SWAP1 PUSH2 0xE02 JUMP JUMPDEST PUSH1 0x40 MLOAD DUP1 SWAP2 SUB SWAP1 RETURN JUMPDEST PUSH2 0x1A1 PUSH1 0x4 DUP1 CALLDATASIZE SUB DUP2 ADD SWAP1 PUSH2 0x19C SWAP2 SWAP1 PUSH2 0xC5A JUMP JUMPDEST PUSH2 0x6BA JUMP JUMPDEST PUSH1 0x40 MLOAD PUSH2 0x1B0 SWAP4 SWAP3 SWAP2 SWAP1 PUSH2 0xE1D JUMP JUMPDEST PUSH1 0x40 MLOAD DUP1 SWAP2 SUB SWAP1 RETURN JUMPDEST PUSH2 0x1D3 PUSH1 0x4 DUP1 CALLDATASIZE SUB DUP2 ADD SWAP1 PUSH2 0x1CE SWAP2 SWAP1 PUSH2 0xBEE JUMP JUMPDEST PUSH2 0x841 JUMP JUMPDEST STOP JUMPDEST PUSH2 0x1DD PUSH2 0x942 JUMP JUMPDEST PUSH1 0x40 MLOAD PUSH2 0x1EC SWAP4 SWAP3 SWAP2 SWAP1 PUSH2 0xE1D JUMP JUMPDEST PUSH1 0x40 MLOAD DUP1 SWAP2 SUB SWAP1 RETURN JUMPDEST PUSH1 0x4 SLOAD DUP2 JUMP JUMPDEST PUSH1 0x0 PUSH1 0x20 MSTORE DUP1 PUSH1 0x0 MSTORE PUSH1 0x40 PUSH1 0x0 KECCAK256 PUSH1 0x0 SWAP2 POP SWAP1 POP DUP1 SLOAD PUSH1 0x1 DUP2 PUSH1 0x1 AND ISZERO PUSH2 0x100 MUL SUB AND PUSH1 0x2 SWAP1 DIV DUP1 PUSH1 0x1F ADD PUSH1 0x20 DUP1 SWAP2 DIV MUL PUSH1 0x20 ADD PUSH1 0x40 MLOAD SWAP1 DUP2 ADD PUSH1 0x40 MSTORE DUP1 SWAP3 SWAP2 SWAP1 DUP2 DUP2 MSTORE PUSH1 0x20 ADD DUP3 DUP1 SLOAD PUSH1 0x1 DUP2 PUSH1 0x1 AND ISZERO PUSH2 0x100 MUL SUB AND PUSH1 0x2 SWAP1 DIV DUP1 ISZERO PUSH2 0x2A3 JUMPI DUP1 PUSH1 0x1F LT PUSH2 0x278 JUMPI PUSH2 0x100 DUP1 DUP4 SLOAD DIV MUL DUP4 MSTORE SWAP2 PUSH1 0x20 ADD SWAP2 PUSH2 0x2A3 JUMP JUMPDEST DUP3 ADD SWAP2 SWAP1 PUSH1 0x0 MSTORE PUSH1 0x20 PUSH1 0x0 KECCAK256 SWAP1 JUMPDEST DUP2 SLOAD DUP2 MSTORE SWAP1 PUSH1 0x1 ADD SWAP1 PUSH1 0x20 ADD DUP1 DUP4 GT PUSH2 0x286 JUMPI DUP3 SWAP1 SUB PUSH1 0x1F AND DUP3 ADD SWAP2 JUMPDEST POP POP POP POP POP DUP2 JUMP JUMPDEST PUSH1 0x60 PUSH1 0x0 DUP1 PUSH1 0x4 SLOAD DUP2 MSTORE PUSH1 0x20 ADD SWAP1 DUP2 MSTORE PUSH1 0x20 ADD PUSH1 0x0 KECCAK256 DUP1 SLOAD PUSH1 0x1 DUP2 PUSH1 0x1 AND ISZERO PUSH2 0x100 MUL SUB AND PUSH1 0x2 SWAP1 DIV DUP1 PUSH1 0x1F ADD PUSH1 0x20 DUP1 SWAP2 DIV MUL PUSH1 0x20 ADD PUSH1 0x40 MLOAD SWAP1 DUP2 ADD PUSH1 0x40 MSTORE DUP1 SWAP3 SWAP2 SWAP1 DUP2 DUP2 MSTORE PUSH1 0x20 ADD DUP3 DUP1 SLOAD PUSH1 0x1 DUP2 PUSH1 0x1 AND ISZERO PUSH2 0x100 MUL SUB AND PUSH1 0x2 SWAP1 DIV DUP1 ISZERO PUSH2 0x355 JUMPI DUP1 PUSH1 0x1F LT PUSH2 0x32A JUMPI PUSH2 0x100 DUP1 DUP4 SLOAD DIV MUL DUP4 MSTORE SWAP2 PUSH1 0x20 ADD SWAP2 PUSH2 0x355 JUMP JUMPDEST DUP3 ADD SWAP2 SWAP1 PUSH1 0x0 MSTORE PUSH1 0x20 PUSH1 0x0 KECCAK256 SWAP1 JUMPDEST DUP2 SLOAD DUP2 MSTORE SWAP1 PUSH1 0x1 ADD SWAP1 PUSH1 0x20 ADD DUP1 DUP4 GT PUSH2 0x338 JUMPI DUP3 SWAP1 SUB PUSH1 0x1F AND DUP3 ADD SWAP2 JUMPDEST POP POP POP POP POP SWAP1 POP SWAP1 JUMP JUMPDEST PUSH1 0x3 DUP1 SLOAD PUSH1 0x1 DUP2 PUSH1 0x1 AND ISZERO PUSH2 0x100 MUL SUB AND PUSH1 0x2 SWAP1 DIV DUP1 PUSH1 0x1F ADD PUSH1 0x20 DUP1 SWAP2 DIV MUL PUSH1 0x20 ADD PUSH1 0x40 MLOAD SWAP1 DUP2 ADD PUSH1 0x40 MSTORE DUP1 SWAP3 SWAP2 SWAP1 DUP2 DUP2 MSTORE PUSH1 0x20 ADD DUP3 DUP1 SLOAD PUSH1 0x1 DUP2 PUSH1 0x1 AND ISZERO PUSH2 0x100 MUL SUB AND PUSH1 0x2 SWAP1 DIV DUP1 ISZERO PUSH2 0x3F5 JUMPI DUP1 PUSH1 0x1F LT PUSH2 0x3CA JUMPI PUSH2 0x100 DUP1 DUP4 SLOAD DIV MUL DUP4 MSTORE SWAP2 PUSH1 0x20 ADD SWAP2 PUSH2 0x3F5 JUMP JUMPDEST DUP3 ADD SWAP2 SWAP1 PUSH1 0x0 MSTORE PUSH1 0x20 PUSH1 0x0 KECCAK256 SWAP1 JUMPDEST DUP2 SLOAD DUP2 MSTORE SWAP1 PUSH1 0x1 ADD SWAP1 PUSH1 0x20 ADD DUP1 DUP4 GT PUSH2 0x3D8 JUMPI DUP3 SWAP1 SUB PUSH1 0x1F AND DUP3 ADD SWAP2 JUMPDEST POP POP POP POP POP DUP2 JUMP JUMPDEST PUSH1 0x2 DUP1 SLOAD PUSH1 0x1 DUP2 PUSH1 0x1 AND ISZERO PUSH2 0x100 MUL SUB AND PUSH1 0x2 SWAP1 DIV DUP1 PUSH1 0x1F ADD PUSH1 0x20 DUP1 SWAP2 DIV MUL PUSH1 0x20 ADD PUSH1 0x40 MLOAD SWAP1 DUP2 ADD PUSH1 0x40 MSTORE DUP1 SWAP3 SWAP2 SWAP1 DUP2 DUP2 MSTORE PUSH1 0x20 ADD DUP3 DUP1 SLOAD PUSH1 0x1 DUP2 PUSH1 0x1 AND ISZERO PUSH2 0x100 MUL SUB AND PUSH1 0x2 SWAP1 DIV DUP1 ISZERO PUSH2 0x493 JUMPI DUP1 PUSH1 0x1F LT PUSH2 0x468 JUMPI PUSH2 0x100 DUP1 DUP4 SLOAD DIV MUL DUP4 MSTORE SWAP2 PUSH1 0x20 ADD SWAP2 PUSH2 0x493 JUMP JUMPDEST DUP3 ADD SWAP2 SWAP1 PUSH1 0x0 MSTORE PUSH1 0x20 PUSH1 0x0 KECCAK256 SWAP1 JUMPDEST DUP2 SLOAD DUP2 MSTORE SWAP1 PUSH1 0x1 ADD SWAP1 PUSH1 0x20 ADD DUP1 DUP4 GT PUSH2 0x476 JUMPI DUP3 SWAP1 SUB PUSH1 0x1F AND DUP3 ADD SWAP2 JUMPDEST POP POP POP POP POP DUP2 JUMP JUMPDEST PUSH1 0x60 PUSH1 0x5 DUP1 SLOAD DUP1 PUSH1 0x20 MUL PUSH1 0x20 ADD PUSH1 0x40 MLOAD SWAP1 DUP2 ADD PUSH1 0x40 MSTORE DUP1 SWAP3 SWAP2 SWAP1 DUP2 DUP2 MSTORE PUSH1 0x20 ADD PUSH1 0x0 SWAP1 JUMPDEST DUP3 DUP3 LT ISZERO PUSH2 0x68B JUMPI DUP4 DUP3 SWAP1 PUSH1 0x0 MSTORE PUSH1 0x20 PUSH1 0x0 KECCAK256 SWAP1 PUSH1 0x3 MUL ADD PUSH1 0x40 MLOAD DUP1 PUSH1 0x60 ADD PUSH1 0x40 MSTORE SWAP1 DUP2 PUSH1 0x0 DUP3 ADD PUSH1 0x0 SWAP1 SLOAD SWAP1 PUSH2 0x100 EXP SWAP1 DIV PUSH20 0xFFFFFFFFFFFFFFFFFFFFFFFFFFFFFFFFFFFFFFFF AND PUSH20 0xFFFFFFFFFFFFFFFFFFFFFFFFFFFFFFFFFFFFFFFF AND PUSH20 0xFFFFFFFFFFFFFFFFFFFFFFFFFFFFFFFFFFFFFFFF AND DUP2 MSTORE PUSH1 0x20 ADD PUSH1 0x1 DUP3 ADD DUP1 SLOAD PUSH1 0x1 DUP2 PUSH1 0x1 AND ISZERO PUSH2 0x100 MUL SUB AND PUSH1 0x2 SWAP1 DIV DUP1 PUSH1 0x1F ADD PUSH1 0x20 DUP1 SWAP2 DIV MUL PUSH1 0x20 ADD PUSH1 0x40 MLOAD SWAP1 DUP2 ADD PUSH1 0x40 MSTORE DUP1 SWAP3 SWAP2 SWAP1 DUP2 DUP2 MSTORE PUSH1 0x20 ADD DUP3 DUP1 SLOAD PUSH1 0x1 DUP2 PUSH1 0x1 AND ISZERO PUSH2 0x100 MUL SUB AND PUSH1 0x2 SWAP1 DIV DUP1 ISZERO PUSH2 0x5D1 JUMPI DUP1 PUSH1 0x1F LT PUSH2 0x5A6 JUMPI PUSH2 0x100 DUP1 DUP4 SLOAD DIV MUL DUP4 MSTORE SWAP2 PUSH1 0x20 ADD SWAP2 PUSH2 0x5D1 JUMP JUMPDEST DUP3 ADD SWAP2 SWAP1 PUSH1 0x0 MSTORE PUSH1 0x20 PUSH1 0x0 KECCAK256 SWAP1 JUMPDEST DUP2 SLOAD DUP2 MSTORE SWAP1 PUSH1 0x1 ADD SWAP1 PUSH1 0x20 ADD DUP1 DUP4 GT PUSH2 0x5B4 JUMPI DUP3 SWAP1 SUB PUSH1 0x1F AND DUP3 ADD SWAP2 JUMPDEST POP POP POP POP POP DUP2 MSTORE PUSH1 0x20 ADD PUSH1 0x2 DUP3 ADD DUP1 SLOAD PUSH1 0x1 DUP2 PUSH1 0x1 AND ISZERO PUSH2 0x100 MUL SUB AND PUSH1 0x2 SWAP1 DIV DUP1 PUSH1 0x1F ADD PUSH1 0x20 DUP1 SWAP2 DIV MUL PUSH1 0x20 ADD PUSH1 0x40 MLOAD SWAP1 DUP2 ADD PUSH1 0x40 MSTORE DUP1 SWAP3 SWAP2 SWAP1 DUP2 DUP2 MSTORE PUSH1 0x20 ADD DUP3 DUP1 SLOAD PUSH1 0x1 DUP2 PUSH1 0x1 AND ISZERO PUSH2 0x100 MUL SUB AND PUSH1 0x2 SWAP1 DIV DUP1 ISZERO PUSH2 0x673 JUMPI DUP1 PUSH1 0x1F LT PUSH2 0x648 JUMPI PUSH2 0x100 DUP1 DUP4 SLOAD DIV MUL DUP4 MSTORE SWAP2 PUSH1 0x20 ADD SWAP2 PUSH2 0x673 JUMP JUMPDEST DUP3 ADD SWAP2 SWAP1 PUSH1 0x0 MSTORE PUSH1 0x20 PUSH1 0x0 KECCAK256 SWAP1 JUMPDEST DUP2 SLOAD DUP2 MSTORE SWAP1 PUSH1 0x1 ADD SWAP1 PUSH1 0x20 ADD DUP1 DUP4 GT PUSH2 0x656 JUMPI DUP3 SWAP1 SUB PUSH1 0x1F AND DUP3 ADD SWAP2 JUMPDEST POP POP POP POP POP DUP2 MSTORE POP POP DUP2 MSTORE PUSH1 0x20 ADD SWAP1 PUSH1 0x1 ADD SWAP1 PUSH2 0x4BF JUMP JUMPDEST POP POP POP POP SWAP1 POP SWAP1 JUMP JUMPDEST PUSH1 0x1 PUSH1 0x0 SWAP1 SLOAD SWAP1 PUSH2 0x100 EXP SWAP1 DIV PUSH20 0xFFFFFFFFFFFFFFFFFFFFFFFFFFFFFFFFFFFFFFFF AND DUP2 JUMP JUMPDEST PUSH1 0x5 DUP2 DUP2 SLOAD DUP2 LT PUSH2 0x6C7 JUMPI INVALID JUMPDEST SWAP1 PUSH1 0x0 MSTORE PUSH1 0x20 PUSH1 0x0 KECCAK256 SWAP1 PUSH1 0x3 MUL ADD PUSH1 0x0 SWAP2 POP SWAP1 POP DUP1 PUSH1 0x0 ADD PUSH1 0x0 SWAP1 SLOAD SWAP1 PUSH2 0x100 EXP SWAP1 DIV PUSH20 0xFFFFFFFFFFFFFFFFFFFFFFFFFFFFFFFFFFFFFFFF AND SWAP1 DUP1 PUSH1 0x1 ADD DUP1 SLOAD PUSH1 0x1 DUP2 PUSH1 0x1 AND ISZERO PUSH2 0x100 MUL SUB AND PUSH1 0x2 SWAP1 DIV DUP1 PUSH1 0x1F ADD PUSH1 0x20 DUP1 SWAP2 DIV MUL PUSH1 0x20 ADD PUSH1 0x40 MLOAD SWAP1 DUP2 ADD PUSH1 0x40 MSTORE DUP1 SWAP3 SWAP2 SWAP1 DUP2 DUP2 MSTORE PUSH1 0x20 ADD DUP3 DUP1 SLOAD PUSH1 0x1 DUP2 PUSH1 0x1 AND ISZERO PUSH2 0x100 MUL SUB AND PUSH1 0x2 SWAP1 DIV DUP1 ISZERO PUSH2 0x799 JUMPI DUP1 PUSH1 0x1F LT PUSH2 0x76E JUMPI PUSH2 0x100 DUP1 DUP4 SLOAD DIV MUL DUP4 MSTORE SWAP2 PUSH1 0x20 ADD SWAP2 PUSH2 0x799 JUMP JUMPDEST DUP3 ADD SWAP2 SWAP1 PUSH1 0x0 MSTORE PUSH1 0x20 PUSH1 0x0 KECCAK256 SWAP1 JUMPDEST DUP2 SLOAD DUP2 MSTORE SWAP1 PUSH1 0x1 ADD SWAP1 PUSH1 0x20 ADD DUP1 DUP4 GT PUSH2 0x77C JUMPI DUP3 SWAP1 SUB PUSH1 0x1F AND DUP3 ADD SWAP2 JUMPDEST POP POP POP POP POP SWAP1 DUP1 PUSH1 0x2 ADD DUP1 SLOAD PUSH1 0x1 DUP2 PUSH1 0x1 AND ISZERO PUSH2 0x100 MUL SUB AND PUSH1 0x2 SWAP1 DIV DUP1 PUSH1 0x1F ADD PUSH1 0x20 DUP1 SWAP2 DIV MUL PUSH1 0x20 ADD PUSH1 0x40 MLOAD SWAP1 DUP2 ADD PUSH1 0x40 MSTORE DUP1 SWAP3 SWAP2 SWAP1 DUP2 DUP2 MSTORE PUSH1 0x20 ADD DUP3 DUP1 SLOAD PUSH1 0x1 DUP2 PUSH1 0x1 AND ISZERO PUSH2 0x100 MUL SUB AND PUSH1 0x2 SWAP1 DIV DUP1 ISZERO PUSH2 0x837 JUMPI DUP1 PUSH1 0x1F LT PUSH2 0x80C JUMPI PUSH2 0x100 DUP1 DUP4 SLOAD DIV MUL DUP4 MSTORE SWAP2 PUSH1 0x20 ADD SWAP2 PUSH2 0x837 JUMP JUMPDEST DUP3 ADD SWAP2 SWAP1 PUSH1 0x0 MSTORE PUSH1 0x20 PUSH1 0x0 KECCAK256 SWAP1 JUMPDEST DUP2 SLOAD DUP2 MSTORE SWAP1 PUSH1 0x1 ADD SWAP1 PUSH1 0x20 ADD DUP1 DUP4 GT PUSH2 0x81A JUMPI DUP3 SWAP1 SUB PUSH1 0x1F AND DUP3 ADD SWAP2 JUMPDEST POP POP POP POP POP SWAP1 POP DUP4 JUMP JUMPDEST PUSH2 0x849 PUSH2 0xAB1 JUMP JUMPDEST PUSH1 0x40 MLOAD DUP1 PUSH1 0x60 ADD PUSH1 0x40 MSTORE DUP1 CALLER PUSH20 0xFFFFFFFFFFFFFFFFFFFFFFFFFFFFFFFFFFFFFFFF AND DUP2 MSTORE PUSH1 0x20 ADD DUP5 DUP2 MSTORE PUSH1 0x20 ADD DUP4 DUP2 MSTORE POP SWAP1 POP PUSH1 0x5 DUP2 SWAP1 DUP1 PUSH1 0x1 DUP2 SLOAD ADD DUP1 DUP3 SSTORE DUP1 SWAP2 POP POP PUSH1 0x1 SWAP1 SUB SWAP1 PUSH1 0x0 MSTORE PUSH1 0x20 PUSH1 0x0 KECCAK256 SWAP1 PUSH1 0x3 MUL ADD PUSH1 0x0 SWAP1 SWAP2 SWAP1 SWAP2 SWAP1 SWAP2 POP PUSH1 0x0 DUP3 ADD MLOAD DUP2 PUSH1 0x0 ADD PUSH1 0x0 PUSH2 0x100 EXP DUP2 SLOAD DUP2 PUSH20 0xFFFFFFFFFFFFFFFFFFFFFFFFFFFFFFFFFFFFFFFF MUL NOT AND SWAP1 DUP4 PUSH20 0xFFFFFFFFFFFFFFFFFFFFFFFFFFFFFFFFFFFFFFFF AND MUL OR SWAP1 SSTORE POP PUSH1 0x20 DUP3 ADD MLOAD DUP2 PUSH1 0x1 ADD SWAP1 DUP1 MLOAD SWAP1 PUSH1 0x20 ADD SWAP1 PUSH2 0x90B SWAP3 SWAP2 SWAP1 PUSH2 0xAE8 JUMP JUMPDEST POP PUSH1 0x40 DUP3 ADD MLOAD DUP2 PUSH1 0x2 ADD SWAP1 DUP1 MLOAD SWAP1 PUSH1 0x20 ADD SWAP1 PUSH2 0x928 SWAP3 SWAP2 SWAP1 PUSH2 0xAE8 JUMP JUMPDEST POP POP POP PUSH1 0x4 PUSH1 0x0 DUP2 SLOAD DUP1 SWAP3 SWAP2 SWAP1 PUSH1 0x1 ADD SWAP2 SWAP1 POP SSTORE POP POP POP POP JUMP JUMPDEST PUSH1 0x0 PUSH1 0x60 DUP1 PUSH1 0x1 PUSH1 0x0 SWAP1 SLOAD SWAP1 PUSH2 0x100 EXP SWAP1 DIV PUSH20 0xFFFFFFFFFFFFFFFFFFFFFFFFFFFFFFFFFFFFFFFF AND PUSH1 0x2 PUSH1 0x3 DUP2 DUP1 SLOAD PUSH1 0x1 DUP2 PUSH1 0x1 AND ISZERO PUSH2 0x100 MUL SUB AND PUSH1 0x2 SWAP1 DIV DUP1 PUSH1 0x1F ADD PUSH1 0x20 DUP1 SWAP2 DIV MUL PUSH1 0x20 ADD PUSH1 0x40 MLOAD SWAP1 DUP2 ADD PUSH1 0x40 MSTORE DUP1 SWAP3 SWAP2 SWAP1 DUP2 DUP2 MSTORE PUSH1 0x20 ADD DUP3 DUP1 SLOAD PUSH1 0x1 DUP2 PUSH1 0x1 AND ISZERO PUSH2 0x100 MUL SUB AND PUSH1 0x2 SWAP1 DIV DUP1 ISZERO PUSH2 0xA03 JUMPI DUP1 PUSH1 0x1F LT PUSH2 0x9D8 JUMPI PUSH2 0x100 DUP1 DUP4 SLOAD DIV MUL DUP4 MSTORE SWAP2 PUSH1 0x20 ADD SWAP2 PUSH2 0xA03 JUMP JUMPDEST DUP3 ADD SWAP2 SWAP1 PUSH1 0x0 MSTORE PUSH1 0x20 PUSH1 0x0 KECCAK256 SWAP1 JUMPDEST DUP2 SLOAD DUP2 MSTORE SWAP1 PUSH1 0x1 ADD SWAP1 PUSH1 0x20 ADD DUP1 DUP4 GT PUSH2 0x9E6 JUMPI DUP3 SWAP1 SUB PUSH1 0x1F AND DUP3 ADD SWAP2 JUMPDEST POP POP POP POP POP SWAP2 POP DUP1 DUP1 SLOAD PUSH1 0x1 DUP2 PUSH1 0x1 AND ISZERO PUSH2 0x100 MUL SUB AND PUSH1 0x2 SWAP1 DIV DUP1 PUSH1 0x1F ADD PUSH1 0x20 DUP1 SWAP2 DIV MUL PUSH1 0x20 ADD PUSH1 0x40 MLOAD SWAP1 DUP2 ADD PUSH1 0x40 MSTORE DUP1 SWAP3 SWAP2 SWAP1 DUP2 DUP2 MSTORE PUSH1 0x20 ADD DUP3 DUP1 SLOAD PUSH1 0x1 DUP2 PUSH1 0x1 AND ISZERO PUSH2 0x100 MUL SUB AND PUSH1 0x2 SWAP1 DIV DUP1 ISZERO PUSH2 0xA9F JUMPI DUP1 PUSH1 0x1F LT PUSH2 0xA74 JUMPI PUSH2 0x100 DUP1 DUP4 SLOAD DIV MUL DUP4 MSTORE SWAP2 PUSH1 0x20 ADD SWAP2 PUSH2 0xA9F JUMP JUMPDEST DUP3 ADD SWAP2 SWAP1 PUSH1 0x0 MSTORE PUSH1 0x20 PUSH1 0x0 KECCAK256 SWAP1 JUMPDEST DUP2 SLOAD DUP2 MSTORE SWAP1 PUSH1 0x1 ADD SWAP1 PUSH1 0x20 ADD DUP1 DUP4 GT PUSH2 0xA82 JUMPI DUP3 SWAP1 SUB PUSH1 0x1F AND DUP3 ADD SWAP2 JUMPDEST POP POP POP POP POP SWAP1 POP SWAP3 POP SWAP3 POP SWAP3 POP SWAP1 SWAP2 SWAP3 JUMP JUMPDEST PUSH1 0x40 MLOAD DUP1 PUSH1 0x60 ADD PUSH1 0x40 MSTORE DUP1 PUSH1 0x0 PUSH20 0xFFFFFFFFFFFFFFFFFFFFFFFFFFFFFFFFFFFFFFFF AND DUP2 MSTORE PUSH1 0x20 ADD PUSH1 0x60 DUP2 MSTORE PUSH1 0x20 ADD PUSH1 0x60 DUP2 MSTORE POP SWAP1 JUMP JUMPDEST DUP3 DUP1 SLOAD PUSH1 0x1 DUP2 PUSH1 0x1 AND ISZERO PUSH2 0x100 MUL SUB AND PUSH1 0x2 SWAP1 DIV SWAP1 PUSH1 0x0 MSTORE PUSH1 0x20 PUSH1 0x0 KECCAK256 SWAP1 PUSH1 0x1F ADD PUSH1 0x20 SWAP1 DIV DUP2 ADD SWAP3 DUP3 PUSH1 0x1F LT PUSH2 0xB29 JUMPI DUP1 MLOAD PUSH1 0xFF NOT AND DUP4 DUP1 ADD OR DUP6 SSTORE PUSH2 0xB57 JUMP JUMPDEST DUP3 DUP1 ADD PUSH1 0x1 ADD DUP6 SSTORE DUP3 ISZERO PUSH2 0xB57 JUMPI SWAP2 DUP3 ADD JUMPDEST DUP3 DUP2 GT ISZERO PUSH2 0xB56 JUMPI DUP3 MLOAD DUP3 SSTORE SWAP2 PUSH1 0x20 ADD SWAP2 SWAP1 PUSH1 0x1 ADD SWAP1 PUSH2 0xB3B JUMP JUMPDEST JUMPDEST POP SWAP1 POP PUSH2 0xB64 SWAP2 SWAP1 PUSH2 0xB68 JUMP JUMPDEST POP SWAP1 JUMP JUMPDEST JUMPDEST DUP1 DUP3 GT ISZERO PUSH2 0xB81 JUMPI PUSH1 0x0 DUP2 PUSH1 0x0 SWAP1 SSTORE POP PUSH1 0x1 ADD PUSH2 0xB69 JUMP JUMPDEST POP SWAP1 JUMP JUMPDEST PUSH1 0x0 DUP3 PUSH1 0x1F DUP4 ADD SLT PUSH2 0xB96 JUMPI PUSH1 0x0 DUP1 REVERT JUMPDEST DUP2 CALLDATALOAD PUSH2 0xBA9 PUSH2 0xBA4 DUP3 PUSH2 0xEEE JUMP JUMPDEST PUSH2 0xEC1 JUMP JUMPDEST SWAP2 POP DUP1 DUP3 MSTORE PUSH1 0x20 DUP4 ADD PUSH1 0x20 DUP4 ADD DUP6 DUP4 DUP4 ADD GT ISZERO PUSH2 0xBC5 JUMPI PUSH1 0x0 DUP1 REVERT JUMPDEST PUSH2 0xBD0 DUP4 DUP3 DUP5 PUSH2 0xFBC JUMP JUMPDEST POP POP POP SWAP3 SWAP2 POP POP JUMP JUMPDEST PUSH1 0x0 DUP2 CALLDATALOAD SWAP1 POP PUSH2 0xBE8 DUP2 PUSH2 0x100F JUMP JUMPDEST SWAP3 SWAP2 POP POP JUMP JUMPDEST PUSH1 0x0 DUP1 PUSH1 0x40 DUP4 DUP6 SUB SLT ISZERO PUSH2 0xC01 JUMPI PUSH1 0x0 DUP1 REVERT JUMPDEST PUSH1 0x0 DUP4 ADD CALLDATALOAD PUSH8 0xFFFFFFFFFFFFFFFF DUP2 GT ISZERO PUSH2 0xC1B JUMPI PUSH1 0x0 DUP1 REVERT JUMPDEST PUSH2 0xC27 DUP6 DUP3 DUP7 ADD PUSH2 0xB85 JUMP JUMPDEST SWAP3 POP POP PUSH1 0x20 DUP4 ADD CALLDATALOAD PUSH8 0xFFFFFFFFFFFFFFFF DUP2 GT ISZERO PUSH2 0xC44 JUMPI PUSH1 0x0 DUP1 REVERT JUMPDEST PUSH2 0xC50 DUP6 DUP3 DUP7 ADD PUSH2 0xB85 JUMP JUMPDEST SWAP2 POP POP SWAP3 POP SWAP3 SWAP1 POP JUMP JUMPDEST PUSH1 0x0 PUSH1 0x20 DUP3 DUP5 SUB SLT ISZERO PUSH2 0xC6C JUMPI PUSH1 0x0 DUP1 REVERT JUMPDEST PUSH1 0x0 PUSH2 0xC7A DUP5 DUP3 DUP6 ADD PUSH2 0xBD9 JUMP JUMPDEST SWAP2 POP POP SWAP3 SWAP2 POP POP JUMP JUMPDEST PUSH1 0x0 PUSH2 0xC8F DUP4 DUP4 PUSH2 0xD9C JUMP JUMPDEST SWAP1 POP SWAP3 SWAP2 POP POP JUMP JUMPDEST PUSH2 0xCA0 DUP2 PUSH2 0xF80 JUMP JUMPDEST DUP3 MSTORE POP POP JUMP JUMPDEST PUSH2 0xCAF DUP2 PUSH2 0xF80 JUMP JUMPDEST DUP3 MSTORE POP POP JUMP JUMPDEST PUSH1 0x0 PUSH2 0xCC0 DUP3 PUSH2 0xF2A JUMP JUMPDEST PUSH2 0xCCA DUP2 DUP6 PUSH2 0xF4D JUMP JUMPDEST SWAP4 POP DUP4 PUSH1 0x20 DUP3 MUL DUP6 ADD PUSH2 0xCDC DUP6 PUSH2 0xF1A JUMP JUMPDEST DUP1 PUSH1 0x0 JUMPDEST DUP6 DUP2 LT ISZERO PUSH2 0xD18 JUMPI DUP5 DUP5 SUB DUP10 MSTORE DUP2 MLOAD PUSH2 0xCF9 DUP6 DUP3 PUSH2 0xC83 JUMP JUMPDEST SWAP5 POP PUSH2 0xD04 DUP4 PUSH2 0xF40 JUMP JUMPDEST SWAP3 POP PUSH1 0x20 DUP11 ADD SWAP10 POP POP PUSH1 0x1 DUP2 ADD SWAP1 POP PUSH2 0xCE0 JUMP JUMPDEST POP DUP3 SWAP8 POP DUP8 SWAP6 POP POP POP POP POP POP SWAP3 SWAP2 POP POP JUMP JUMPDEST PUSH1 0x0 PUSH2 0xD35 DUP3 PUSH2 0xF35 JUMP JUMPDEST PUSH2 0xD3F DUP2 DUP6 PUSH2 0xF5E JUMP JUMPDEST SWAP4 POP PUSH2 0xD4F DUP2 DUP6 PUSH1 0x20 DUP7 ADD PUSH2 0xFCB JUMP JUMPDEST PUSH2 0xD58 DUP2 PUSH2 0xFFE JUMP JUMPDEST DUP5 ADD SWAP2 POP POP SWAP3 SWAP2 POP POP JUMP JUMPDEST PUSH1 0x0 PUSH2 0xD6E DUP3 PUSH2 0xF35 JUMP JUMPDEST PUSH2 0xD78 DUP2 DUP6 PUSH2 0xF6F JUMP JUMPDEST SWAP4 POP PUSH2 0xD88 DUP2 DUP6 PUSH1 0x20 DUP7 ADD PUSH2 0xFCB JUMP JUMPDEST PUSH2 0xD91 DUP2 PUSH2 0xFFE JUMP JUMPDEST DUP5 ADD SWAP2 POP POP SWAP3 SWAP2 POP POP JUMP JUMPDEST PUSH1 0x0 PUSH1 0x60 DUP4 ADD PUSH1 0x0 DUP4 ADD MLOAD PUSH2 0xDB4 PUSH1 0x0 DUP7 ADD DUP3 PUSH2 0xC97 JUMP JUMPDEST POP PUSH1 0x20 DUP4 ADD MLOAD DUP5 DUP3 SUB PUSH1 0x20 DUP7 ADD MSTORE PUSH2 0xDCC DUP3 DUP3 PUSH2 0xD2A JUMP JUMPDEST SWAP2 POP POP PUSH1 0x40 DUP4 ADD MLOAD DUP5 DUP3 SUB PUSH1 0x40 DUP7 ADD MSTORE PUSH2 0xDE6 DUP3 DUP3 PUSH2 0xD2A JUMP JUMPDEST SWAP2 POP POP DUP1 SWAP2 POP POP SWAP3 SWAP2 POP POP JUMP JUMPDEST PUSH2 0xDFC DUP2 PUSH2 0xFB2 JUMP JUMPDEST DUP3 MSTORE POP POP JUMP JUMPDEST PUSH1 0x0 PUSH1 0x20 DUP3 ADD SWAP1 POP PUSH2 0xE17 PUSH1 0x0 DUP4 ADD DUP5 PUSH2 0xCA6 JUMP JUMPDEST SWAP3 SWAP2 POP POP JUMP JUMPDEST PUSH1 0x0 PUSH1 0x60 DUP3 ADD SWAP1 POP PUSH2 0xE32 PUSH1 0x0 DUP4 ADD DUP7 PUSH2 0xCA6 JUMP JUMPDEST DUP2 DUP2 SUB PUSH1 0x20 DUP4 ADD MSTORE PUSH2 0xE44 DUP2 DUP6 PUSH2 0xD63 JUMP JUMPDEST SWAP1 POP DUP2 DUP2 SUB PUSH1 0x40 DUP4 ADD MSTORE PUSH2 0xE58 DUP2 DUP5 PUSH2 0xD63 JUMP JUMPDEST SWAP1 POP SWAP5 SWAP4 POP POP POP POP JUMP JUMPDEST PUSH1 0x0 PUSH1 0x20 DUP3 ADD SWAP1 POP DUP2 DUP2 SUB PUSH1 0x0 DUP4 ADD MSTORE PUSH2 0xE7C DUP2 DUP5 PUSH2 0xCB5 JUMP JUMPDEST SWAP1 POP SWAP3 SWAP2 POP POP JUMP JUMPDEST PUSH1 0x0 PUSH1 0x20 DUP3 ADD SWAP1 POP DUP2 DUP2 SUB PUSH1 0x0 DUP4 ADD MSTORE PUSH2 0xE9E DUP2 DUP5 PUSH2 0xD63 JUMP JUMPDEST SWAP1 POP SWAP3 SWAP2 POP POP JUMP JUMPDEST PUSH1 0x0 PUSH1 0x20 DUP3 ADD SWAP1 POP PUSH2 0xEBB PUSH1 0x0 DUP4 ADD DUP5 PUSH2 0xDF3 JUMP JUMPDEST SWAP3 SWAP2 POP POP JUMP JUMPDEST PUSH1 0x0 PUSH1 0x40 MLOAD SWAP1 POP DUP2 DUP2 ADD DUP2 DUP2 LT PUSH8 0xFFFFFFFFFFFFFFFF DUP3 GT OR ISZERO PUSH2 0xEE4 JUMPI PUSH1 0x0 DUP1 REVERT JUMPDEST DUP1 PUSH1 0x40 MSTORE POP SWAP2 SWAP1 POP JUMP JUMPDEST PUSH1 0x0 PUSH8 0xFFFFFFFFFFFFFFFF DUP3 GT ISZERO PUSH2 0xF05 JUMPI PUSH1 0x0 DUP1 REVERT JUMPDEST PUSH1 0x1F NOT PUSH1 0x1F DUP4 ADD AND SWAP1 POP PUSH1 0x20 DUP2 ADD SWAP1 POP SWAP2 SWAP1 POP JUMP JUMPDEST PUSH1 0x0 DUP2 SWAP1 POP PUSH1 0x20 DUP3 ADD SWAP1 POP SWAP2 SWAP1 POP JUMP JUMPDEST PUSH1 0x0 DUP2 MLOAD SWAP1 POP SWAP2 SWAP1 POP JUMP JUMPDEST PUSH1 0x0 DUP2 MLOAD SWAP1 POP SWAP2 SWAP1 POP JUMP JUMPDEST PUSH1 0x0 PUSH1 0x20 DUP3 ADD SWAP1 POP SWAP2 SWAP1 POP JUMP JUMPDEST PUSH1 0x0 DUP3 DUP3 MSTORE PUSH1 0x20 DUP3 ADD SWAP1 POP SWAP3 SWAP2 POP POP JUMP JUMPDEST PUSH1 0x0 DUP3 DUP3 MSTORE PUSH1 0x20 DUP3 ADD SWAP1 POP SWAP3 SWAP2 POP POP JUMP JUMPDEST PUSH1 0x0 DUP3 DUP3 MSTORE PUSH1 0x20 DUP3 ADD SWAP1 POP SWAP3 SWAP2 POP POP JUMP JUMPDEST PUSH1 0x0 PUSH2 0xF8B DUP3 PUSH2 0xF92 JUMP JUMPDEST SWAP1 POP SWAP2 SWAP1 POP JUMP JUMPDEST PUSH1 0x0 PUSH20 0xFFFFFFFFFFFFFFFFFFFFFFFFFFFFFFFFFFFFFFFF DUP3 AND SWAP1 POP SWAP2 SWAP1 POP JUMP JUMPDEST PUSH1 0x0 DUP2 SWAP1 POP SWAP2 SWAP1 POP JUMP JUMPDEST DUP3 DUP2 DUP4 CALLDATACOPY PUSH1 0x0 DUP4 DUP4 ADD MSTORE POP POP POP JUMP JUMPDEST PUSH1 0x0 JUMPDEST DUP4 DUP2 LT ISZERO PUSH2 0xFE9 JUMPI DUP1 DUP3 ADD MLOAD DUP2 DUP5 ADD MSTORE PUSH1 0x20 DUP2 ADD SWAP1 POP PUSH2 0xFCE JUMP JUMPDEST DUP4 DUP2 GT ISZERO PUSH2 0xFF8 JUMPI PUSH1 0x0 DUP5 DUP5 ADD MSTORE JUMPDEST POP POP POP POP JUMP JUMPDEST PUSH1 0x0 PUSH1 0x1F NOT PUSH1 0x1F DUP4 ADD AND SWAP1 POP SWAP2 SWAP1 POP JUMP JUMPDEST PUSH2 0x1018 DUP2 PUSH2 0xFB2 JUMP JUMPDEST DUP2 EQ PUSH2 0x1023 JUMPI PUSH1 0x0 DUP1 REVERT JUMPDEST POP JUMP INVALID LOG2 PUSH5 0x6970667358 0x22 SLT KECCAK256 PUSH12 0xBFD55D366763EFB2A11A96A8 0xE5 SIGNEXTEND 0xE5 SWAP10 0xFB CREATE2 0xCB SWAP16 0xE PUSH2 0xFA58 DUP2 PUSH12 0xDEC5CD56EC64736F6C634300 SMOD STOP STOP CALLER LOG2 PUSH5 0x6970667358 0x22 SLT KECCAK256 0x25 0xDD SWAP1 0x27 CREATE CALLDATACOPY 0xB2 DUP1 0xF9 0xED SWAP4 SWAP10 PUSH29 0x1719F8CC75576551FE75FC61F89AF6AD85E97364736F6C634300070000 CALLER "},"gasEstimates":{"creation":{"codeDepositCost":"1473400","executionCost":"1541","totalCost":"1474941"},"external":{"createFIR(string,string)":"infinite","deployedFIRs(uint256)":"2356","getDeployedFIRs()":"infinite","getLatestFIR()":"1244"}},"methodIdentifiers":{"createFIR(string,string)":"adb325d2","deployedFIRs(uint256)":"50322534","getDeployedFIRs()":"2412f27a","getLatestFIR()":"9f9c3d84"}},"storageLayout":{"storage":[{"astId":5,"contract":"FIR.sol:FIRFactory","label":"deployedFIRs","offset":0,"slot":"0","type":"t_array(t_address)dyn_storage"},{"astId":7,"contract":"FIR.sol:FIRFactory","label":"latestFIR","offset":0,"slot":"1","type":"t_address"}],"types":{"t_address":{"encoding":"inplace","label":"address","numberOfBytes":"20"},"t_array(t_address)dyn_storage":{"base":"t_address","encoding":"dynamic_array","label":"address[]","numberOfBytes":"32"}}},"userdoc":{"kind":"user","methods":{},"version":1}}